:020000040800F2
:10000000105300203D7700086D75000871750008D9
:1000100000000000000000000000000000000000E0
:1000200000000000000000000000000075750008DE
:1000300000000000000000007775000879750008D6
:100040001F290008632A0008B32A0008EF3B0008B4
:1000500053680008AF680008D3690008817500087C
:100060008B7500085F6B0008F36D0008076E0008D1
:10007000676E00086B6E0008C36F0008E37200082B
:100080007F74000800000000000000002F760008C8
:10009000000000006176000803770008757700080B
:1000A00077770008797700087B7700087D7700086C
:1000B0007F77000800000000000000000000000042
:1000C0000021416404490164002070470249026C28
:1000D0008A4302640020704780BF000000B50A0018
:1000E000D2B2002A05D1016C490049080164002000
:1000F00000BDC9B2012905D1016C802212060A4354
:100100000264F4E70120F3E70EB418B504000120FF
:100110002064206C01218843206400212000FFF727
:10012000DDFF00216164C0B201B0019910BC04B0D0
:10013000084700207047002070470000F8B50022F3
:100140006B461A700A7804235A438258D34B1340E3
:10015000CA78002A05D0022A08D00DD3032A06D077
:100160000FE01A0080239B0013430DE00CE01A00FF
:10017000C023DB00134307E01A008023DB00134396
:1001800002E001226C462270C54A13430C78042514
:100190006C430351C34B0C7804256C4305591D4037
:1001A0000C782C4314430D780426754344510C7B82
:1001B000002C00D0E5E04C78002C44D0BA4F0C78ED
:1001C00008256C433C59240C24040D7808267543FB
:1001D0007C510C7808256C433D59CC88A408A400B8
:1001E0002C430E7808256E43BC510C7804256C43D3
:1001F000045964060AD50C7804256C43045923403D
:10020000AA4C1C430B7804256B43C450CB78012BBC
:100210000DD00B7804246343C458A54B23402024FD
:100220005C402243097804235943425058E20B783A
:1002300004246343C4589E4B23401A430978042383
:10024000594342504CE2984D0C78082674432C19BF
:100250000E7808277E43AE197668360C3604666041
:100260000C78082674432C190E7808277E43AE19A3
:100270007768CE88B608B6003E4366600C780826DC
:1002800074432C190E7808277E43AE197668B601A0
:10029000B60966600C69002C0DD10C7808267443F1
:1002A0002C190E7808277E43AD196E6880252D061F
:1002B0003543656030E00C693F2C14D20C6964084A
:1002C0000E7CF60700D5641C0E7808277E43AF1914
:1002D000AC460E7808256E436546AD196D68A406D8
:1002E0002C437C6018E00C6964090E7CF606F60E5F
:1002F000002E00D1641E0E7808277E43AE19AC464E
:100300000F7808256F436546ED196D68A4062C43E8
:1003100080252D06254375600C7804256C4304590F
:1003200064040AD50C7804256C4304592340D54C49
:100330001C430B7804256B43C4500B78002B11D160
:100340000B7804246343C4585A4B2340802464012F
:100350005C4080239B0163401A430978042359437E
:100360004250BDE10B7804246343C458514B2340F1
:100370008024A4015C40224309780423594342505D
:10038000AEE1CC78022C0BD10C7804256C430559D6
:100390001D40D54C2C430D780426754344510AE08A
:1003A0000C7804256C430559D04C2C4014430D782F
:1003B0000426754344513C4D0C78082674432C594F
:1003C000240C24040E7808277E43AC510C780826B0
:1003D00074432E590C89A408A40034430F780826CE
:1003E0007743EC510C78082674432C190E780827B3
:1003F0007E43AE197668360C360466600C780826A3
:1004000074432C190E7808277E43AE1977684E89FD
:10041000B608B6003E4366604C78002C00D012E16E
:100420000C7804267443045964040AD50C78042615
:10043000744306591E40934C34430F780426774387
:10044000C4510C7804267443045964060AD50C7808
:100450000426744304592340144C1C430B7804268F
:100460007343C4504B78002B50D10B78082463435E
:10047000EB589B019B090C78082674432B510B69A0
:10048000002B19D10B7808246343EC5880231B06FA
:1004900023430C78082674432B5136E08F89FF07DD
:1004A000808000008F8FFF0700980040C080000010
:1004B000BF8FFF078FBFFF070B693F2B10D20B6960
:1004C0005B080C7CE40700D55B1C0C7808267443A1
:1004D0002C599B0623430C78082674432B5114E0B7
:1004E0000B695B090C7CE406E40E002C00D15B1E5A
:1004F0000C78082674432C599B0623438024240639
:100500001C430B7808267343EC5016E04B78012B04
:1005100013D10B7808246343EB589BB20C78082660
:1005200074432B510B7808246343EC580B691B046C
:1005300023430C78082674432B514B78002B4AD167
:100540000B7808246343EB180C78082674432C19A5
:100550006468A401A4095C600B69002B0DD10B78C1
:1005600008246343EB180C78082674432C1964683C
:1005700080252D0625435D602CE00B693F2B12D2B0
:100580000B695B080C7CE40700D55B1C0C78082623
:1005900074432C190E7808277E43AD196D689B06AD
:1005A0002B43636016E00B695B090C7CE406E40EE8
:1005B000002C00D15B1E0C78082674432C190E7891
:1005C00008277E43AD196D689B062B4380252D06B9
:1005D0001D4365601AE04B78012B17D10B78082476
:1005E0006343EB180C78082674432C196468A4B292
:1005F0005C600B7808246343EB180C78082674437E
:100600002C1964680D692D0425435D600B78042462
:100610006343C458A34B2340802464015C4080237F
:100620009B01634013430C7804256C4303510B7802
:1006300004246343C4589C4B23401A430978042381
:10064000594342504CE00C7804256C43045964042F
:100650000AD50C7804256C4305591D40094C2C43E0
:100660000D780426754344510C7804256C430459D5
:1006700064060ED50C7804256C43045923408B4C3A
:1006800002E000BF80C000001C430B7804256B43D0
:10069000C450CB78012B0DD00B7804246343C3588E
:1006A000814C1C402023634013430C7804256C4389
:1006B00003510AE00B7804246343C4587A4B234067
:1006C00013430C7804256C4303510B7804246343D3
:1006D000C458744B23401A430978042359434250A9
:1006E00068460078F2BD0000808100008F8EFF0711
:1006F00030B50A7B002A40D14A78002A1ED00A78F9
:1007000004235A43825852060BD50A7804235A43CD
:100710008258674B1340654A1A430B78042463439D
:10072000C2500A7804235A4383585F4A1A40614BE7
:1007300013430978042251434350B0E00A7804235C
:100740005A43825852040BD50A7804235A438258DC
:10075000574B1340584A1A430B7804246343C25042
:100760000A7804235A4383584E4A1A40514B134384
:10077000097804225143435091E04A78002A47D136
:100780000A7804235A43825852040BD50A7804236A
:100790005A438258464B1340474A1A430B78042465
:1007A0006343C2500A7804235A43825852060BD539
:1007B0000A7804235A4382583D4B13403B4A1A435C
:1007C0000B7804246343C2500A7804235A438258A6
:1007D000374B1340354A1A430B7804246343C25005
:1007E0000A7804235A4382582E4B1340314A13434C
:1007F0000C7804256C4303510B7804246343C458DC
:10080000294B23401A43097804235943425046E0B8
:100810000A7804235A43825852040BD50A780423D9
:100820005A438258224B1340234A1A430B7804241C
:100830006343C2500A7804235A43825852060BD5A8
:100840000A7804235A438258194B1340174A1A4313
:100850000B7804246343C2500A7804235A43825815
:10086000134B1340144A1A430B7804246343C250B9
:100870000A7804235A4382580B4B13400D4A134302
:100880000C7804256C4303510B7804246343C4584B
:10089000044B23401A430978042359434250002053
:1008A00030BD00008FBFFF07BF8FFF07C080000073
:1008B0008F8FFF078080000080C00000F8B5060021
:1008C0000C006078012800D010E32069A1698842FB
:1008D00001D2256900E0A569207B00281BD12B00EF
:1008E0009BB2E2886169300000F04AFCBC48217884
:1008F00008225143415889B2227808235A43815033
:1009000021780822514341582A040A4321780823B8
:1009100059434250D9E2E078022800D0FFE1206933
:10092000216A884200D3D1E120780421484330581D
:10093000AC490140AC48084321780422514370502F
:10094000206A401B2062207804214843305840062A
:1009500000D4DAE06078002845D1A1482178082247
:1009600051434118227808235A4382185268920151
:1009700092094A60002D0DD1217808225143411877
:10098000227808235A4380184068802212060243C6
:100990004A6027E03F2D10D26908EA0700D5491CBC
:1009A000227808235A438218237808277B43C018EB
:1009B000406889060143516014E06909EA06D20ED5
:1009C000002A00D1491E227808235A43821823782E
:1009D00008277B43C0184068890601438020000631
:1009E000084350601AE06078012817D17C482178CC
:1009F000082251434118227808235A43821852682A
:100A000092B24A6021780822514341182278082383
:100A10005A43801840682A0402434A6062892B00C6
:100A20009BB292B26169300000F0AAFB6069401984
:100A300060612069216A884203D2206A401B2062DB
:100A400002E0256A00202062607800283DD16448D9
:100A500021780822514341588901890922780823C5
:100A60005A438150002D0BD121780822514342581E
:100A7000802109061143227808235A43815023E03C
:100A80003F2D0ED26908EA0700D5491C22780823B9
:100A90005A43825889061143227808235A438150C9
:100AA00012E06909EA06D20E002A00D1491E227816
:100AB00008235A43825889061143802212060A43AA
:100AC000217808235943425016E06078012813D159
:100AD0004348217808225143415889B2227808239B
:100AE0005A43815021780822514342582904114326
:100AF000227808235A43815022892B009BB292B25C
:100B00006169300000F03CFBDFE1607800283DD1F6
:100B100033482178082251434158890189092278B4
:100B200008235A438150002D0BD1217808225143CC
:100B30004258802109061143227808235A438150E4
:100B400023E03F2D0ED26908EA0700D5491C227820
:100B500008235A43825889061143227808235A43AE
:100B6000815012E06909EA06D20E002A00D1491E1E
:100B7000227808235A43825889061143802212069C
:100B80000A43217808235943425016E0607801282F
:100B900013D11348217808225143415889B2227851
:100BA00008235A438150217808225143425829048E
:100BB0001143227808235A43815022892B009BB28B
:100BC00092B26169300000F0DBFA6069401960613F
:100BD0002069216A884209D2206A401B206208E00D
:100BE000009800408F8FFF0780810000256A002059
:100BF00020626078002845D1C748217808225143F7
:100C00004118227808235A438218526892019209A7
:100C10004A60002D0DD121780822514341182278D5
:100C200008235A43801840688022120602434A6013
:100C300027E03F2D10D26908EA0700D5491C227829
:100C400008235A438218237808277B43C01840683A
:100C500089060143516014E06909EA06D20E002AB0
:100C600000D1491E227808235A4382182378082786
:100C70007B43C01840688906014380200006084372
:100C800050601AE06078012817D1A3482178082223
:100C900051434118227808235A438218526892B26D
:100CA0004A602178082251434118227808235A4388
:100CB000801840682A0402434A6062892B009BB274
:100CC00092B26169300000F05BFAFEE0236A20789E
:100CD000042148433058BB490140BB4808432178B0
:100CE0000422514370508C482178082251434158C6
:100CF00089B2227808256A4381502178082251431D
:100D0000425819041143227808256A4381502289E8
:100D10009BB292B26169300000F032FAD5E0206AED
:100D2000401B2062207804214843305840066CD58F
:100D30006078002845D1784821780822514341182D
:100D4000227808235A4382185268920192094A6015
:100D5000002D0DD121780822514341182278082313
:100D60005A43801840688022120602434A6027E0F6
:100D70003F2D10D26908EA0700D5491C22780823C4
:100D80005A438218237808277B43C0184068890695
:100D90000143516014E06909EA06D20E002A00D12D
:100DA000491E227808235A438218237808277B4358
:100DB000C01840688906014380200006084350603F
:100DC0001AE06078012817D153482178082251434E
:100DD0004118227808235A438218526892B24A6016
:100DE0002178082251434118227808235A43801859
:100DF00040682A0402434A6062892B009BB292B287
:100E00006169300000F0BCF95FE0607800283DD1F6
:100E100041482178082251434158890189092278A3
:100E200008235A438150002D0BD1217808225143C9
:100E30004258802109061143227808235A438150E1
:100E400023E03F2D0ED26908EA0700D5491C22781D
:100E500008235A43825889061143227808235A43AB
:100E6000815012E06909EA06D20E002A00D1491E1B
:100E7000227808235A438258890611438022120699
:100E80000A43217808235943425016E0607801282C
:100E900013D12148217808225143415889B2227840
:100EA00008235A438150217808225143425829048B
:100EB0001143227808235A43815022892B009BB288
:100EC00092B26169300000F05BF920780421484358
:100ED0003158A748084010214140202048403A4955
:100EE000014320780422504331503DE0207B00280C
:100EF0003FD1A069002811D1E07800280ED12078D8
:100F00000421484330589B4901409B4808432178BD
:100F10000422514370500DE00098004020780421D5
:100F20004843305827490140274808432178042284
:100F3000514370502069A169884217D2A069216984
:100F4000401AA0612078042148433158A548084040
:100F50008021490141408020800148401A490143D5
:100F600020780422504331500020F2BD0020A061BF
:100F7000E8E7E07802281CD1E0690028E2D0207878
:100F800004214843305898490A0002400B0092B2AD
:100F90009A4201D00842D5D12078042148433058E4
:100FA00074490140A94808432178042251437050F4
:100FB000C8E7E078012802D10020A061C2E7012043
:100FC000D3E700008F8EFF078080000000B54A78CD
:100FD000002A0ED00A7804235A438358644A1A40E0
:100FE000102353409A4A1A43097804235943425024
:100FF0000EE00A7804235A4383587A4A1A40802321
:101000005B015340924A1A430978042359434250E2
:10101000002000BD10B54A78002A23D00A780423A6
:101020005A43825852060BD50A7804235A438258F1
:10103000504B1340854A1A430B7804246343C25033
:10104000CA78012A32D00A7804235A438358484A7E
:101050001A40202353407E4A1A43097804235943F7
:10106000425023E00A7804235A43825852040BD595
:101070000A7804235A4382583E4B1340754A1A4358
:101080000B7804246343C2500A7804235A438358DC
:10109000544A1A4080235B015340802292015A40F7
:1010A0006B4B13430978042251434350002010BD79
:1010B00000B54A78012A21D10A7B002A40D1CA789A
:1010C000012A0ED00A7804235A438358284A1A402A
:1010D000202353405E4A1A4309780423594342505F
:1010E0002EE00A7804235A438358214A1A40584B69
:1010F0001343097804225143435021E00A7B002A1C
:101100001ED1CA78012A0FD00A7804235A43835883
:10111000344A1A4080239B0153404D4A1A430978B0
:101120000423594342500BE00A7804235A4383585E
:101130002C4A1A40464B134309780422514343502A
:10114000002000BD00B5C9B2002901D18021C164D1
:10115000002000BD816D802212020A4382650020BA
:101160007047816D3C4A0A4082650020704700004C
:10117000BF8FFF078F8FFF0780810000406C704793
:10118000F0B5180080B2C01C84089E07B60F0F008F
:10119000300080B2002800D0641E92B22F4815188B
:1011A00009E0380000F05CF828602D1D781C401C18
:1011B000401C471C641E002CF3D1300080B2002874
:1011C0000FD000203978220008235A439140014370
:1011D0000800641C7F1C761E310089B20029F1D101
:1011E0002860F0BD8FBFFF0740400000F0B5180039
:1011F00080B2C01C84089E07B60F0F0092B2174839
:101200001518300080B2002800D0641E09E028685C
:10121000390000F04FF82D1D781C401C401C471C65
:10122000641E002CF3D1300080B200280DD0286855
:101230002100082251430200CA403A70641C7F1CFE
:10124000761E310089B20029F2D1F0BDC0800000C5
:101250008080000080C00000FF7FFFFF00980040FA
:10126000C3788278417800781B021A43090212047D
:1012700008431043704730B501684118446862085C
:101280008A188368E40704D54C461B1901E0641CE6
:1012900009D1914203D00C7864B2491C01E00C30B2
:1012A00030BD0D78491C1D705B1C002CEFD4641EF2
:1012B000F7D5EEE784460870000A4870000A887087
:1012C000000AC8706046704780B50A20009002E0AE
:1012D0000098401E009000980028F9D1634889B218
:1012E00008224A4380184068000C8005800D02BD2A
:1012F00080B50A20009002E00098401E00900098FF
:101300000028F9D1594889B208224A438058000C74
:101310008005800D02BD80B50A20009002E0009893
:10132000401E009000980028F9D1504889B2082248
:101330004A4380184068000C8005800D02BD38B516
:101340000400002C01D101208EE0B948205C002867
:1013500006D10020A52189006054200001F05CF82E
:101360000320B34960542068FEF7B0FE0025280032
:1013700026E001210200D2B228235A43A218517557
:101380000100C9B2282251436118087529000200E2
:10139000D2B228235A43A218D1750100C9B228221B
:1013A000514361184D620100C9B2282251436118AE
:1013B0008D620100C9B2282251436118CD62401CE0
:1013C00001002279C9B29142D3D3280032E029002A
:1013D0000200D2B228235A43A218FF235633D15415
:1013E0000100C9B2282251436118AA225200885430
:1013F00029000200D2B228235A43A218FF235833EF
:10140000D1540100C9B2282251436118B2225200BE
:101410008D500100C9B2282251436118B4225200F4
:101420008D500100C9B2282251436118B6225200E2
:101430008D50401C01002279C9B29142C7D3211DB1
:1014400083B068460D2201F033F80EBC2068FEF729
:101450005BFE6574012076496054207B012802D12F
:10146000200001F055F8002032BD00000098004037
:1014700010B50400A5208000205C012801D10220C5
:101480000EE00120A521890060542068FEF718FEB7
:101490002068FFF75FFE0020A5218900605400202E
:1014A00010BD10B50400A5208000205C012801D1EA
:1014B00002200EE00120A521890060542068FEF77B
:1014C00005FE2068FFF74DFE0020A521890060542D
:1014D000002010BD10B504002068FFF74FFE010486
:1014E00003D5200000F02AFAA1E041050DD52068BF
:1014F000406C5049014020684164200001F0BAF975
:101500000021200000F0A6F891E0410406D52068F3
:10151000406C494901402068416488E0810406D557
:101520002068406C45490140206841647FE0C10467
:1015300022D52068006C0421884321680864206853
:10154000006C0821884321680864B3208000205C77
:10155000012807D10020B321890060540021200018
:1015600001F0DCF9200001F0B4F92068406C344946
:101570000140206841645AE0010515D52068006CDF
:1015800008210143206801642068406C2D49014016
:10159000206841642068006C0421014320680164D4
:1015A000200001F087F942E001062BD52068406C4D
:1015B0002549014020684164B3208000205C002858
:1015C0001CD12068006C042101432068016420685C
:1015D000006C08210143206801640120B3218900C7
:1015E00060542068406D80083C210140B420800098
:1015F00021500121200001F091F902E0200001F0CA
:1016000059F914E0810509D52068406C0F49014063
:1016100020684164200001F06FF908E0C00506D59C
:101620002068406C0A49014020684164FFE710BD12
:1016300095020000FFFB0000FFBF0000FFDF00007D
:10164000FFEF0000FFF700007FFF0000FFFD00003C
:10165000FFFE000010B50400A5208000205C0128DA
:1016600001D102200DE00120A5229200A054617456
:10167000C9B22068FFF766FD0020A52189006054EB
:10168000002010BDF8B5040000252E0008060AD57C
:101690000800C0B24007400F2827784320181430B4
:1016A000012747700AE00800C0B24007400F282712
:1016B00078432018AA277F00C01945704907490FB1
:1016C000017092B25105490D0161C370DBB2022B6A
:1016D00000D10571A5218900615C012901D1022099
:1016E0000CE00121A5229200A15401002068FEF720
:1016F00025FDA520800025543000C0B2F2BD10B5F4
:10170000040008060AD50800C0B24007400F28228E
:10171000504320181430012242700BE00800C0B280
:101720004007400F282250432018AA225200801858
:10173000002242704907490F0170A5218900615CB0
:10174000012901D102200CE00121A5229200A1541F
:1017500001002068FEF7CCFF0020A521890060541D
:10176000002010BD70B507250C00E4B22C402826DF
:1017700074430419AA267600A4196261A3610022A9
:10178000E26162700D40257021000068FFF796F855
:10179000002070BDC9B24907490F282251434018A3
:1017A000B821490040587047F8B507250C00E4B24D
:1017B0002C4028267443041914346261A361012269
:1017C00016002427E65523620023E36162700D4072
:1017D000257021000068FFF771F80020F2BD38B5D0
:1017E0000400072220790B00DBB21340984201D29B
:1017F00001202DE0080609D50800C0B210402823BA
:101800005843201814300123437009E00800C0B287
:10181000282358432018AA235B00C01800234370D4
:1018200001231D0085700A400270A5218900615CBA
:10183000012901D102200BE0A52189006354010098
:101840002068FFF7C3FB0020A52189006054002019
:1018500032BD38B5040020790A00D2B21207120F47
:10186000904201D2012030E008060AD50800C0B23B
:101870004007400F282250432018143001224270A4
:101880000BE00800C0B24007400F28225043201848
:10189000AA22520080180022427000258570490754
:1018A000490F0170A5218900615C012901D1022045
:1018B0000BE00121A5229200A15401002068FFF74E
:1018C000A9FBA52080002554002032BD80B50A0662
:1018D00007D5C9B24907490F28225143411814318D
:1018E00008E0C9B24907490F282251434118AA22EA
:1018F000520089180068FFF7DBFBC0B202BD10B5CB
:101900000400A5208000205C012801D1022014E001
:101910000120A5229200A054080606D5C9B24907A5
:10192000490F2068FEF705FC02E02068FEF703FC83
:101930000020A52189006054002010BDF8B50400E6
:1019400026E020680168C548084007432068076012
:1019500025001435C2482978082251434058000C0C
:101960008005800DE8616869E969401868610021B7
:10197000200000F0ADFE607C002809D0A869002896
:1019800006D1607C802101432068C164002060741E
:1019900080273F022068406C3840002800D1D3E106
:1019A0002068406C01000907090F6A4611706946FA
:1019B0000978002963D1C006C3D5AA2040002518A4
:1019C000206800688026360130421AD0297889B212
:1019D0002068FFF779FCE861EB699BB2EA88A720F1
:1019E000800021182068FFF701FC206801689D48ED
:1019F00008408021014320680160200000F00FFEB4
:101A0000C6E73842C4D02068016896480840802163
:101A1000014320680160297889B22068FFF754FCEF
:101A2000E861E869002811D0686900280ED0EB69E8
:101A30009BB2EA8869692068FFF7D8FB6869E969A1
:101A4000401868610021200000F0BEFE2068006898
:101A500030429DD1C021890180B20840884297D090
:101A600020680168B9480840802149014140802030
:101A700080014840B64901432068016088E720683A
:101A800069460978042251434058694648806846AF
:101A90004088384200D189E02068694609780422EC
:101AA000514340586F4901408020084321686A46ED
:101AB000127804235A438850684600782821484306
:101AC0002018AA2149004618307B002811D131780E
:101AD00089B22068FFF7F8FB0500280080B20028D3
:101AE0004AD02B009BB2F28871692068FFF77EFB19
:101AF00042E0F078022807D1684642883100200091
:101B000000F028F9050037E02068317804225143BD
:101B10004058B5490140B54808432168327804234C
:101B20005A43885020683178042251434058400479
:101B300011D5317889B22068FFF7DAFB050028005B
:101B400080B2002818D02B009BB2328971692068BE
:101B5000FFF74CFB10E0317889B22068FFF7DBFB20
:101B60000500280080B2002806D02B009BB27289A5
:101B700071692068FFF73AFBF069290089B24018C3
:101B8000F0617069290089B240187061B06900285D
:101B900003D0ADB23069854204D23178200000F024
:101BA00013FE03E031002068FEF788FE6846408897
:101BB000000600D4ECE66846007828214843201847
:101BC0000100143120686A46127804235A4382586F
:101BD00022481040074320686A46127804235A437B
:101BE0008750C87801287BD100208861087B0028B5
:101BF00071D068464088400636D54878002816D10E
:101C000017480A7808235A438258920192090B78A0
:101C100008256B43C2500A7808235A438358802210
:101C200012061A430B7808256B43C25014E048781B
:101C3000012811D10A480A7808235A43825892B2DF
:101C40000B7808256B43C2500A7808235A43825800
:101C50000B7808256B43C2503DE000BF0F8FFF0794
:101C6000009800408F0FFF07487800281AD183485A
:101C70000A7808235A4382180B7808256B43C31847
:101C80005B689B019B0953600A7808235A438218BA
:101C90000B7808256B43C018406880231B0603435C
:101CA000536018E04878012815D174480A78082351
:101CB0005A4382180B7808256B43C3185B689BB2A4
:101CC00053600A7808235A4382180B7808256B431F
:101CD000C018406850600978200000F0F9FC57E611
:101CE00068464088C00529D464480A7808235A43C6
:101CF0008058000C8005800D020092B28B699A42D8
:101D000005D28A6903009BB2D21A8A6101E00022DF
:101D10008A618A69002A04D10978200000F0D8FC81
:101D200036E64A6903009BB2D2184A61CA6980B29A
:101D30001018C8612068FEF7C1FD29E66846428890
:101D4000200000F0A1F823E60020F2BD8FBFFF07BE
:101D500080800000F8B507000C001500680447D526
:101D6000217889B23868FFF7C3FA0600A06931000C
:101D700089B2884205D3A069310089B2401AA061B6
:101D800001E00020A061A069002810D13868217806
:101D90000422514341583A4808408021890141407A
:101DA000944808433968237804225343C85068068E
:101DB0000DD5386821780422514340580A49014022
:101DC0000A4808433968227804235A43885030006F
:101DD00080B200284ED033009BB2228961693868F6
:101DE000FFF704FA46E000BF8F8FFF07C0800000B6
:101DF000217889B23868FFF78EFA0600A0693100B1
:101E000089B2884205D3A069310089B2401AA06125
:101E100001E00020A061A069002810D13868217875
:101E2000042251434158164808408021890141400D
:101E3000704808433968237804225343C850680621
:101E40000DD4386821780422514340586A49014032
:101E50000C4808433968227804235A4388503000DC
:101E600080B2002806D033009BB26289616938686D
:101E7000FFF7BCF9300080B2F2BD000000980040CE
:101E80008FBFFF07C0800000F8B506000C001500EA
:101E9000680600D440E1217889B23068FFF728FA5B
:101EA000010089B2A269914205D2A169020092B2F1
:101EB000891AA16101E00021A161A169002900D076
:101EC0008EE06078002816D1C54821780822514359
:101ED000415889018909227808235A438150217881
:101EE00008225143425880210906114322780823D1
:101EF0005A43815014E06078012811D1B848217804
:101F000008225143415889B2227808235A4381500C
:101F10002178082251434158227808235A4381509E
:101F2000607800281AD1AE48217808225143411820
:101F3000227808235A4382185268920192094A6013
:101F40002178082251434118227808235A438018E7
:101F500040688022120602434A6018E06078012837
:101F600015D19F482178082251434118227808232F
:101F70005A438218526892B24A602178082251432B
:101F80004118227808235A43801840684860E07856
:101F900002280FD130682178042251434158C648A5
:101FA0000840202141401348084331682278042327
:101FB0005A4388502178300000F08AFB68040DD520
:101FC000306821780422514341580B480840BB49EE
:101FD00001433068227804235A4381500020FAE1FB
:101FE000690413D53168227804235A438958024A78
:101FF00004E000BF808000008F8FFF070A40AF49D8
:1020000011433268237804256B43D1502421615C4D
:10201000012900D0CCE16169020092B289186161A6
:10202000E169020092B28918E161216A2269914254
:1020300004D32069216A091A21620DE0216A00296E
:1020400004D180B200212422A15405E0002108001F
:102050002422A054206A2162617800293DD1604980
:10206000227808235A438A58920192092378082536
:102070006B43CA5000280BD1227808235A438B584F
:10208000802212061A43237808256B43CA5023E0A6
:102090003F280ED24208C30700D5521C23780825DA
:1020A0006B43CB5892061A43237808256B43CA50DA
:1020B00012E04209C306DB0E002B00D1521E23782A
:1020C00008256B43CB5892061A4380231B06134303
:1020D000227808256A438B5016E06178012913D1D4
:1020E0003F49227808235A438A5892B22378082518
:1020F0006B43CA50227808235A438B5802041A4370
:10210000237808256B43CA5003009BB2228961697A
:102110003068FFF735F84BE1217889B23068FFF776
:10212000FAF8A169020092B2914205D3A1690200B6
:1021300092B2891AA16101E00021A161A16900297F
:1021400000D091E06078002816D125482178082237
:102150005143415889018909227808235A43815003
:1021600021780822514342588021090611432278E0
:1021700008235A43815014E06078012811D118488F
:10218000217808225143415889B2227808235A43C2
:1021900081502178082251434158227808235A431C
:1021A0008150607800281DD10D48217808225143C4
:1021B0004118227808235A438218526892019209E2
:1021C0004A602178082251434118227808235A4353
:1021D000801840688022120602434A601BE000BF5C
:1021E000009800406078012815D17B4821780822AA
:1021F00051434118227808235A438218526892B2F8
:102200004A602178082251434118227808235A4312
:10221000801840684860E07802280FD13068217843
:1022200004225143415824480840202141406B4832
:1022300008433168227804235A43885021783000BB
:1022400000F046FA68040DD4306821780422514326
:1022500041586348084019490143306822780423F3
:102260005A4381500020B6E069040DD431682278C9
:1022700004235A4389585A4A0A4010491143326884
:10228000237804256B43D1502421615C012900D0BF
:102290008EE06169020092B289186161E169020011
:1022A00092B28918E161216A2269914208D32069BA
:1022B000216A091A216210E0BF8FFF0780C0000069
:1022C000216A002904D180B200212422A15404E013
:1022D000206A002121622422A1546178002945D17D
:1022E0003D49227808235A438A18237808256B43EE
:1022F000CB185B689B019B09536000280DD12278A5
:1023000008235A438A18237808256B43C91849685B
:1023100080231B060B43536027E03F2810D242085E
:10232000C30700D5521C237808256B43CB182578AA
:1023300008277D434919496892060A435A6014E008
:102340004209C306DB0E002B00D1521E237808255C
:102350006B43CB18257808277D43491949689206B5
:102360000A4380210906114359601AE06178012966
:1023700017D11949227808235A438A182378082547
:102380006B43CB185B689BB25360227808235A4397
:102390008A18237808256B43C918496803040B433E
:1023A000536003009BB2628961693068FEF7E8FE02
:1023B000306821780422514341580A4808401021CE
:1023C00041402020484005490143306822780423D9
:1023D0005A4381500020F2BD0098004080800000E8
:1023E0008F8FFF07BF8FFF0780B52148214901600C
:1023F000082101710221C171417200218172C172F3
:10240000017341738173C1730174FEF798FF002853
:1024100001D000F023FB01BD18B589B004002021D4
:10242000002201A800F01EFB2068124988421CD13E
:10243000082001900020069001A800F03BFB002836
:1024400001D000F00BFB802080010B490A68024399
:102450000A600968084000900098002200210820C6
:1024600000F03FFC082000F041FC0AB010BD000065
:10247000D4380020005C00403C10024070B4103A98
:1024800003D378C9103A78C0FBD2530701D318C9D7
:1024900018C001D508C908C0D20704D30B8803802F
:1024A000891C801C002A01D50B78037070BC704712
:1024B0008B0701D18307E1D0124205D00B78491C6C
:1024C0000370401C521EF9D17047002010B50C0655
:1024D00007D589B24907490F2824614340181430B1
:1024E00006E089B228244C430019AA21490040186B
:1024F00092B2002A03D100210173C38006E00121BA
:102500000173190001811900090C4181002010BDDF
:1025100010B401680122B5239B00C2500023B324EC
:10252000A4000355486D02434A65486D02220243E8
:102530004A65002010BC704780B502000800802169
:1025400091720121117200F0E7FB01BD38B5040062
:1025500008001500002141628021A17200F0DCFB1F
:10256000002807D128000321217200230022002126
:10257000FFF71AF931BD38B50400080015008021B5
:10258000A17200F0C9FB002807D1280004212172A4
:10259000002300220021FFF707F931BDF8B505003F
:1025A0002C1D20680700203700F01AFD626880218A
:1025B000C9000A4202D000F017FD2FE0C026B60085
:1025C0001640002E02D100F00FFD27E06268B84BE4
:1025D0001340636062681143616000F005FD802074
:1025E0004000864204D0C0208000864205D00BE027
:1025F00039002000FFF7A0FF0CE0C4202A58390062
:102600002000FFF7A3FF05E0C4202A58390020006E
:10261000FFF7B1FF6068B64901406160F1BDF1B5F7
:1026200082B0B4480068C06900900098041D20681A
:102630000600203608220298A721890041183000A0
:102640003C3000F01DFD0025B56101207060756211
:1026500060680E21884360603C20305C000605D530
:102660006068802149000143616030E02800A07269
:102670004220305C002809D14320305C002805D17D
:102680006068802189000143616020E0B768300004
:10269000423000F000FD70617069FF21891C8842A2
:1026A0000AD33900009800F0FDFC25726068802193
:1026B0008900014361600AE0B561F06830617369C7
:1026C0003269B97B0298FFF74DF802202072F7BDFE
:1026D000F8B5884A1268D2690F231C00214208D03D
:1026E0000C00E4B223400C246343D2181500643577
:1026F00006E00C00E4B223400C246343D218151DFD
:102700002A681400203407000800C0B2002840D115
:10271000A668287A012856D100230022002138001B
:10272000FFF720F8308AE16988421ED3A06B0128A8
:1027300008D100230022B17B3800FFF735F80020D4
:10274000A06340E000206062022020606069A06118
:102750006868082101436960E06A002802D020000F
:10276000E16A8847042028722DE0E069318A431A23
:10277000308A984200D2338A2069318A4018206119
:10278000E069C01AE0612269B17B3800FFF70CF8FC
:1027900019E0A06B00280CD06069002809D0002047
:1027A000A063E06100230022C9B23800FEF7FCFFFD
:1027B00009E000206062022020606069A061686812
:1027C000082101436960F1BDF8B507004948006878
:1027D000C0690A00D2B21207120F0C235A438018A4
:1027E000051D2868040020340800C0B2002833D139
:1027F000287A02283DD1A668C9B23800FEF7CAFF80
:10280000A1690918A1616169A269914217D3A169FF
:102810006269914202D0318A884205D06868C0213D
:1028200089000143696024E02069318A40182061F1
:10283000338A2269B17B3800FEF794FF19E0272024
:1028400060626868082101436960E06A002810D06E
:102850002000E16A88470CE0C9B23800FEF79AFF11
:10286000A0610020606202202060686808210143A6
:102870006960F1BD38B504001E4D2868406A002823
:1028800001D000F01FFCE079022805D10120296861
:10289000A0225200885004E001202968A0225200A2
:1028A000885000F057FC01202968486231BD0000C3
:1028B000FFFCFFFF80B50F490868B2225200805824
:1028C000002805D0F4200968B222520089588847B0
:1028D00001BD80B507490868B2225200805800281F
:1028E00005D0F3200968B22252008958884701BDFB
:1028F000FFFBFFFFFC42002080B507490868B222B9
:1029000052008058002805D0F0200968B2225200F9
:102910008958884701BD0000FC4200207047FEE74F
:1029200010B500F0B1FC00F03EF800F0BBFC00F088
:1029300003FB002000F0CCFC012000F0C9FC0121C9
:10294000002000F063FD3D49E120400208600024C2
:102950004C602000088120004881200088810020F0
:1029600000F0C2FD002801D000F078F83449354865
:1029700000F048FE344800F045FE002000F0F7FC6F
:10298000012000F0F4FC00F043F800F071FB2F4848
:1029900001680129F9D10460002000F018FD012030
:1029A00000F015FDF1E730B58DB0202100242200A4
:1029B00005AD280000F056F8142122006D462800CD
:1029C00000F050F80125224801680722914329436D
:1029D0000160112005908020400206908020C003F5
:1029E0000C9005A800F022FE002801D000F036F877
:1029F00007200090019502940394049401216846F5
:102A000000F0A2FF002801D000F028F80DB030BD82
:102A100000B5002003E001000E4A1154401C802143
:102A200009018842F7D300BD00B5C0B2002804D127
:102A30000120064908600849087000BD784200205E
:102A4000647700085C770008BC760008A842002084
:102A500000200240D43000200A43002000B572B6A6
:102A6000FEE7FEE71206130A1A43130C1A4300BFCF
:102A7000094205D0830705D00270401C491EF9D1D8
:102A8000704700001300103906D330B4140015004D
:102A900010393CC0FCD230BC490700D30CC000D573
:102AA00004C0890002D30280801C002900D5027076
:102AB0007047FEE7FEB5040000273D003800694678
:102AC0000870207840064BD58020400544490968AD
:102AD0000140002908D142490A6802430A60096896
:102AE00008400190019801273E4E3168C0208000C7
:102AF000084000280FD0E16988420CD031683A487C
:102B000008403168802252020A4332603168374AF5
:102B10000A4032603060C0070DD501F051F80190D5
:102B20003068800707D401F04BF80199401A30490A
:102B30008842F5D303252800C0B2002806D13068AA
:102B400029490140E0690843306001E068460570AA
:102B5000FFB2012F04D122480168264A0A400260D0
:102B60002078C00706D52448016803229143A26853
:102B70000A4302602078800706D51F4801681F4A73
:102B80000A40E168114301602078800606D51A48A2
:102B9000016889008908A2690A4302602078000759
:102BA00006D517480168174A0A4061691143016058
:102BB0002078400706D510480168134A0A40216969
:102BC000114301602078000606D510480168E02214
:102BD000914362680A43026068460078FEBD0000C7
:102BE0003C1002405C100240FFFCFFFFFFFFFEFFB5
:102BF00089130000FFFFFFEF54100240FFCFFFFFDB
:102C000058100240FFEFFFFFFF3FFFFF00100240A0
:102C100000B5010049B2002905D40121C006C00E4B
:102C200081403748016000BDF0B5020052B2002A71
:102C30001BD40322334B040064B2A40804256C4364
:102C40001C59FF251600064008277E43B540AC43BB
:102C50008901C9B2024008256A439140214340B22C
:102C6000800804225043195022E00F24264B0322EF
:102C700005006DB22540083DAE0804256E430500F1
:102C80006DB22C40083CA40804256C431F59FF2456
:102C9000A44615000540082465436446AC40A7439C
:102CA0008901C9B2024008204243914039439951F9
:102CB000F0BD80B5411E80225204914201D3012013
:102CC0000EE0401E1149086003210020C043FFF7B9
:102CD000ABFF00200E49086007200E490860002065
:102CE00002BD80B540B2FFF79FFF01BD80B540B285
:102CF000FFF78EFF01BD80B5FFF7DBFF02BD0000CF
:102D000000E100E000E400E01CED00E014E000E081
:102D100018E000E010E000E0F0B591B00400FF26FC
:102D20008448006801908348006807002437606A7F
:102D3000002800D0FAE03C20205C00903D20205C80
:102D4000039020003E3000F0A6F90500200040303E
:102D500000F0A1F902902000423000F09CF90490AC
:102D60000398062802D0039807280AD1280A602170
:102D70000140002905D000986021884320210143AB
:102D80000091602000990140402932D169490968C9
:102D9000B6225200895800292BD00399654A12683F
:102DA000B4235B00D258914223D18020400005908B
:102DB00005A80190E0680090049B029A29000398FE
:102DC0005C4C2468B6256D006459A04700280AD1E0
:102DD00038001830203003218162049A059900F0F0
:102DE000F5FE0020A3E03800183000F001FF0020BD
:102DF0009DE000990140202903D000990840402817
:102E000037D104200690002500E06D1C102D28D23B
:102E1000484800680421694340188021490041580E
:102E20000029F2D000988007800F012812D1009865
:102E3000A1280BD10398002808D1086E407C0728F0
:102E400004D14120205CA84204D0DEE70298C0B241
:102E5000A842DAD10E9106A8496C88470600002ED8
:102E6000D3D1002E03D03800183000F0C1FE30005E
:102E70005DE00398002814D0012819D003281ED043
:102E8000052823D006282BD0072830D0082830D09A
:102E9000092832D00A2835D00B2838D00C283CD04D
:102EA0003DE0049A0299009800F0C6FE060037E063
:102EB000029A2900009800F017FF060030E0029AFD
:102EC0002900009800F050FF060029E001984561B4
:102ED0002A0011210198019B9B69984706001FE079
:102EE000049A0299280000F07FFF060018E054269B
:102EF00016E001F0EBF8060012E0280001F0FCF803
:102F000006000DE0029801F007FA060008E029002B
:102F1000029801F025FA060002E0002600E054269F
:102F2000002E03D03800183000F062FE300011B0DF
:102F3000F0BD00BFFC420020F0B589B00027414839
:102F4000002300228021890101F074FB002801D0B8
:102F5000FF2043E008A9012001F076FB040007A947
:102F6000002001F071FB050006A801F099FB0600A6
:102F700005A801F0E7FB0021049105990391029057
:102F8000069801900096079B2A000899200001F0FE
:102F900073FF002801D0FF2020E02B4C2B4820603D
:102FA0002B4860602B48A0602B4E0021022001F0CE
:102FB0000BFC3060294D0021022001F0D7FB286076
:102FC00000942B6832682649264802F07DF80028D4
:102FD00001D0FF2002E000F00AF8380009B0F0BD8F
:102FE000EFF3108072B6704780F31088704710B509
:102FF000FFF7FAF91C4C1823002200212000FFF7EC
:1030000065FA5823002280212000FFF75FFA9823F9
:10301000002281212000FFF759FAD8230022012144
:103020002000FFF753FA8C235B000022822120004E
:10303000FFF74CFA21000D4802F078F82000FEF767
:1030400017FA10BDD400002088420020AD510008BE
:10305000B3510008B5510008A4420020A04200204E
:10306000737300083C000020D4380020005C00404E
:1030700080B502F079F802F0D3F802F0BDF901BD95
:1030800000B503E00B780370491C401C13005A1E66
:10309000002BF7D100BD0178401C007800020843E6
:1030A00080B2704710B58A68536804241C4354608A
:1030B0008B7B917A1943C9B2C4228058FEF78FFBEB
:1030C000002010BDF0B58DB0FF26214F3C68386858
:1030D0002430009000980068032818D100989021AF
:1030E00045580FE003200290049569680A91002971
:1030F00002D002A8496C8847A8690190280002F014
:103100002DFA019D002DEDD1012000990860009855
:103110000068012807D10098020018320F21200012
:10312000A3699847060000200099802288500099E2
:1031300008603868B22149004058002805D00A20AC
:103140003968B22252008958884730000DB0F0BD6E
:10315000FC420020F8B5494C2768F86900902068C7
:10316000060024362068AE214900405801280CD1C1
:103170002068F42140582168CC2288502068F8212A
:1031800040582168D022885023E000202168AE22D8
:10319000520088502068A0214900405801280CD1D5
:1031A0002068D42140582168CC2288502068D8213A
:1031B00040582168D02288500BE02068DC2140581C
:1031C0002168CC2288502068E02140582168D02214
:1031D00088502068CC214058331D0E22284902F027
:1031E000E3F93500383527486863E868286130001E
:1031F0001830A860F07AA9680882F07A6861300017
:103200001830A860320018320E213800BB69984788
:1032100000210098C4228058FEF771FB0023F27A47
:1032200092B200210098C427C059FEF72BFA8021E2
:103230000098C4228058FEF762FB0023F27A92B213
:1032400080210098C427C059FEF71CFA0020F061C5
:1032500001216960296008216961E961A86120682C
:10326000B22149004058002805D001202168B2222F
:103270005200895888470020F2BD00BFFC42002060
:103280005C0000201027000010B50024032002F08D
:10329000BBF9002801D0012401E002F0E3F920008D
:1032A000C0B210BD81B0202008490A6802430A60FC
:1032B0000A6810400090009801200A6802430A60E2
:1032C000096808400090009801B07047341002402F
:1032D000F8B586B00400002007002100C9B200291B
:1032E00006D02100C9B2012902D00127FF433BE0EB
:1032F0002100C9B2002909D1012243490B681343B7
:103300000B6009680A400092009908E004223E49D7
:103310000B6813430B6009680A40009200996B4EDA
:103320002100C9B202225143715A01910121029137
:103330000390032004906B4D01A92000C0B2042229
:103340005043285802F0A8F92000C0B201280BD140
:1033500001222000C0B202214843315AE4B20420C5
:103360004443285902F092FA380007B0F0BD38B54E
:1033700000240100C9B2002906D00100C9B2012908
:1033800002D00124E44320E00100C9B200290ED19B
:1033900001224E490300DBB202256B43C95A514B4F
:1033A000C0B204256843185802F070FA0DE00022FC
:1033B00046490300DBB202256B43C95A494BC0B2F0
:1033C00004256843185802F061FA200032BD10B598
:1033D00000240100C9B2002906D00100C9B20129A8
:1033E00002D00124E4430CE038490200D2B20223A7
:1033F0005A43895A3B4AC0B204235843105802F03A
:103400004FFA200010BD00003410024038B586B0DD
:10341000040004206F4A13680343136012681040CD
:10342000009000986C482200D2B202235A43805A7E
:1034300001900120039002200490C9B200290AD112
:103440000020029001A96548E4B2042254430059C7
:1034500002F022F937E06248029001A95F48220099
:10346000D2B204235A43805802F016F95D4D5E48EB
:103470002100C9B20422514341582000C0B20C229D
:103480005043281802F030FA58482100C9B20422EB
:103490005143425800212000C0B20C235843281841
:1034A00002F00EFA524D002252482100C9B2042304
:1034B000594341582000C0B22856FFF712FCE4B22D
:1034C0002857FFF713FC002007B030BD6C770008C9
:1034D00080B54449C0B20C225043081802F00CFADF
:1034E00001BD000008000020F8B504000025200000
:1034F000C0B2002802D00125ED4313E00F003E4E7C
:103500002000C0B294214843301800F02FF8390051
:10351000E4B294204443301902F01AFA002801D092
:103520000325ED432800F2BD70B514000D00002600
:1035300004E0287800F006F86D1C761CA642F8D34B
:10354000200070BD31B5FA239B00012269462A484C
:103550002A4C247894256C43001902F059FA0098FB
:1035600032BD80B50020FFF75FFA01BD70B586B0AF
:10357000012418480168214301600168214000913D
:103580000099016821430160006820400090009884
:10359000802080021A490A6802430A6009680840CC
:1035A0000090009804200190022502950495039450
:1035B0000594A026F60501A9300002F06DF8082058
:1035C00001900295059401A9300002F065F806B05B
:1035D00070BD000034100240CA2400081000002012
:1035E0000000211094420020707700081400002091
:1035F0002D65000818000020944000200B43002097
:103600003C1002400EB4C0B5020003A80190002097
:10361000009001AB0121044878440C3002F0CEFC4C
:10362000029906B0084700BFC5400000F8B5040085
:10363000002C01D101206EE10125206828400028DE
:103640004BD0B548016838200840082804D160688C
:10365000002842D101205EE1802040026168814261
:1036600004D1AE490A681043086017E06168A022DF
:10367000D202914209D1A9490A688023DB0213438F
:103680000B600A681043086008E0A4480168A44A77
:103690000A4002600168A34A0A400260606800288C
:1036A0000DD000F08DFA06009C480068800314D409
:1036B00000F086FA801B6528F6D303202BE100F08A
:1036C0007FFA060095480068800306D500F078FA76
:1036D000801B6528F6D303201DE12078800752D592
:1036E0008D48016838200840002828D1E168002969
:1036F00001D101200FE18C490A688C4B13406269AB
:1037000012021A430A60002811D184490868884AC5
:10371000024020691043086086480968C90A4A07C0
:10372000520F2900914002F002FF8349086083484C
:10373000006801F069FF002825D00120EBE0E06877
:1037400000282ED0754E3068794901402069084321
:1037500030603068802149000143316000F030FA68
:1037600007003068400506D400F02AFAC01B032881
:10377000F7D30320CFE06C4801686C4A0A406169C6
:103780000902114301602078000742D562480068B1
:1037900038210140182916D1A069002839D101200B
:1037A000B9E05E4E306866490140316000F008FAC9
:1037B000070030684005E6D500F002FAC01B032878
:1037C000F7D30320A7E0A069002810D05D4E306831
:1037D0002843306000F0F4F907003068800718D4FF
:1037E00000F0EEF9C01B0328F7D3032093E0554EF9
:1037F000306801218843306000F0E2F9070030684A
:10380000800706D500F0DCF9C01B0328F7D303209E
:1038100081E0042021680140002950D000263E4963
:10382000096838220A40202A04D1A068002846D11D
:10383000012070E0A168012904D1A44801680D436A
:10384000056013E0A168052907D1A0490A68104363
:103850000860086805430D6008E09C480168012283
:10386000914301600168042291430160A06800282F
:103870000ED000F0A5F9050094480068800716D422
:1038800000F09EF9401B92498842F5D3032042E0A4
:1038900000F096F905008D480068800707D500F014
:1038A0008FF9401B8A498842F5D3032033E0F6B2F2
:1038B000012E04D187480168874A0A4002602078B7
:1038C000C00627D5E069002812D0144D2868802151
:1038D000C9030143296000F073F90400286800025D
:1038E00018D400F06DF9001B0328F7D3032012E071
:1038F0000A4D2868A5490140296000F061F90400DB
:103900002868000206D500F05BF9001B0328F7D3F6
:10391000032000E00020F2BD081002400010024029
:10392000FFFFFEFFFFFFFBFF04100240FF80FFFFD1
:10393000FFC7FFFF006CDC021C000020000000201D
:10394000FFFEFFFF60100240FEB50400002C01D115
:103950000120BAE0009107258D4E3068284000997B
:10396000884215D2306807218843009901433160AD
:1039700000F026F90700306828400099884207D0F7
:1039800000F01EF9C01B52498842F4D303209CE08A
:10399000022021680140002911D02178490707D56C
:1039A0007C490A687C4B1340B02212011A430A601A
:1039B00078490A68794B1340E2681A430A60217813
:1039C000C90749D576490A681C239A43A36813435B
:1039D0000B606268012A04D10868800322D40120A8
:1039E00073E06268002A04D1086840051AD40120F7
:1039F0006BE06268022A04D10868000212D4012038
:103A000063E06168032906D1664909680840002817
:103A100008D1012059E02D4909680840002801D14A
:103A2000012052E05B4F38680721884361680143F9
:103A3000396000F0C5F801903868382101406068AD
:103A4000C000814208D000F0BBF80199401A20491B
:103A50008842F1D3032038E0009831682940884239
:103A600015D230680721884300990143316000F086
:103A7000A7F80700306828400099884207D000F076
:103A80009FF8C01B12498842F4D303201DE0207820
:103A9000400706D53F4801683F4A0A402169114363
:103AA000016000F01BF840493A4A1268120A1207F6
:103AB000120F04235A43895CC906C90EC8403B490A
:103AC00008603B48006801F09FFDFEBD5C100240AD
:103AD000891300003C100240FFFFFFEF30B50720C4
:103AE0002F4A11688C080440641C3821294B1D683A
:103AF0000D40002D08D101211268D20A10408140EA
:103B00002C4802F014FD1AE018680840082801D17A
:103B1000284814E018680840202802D180200002BC
:103B20000DE018680840182802D1FA20C00106E00C
:103B300018680140102901D11E4800E00020210032
:103B400002F0F5FC30BD10B5FFF7C8FF1749164A63
:103B5000194B1B681B0A1B071B0F04246343D25C11
:103B6000D206D20ED0400860086810BD80B5FFF7BD
:103B7000EAFF1249104A1268120B5207520F04232F
:103B80005A43895CC906C90EC84002BDFFFFBFFF8A
:103B90000020024008100240FF8FFFFFFFF0FFFFF0
:103BA0000010024060100240C47400081C00002095
:103BB00000000020006CDC0208100240647600085F
:103BC00001480068704700BFAC42002010B50400F7
:103BD00000202063200002F001FD062801D1FE2014
:103BE00004E0042801D2606A00E0002010BDFEE776
:103BF000F8B505000F4F3C68FF26FFF7F1F900907C
:103C00003868406A00280FD0686802280CD02A0063
:103C100014212000A36998470600E87B8007800FE5
:103C2000002801D0022068600098FFF7DDF930001D
:103C3000F2BD00BFFC420020F8B52A4A14681368A0
:103C4000243318330093009B1F00203700231D00EE
:103C5000FE683570FD686B7002231E000325284046
:103C6000002802D0022821D034E0F0200002814256
:103C700001D1012613E01068A22149004058022812
:103C800002D10120F96808701068A6214900405847
:103C9000002804D0F86800780343F8680370BD6218
:103CA000320031003800FFF791FFF2BD0A00152104
:103CB0002000A3699847FF2805D0012802D10120E0
:103CC000F9680870EBE7009A14212000A36998476F
:103CD0000020EAE7009A14212000A36998470020F9
:103CE000E3E700BFFC42002070B5030014001D4E46
:103CF00030683268150024352A0018329B079B0F64
:103D0000002B02D0022B11D027E001290AD1306804
:103D1000A42149004058002806D000203168A6227E
:103D20005200885000201CE054201AE090216B586B
:103D3000210000E09B69002B0FD0DC6900E0646982
:103D4000002CF7D0A57B8D42F9D122001021836988
:103D5000984700206060002003E0142183699847A1
:103D6000002070BDFC42002070B503001D4E30687D
:103D70003468250024352C0018349B079B0F002B3A
:103D800002D0022B13D026E001290ED13068A421E5
:103D900049004058002806D001203168A622520070
:103DA000885000201CE054201AE0542018E0902194
:103DB0006B5800E09B69002B0DD0D96900E0496980
:103DC0000029F7D08D7B9542F9D10A00142183692F
:103DD0009847002004E022001421836998470020BE
:103DE00070BD00BFFC420020F7B58AB000210391EE
:103DF000FF25B3490F68B24909682431183102918F
:103E00000299203100910321009A9162C1B204917C
:103E10000021000AC0B201900C9C019801280DD02D
:103E200002283DD0032800D1A1E006280AD00728A7
:103E300036D009280DD00F2832D039E10C9813283C
:103E400000D312240198062803D10C980B2800D324
:103E50000A240198092803D10C98062800D30524C8
:103E600097480168CC2289580068D0228258881867
:103E700001E0D21AC91881420FD20B784E78019F07
:103E8000BE42F6D122000098C068FFF7F9F80C9AFC
:103E900021000098FFF79AFE050028000DB0F0BD44
:103EA0000198072808D186480268D423D4580068AE
:103EB000D8228258A0180AE081480268CC23D4583E
:103EC0000068D0228258A01801E0D21AE418844277
:103ED00023D22378019E0F2E0DD166780F2EF4D1B8
:103EE00005AB04227749200001F05EFB05A840885D
:103EF0000390002511E06678022EE6D1049EB142BF
:103F000001D0491CE1E707AB08226F49200001F00E
:103F10004BFB07A8408803900025002D26D103986D
:103F20000C99884201D2039D00E00C9DFF20801C6B
:103F300085420BD312220921022002F0B9FB029A1A
:103F400014213800BB6998470500A6E72A00210024
:103F50000098C068FFF794F801980099C968487004
:103F60000C9A29000098FFF731FE050095E70498A8
:103F7000002839D1524C2068F0214058801CFF2184
:103F8000891C88420BD312220921022002F090FBE7
:103F9000029A14213800BB69984705007DE7009814
:103FA000C0682168F0228958891C01700321417082
:103FB0002168F0228A582168EC23C958801CFFF739
:103FC0005FF82068F0214058801C0C99884204D288
:103FD0002068F0214158891C00E00C990C9A009847
:103FE000FFF7F4FD050058E735480168E4228E58D4
:103FF0000068E821445805E0F078241A241FF0787E
:104000003018061D002C4AD03000FFF744F80B99F9
:104010008842F1D1B07804998842EDD1F07802213C
:104020004843801CFF21891C88420BDB1222092196
:10403000022002F03DFB029A14213800BB69984728
:1040400005002CE00098C068F17802225143891CD9
:10405000017003214170002211000BE073181B79DD
:1040600002254D434519AB70130002254D434519F8
:10407000EB70491CF3789942F0D3F0780221484361
:10408000801C0C99884204D2F17802204143891C9B
:1040900000E00C990C9A0098FFF798FD0500002CA1
:1040A000A1D1029A14213800BB699847FF20F5E698
:1040B000029A14213800BB699847FF20EEE600BF42
:1040C000FC420020800000206C00002080B50948E0
:1040D00000680100243108001830203080228958FF
:1040E000C26811700321816201220121FFF76EFD78
:1040F00002BD00BFFC420020F1B598B00C210020A9
:10410000009006AC009A2000FEF7ACFC0020059061
:104110000020049000257D4F3868029038682430D4
:104120000090002003900098802140581899884200
:1041300001D10020E7E03868CC2144583868D0210C
:10414000465803E00198361A01982418002E10D022
:10415000207801906078C0B20228F3D106AB082223
:104160006B49200001F020FA06A84079189988428E
:10417000E8D1002E04D11898002801D0FF20C2E019
:10418000009880214058002815D00098902146586A
:104190000FE003200C900E9671681491002902D054
:1041A0000CA8496C8847B0690190300001F0D6F93D
:1041B000019E002EEDD10020009980228850012020
:1041C00000990860012213210298029B9B6998477D
:1041D0001898002801D1002095E0189800998022B5
:1041E000885000980300843308224949200001F0D8
:1041F000DBF906A8C179490601D5022100E00121B9
:104200003A68A2235B00D150C1790A00D2B25209A8
:104210001100C907C90F3A68A4235B00D150468832
:104220002DE03868FC228258106C01281ED1887855
:10423000936D98421AD11898D36D984216D1386868
:1042400089780423594340188021490042500DE0E9
:104250003868897804225143401880214900059A22
:1042600042506D1E002D01D100200390002231002C
:10427000200002F031FA0198361A01982418002E15
:1042800037D02078019060780100C9B20B2904D1A1
:1042900001210391A1780491E578C0B20428EAD104
:1042A00009AB09221B49200001F07EF909A9C87851
:1042B0000028E0D103980128B3D18878049A90426D
:1042C000C6D13868FC228258106C0128C9D1887880
:1042D000936D9842C5D11898D36D9842C1D1386872
:1042E000897804235943401880214900425005929F
:1042F000B7E7032000990860032213210298029B6C
:104300009B699847002019B0F0BD00BFFC42002017
:104310006C0000207400002080B5104909680A0074
:1043200024321168032917D19021515800E089697E
:10433000002911D08B7B8342F9D110001830203036
:10434000C97BC26811700121416103218162012290
:104350000121FFF73BFC00E0FF2002BDFC420020F2
:10436000F0B595B0834A126824320092009A126820
:10437000032A01D05420FBE0009A9023D6580390E2
:1043800000E0B669002E03D0B07B039A9042F8D1CA
:10439000002E06D152220721022002F089F9522074
:1043A000E6E00291F07B0299884201D10020DFE033
:1043B0007048006801906F480068CC2145586D48EE
:1043C0000068D021445801E0E41BED19002C00D115
:1043D000CDE02F786878C0B20228F5D107AB08226B
:1043E0006549280001F0E0F807A84179009A802388
:1043F000D2589142E8D1478801E03F1B2D19002F88
:1044000000D1B4E02C786878C0B20428F5D104ABB0
:1044100009225A49280001F0C7F804A88178039AB4
:104420009142EAD1C07802998842E6D1F46911E05C
:104430002621200002F0FEF922000F210198019BA5
:104440009B69984760690021216061606161A16199
:10445000E1610400002CEBD10020F06128783F1AC4
:1044600028782D1805E000E0029F02983F1A029874
:104470002D18002F5CD0287802906878C0B20228EE
:10448000F2D00428F0D00528EDD100989C214458A2
:104490000098A021405801E06834401E002804D054
:1044A00021680029F8D101212160002833D02300A0
:1044B0000C3306223249280001F076F82000203023
:1044C000218A4905490D2B4A1268A0235B00D25866
:1044D000022A0BD1E27BD20708D5238AC0225201DF
:1044E0001A40002A02D0D20A521C51430162846051
:1044F0000021C9434163A6610098E06122000E21BA
:104500000198019B9B699847002806D1F069002813
:1045100006D1F461A9E712202AE00021216027E0FA
:10452000F06900E0406941690029FBD14461F1E78D
:104530000C2204A930000C30FEF7A2FD0D480068E3
:10454000B17B042251434018802149004158002981
:1045500002D0086C002801D1572009E006200A90FB
:104560000C9612910E660AA8496C884700E0FF205D
:1045700015B0F0BDFC4200206C000020740000204B
:1045800054000020F8B504001F00002C03D0009157
:104590000098002801D1FA2046E01600009A002178
:1045A000200002F04DF9214D2C6018202118204ADE
:1045B0001160B8214900401821182A681160143090
:1045C000002E06D0002F04D021182A685160143024
:1045D00003E0296809682A6851602118C91D07206D
:1045E000814300982018814201D312201CE0421A16
:1045F0002868006802F02EF9002E14D0002F12D087
:104600003A000021300002F01BF93100C91D0720DB
:104610008143F019814201D3122005E0421A286833
:10462000406802F017F90020F2BD000000430020AE
:10463000FC42002080B5002801D0002901D1FA20D9
:1046400001E0FFF79FFF02BD70B503000E000020E0
:104650001800C0B2002811D1594C5A4DDBB2CD4AD6
:104660002968200000F0DAF89020400020589221BC
:104670004900615840183060286810E0C64CC74DAA
:10468000DBB2C44A2968200000F0C8F8902040003E
:10469000205892214900615840183060286870BD48
:1046A000F1B582B0002768460780BD4C0926380066
:1046B000C0B226547F1C04253800C0B225547F1C8C
:1046C00001203900C9B260547F1C6A463800C0B26C
:1046D0002118B44800F07CF8684600883F187F1C19
:1046E0003800C0B226547F1C3800C0B225547F1C4D
:1046F00002203900C9B260547F1C6A463800C0B23B
:104700002118A94800F064F8684600883818401C51
:104710000100C9B26654401C0100C9B26554401C76
:1047200003210200D2B2A154401C6A46C0B2211833
:104730009E4800F04DF8200002F0B2F8029908609F
:104740002000FEBD38B504000020994D092102006B
:10475000D2B2A954401C04210200D2B2A954401C78
:10476000280002F09DF82060280032BD70B50200DC
:10477000002318001C001CE0114C1D00EDB25C264B
:10478000754365192D7B1600F6B2B54210D11D0098
:10479000EDB25C26754365192D7D0E00F6B2B5426B
:1047A00006D11800C0B25C25684320185A24005D69
:1047B0005B1C1C00E4B2032CDED3C0B280B270BD1F
:1047C000B43B0020340000200120C0B280B270470A
:1047D000F8B50025002815D014000F0006003000A1
:1047E00000F011F8208020782900C9B278546D1C9F
:1047F00005E030782900C9B278546D1C761C3078F9
:104800000028F6D1F1BD00B50100002001E0401CF8
:10481000491C0A78002AFAD1C0B200BDFFB581B0A8
:10482000050000263700922040002E5090204000C6
:104830002E50604C029820601220216808700120E0
:104840002168487080208000216802008A70120A66
:10485000CA70310022681171310022685171310033
:104860002268917140212268D1712168524A0A72EE
:10487000120A4A722168514A8A72120ACA7221685F
:1048800002000A73120A4A730121226891730221FD
:104890002268D173032122681174012122685174A6
:1048A000902149006958123190225200A95069465E
:1048B000097C01294DD14249029A90235B00EB58B3
:1048C000D2180A600A220B681A7006220B685A7006
:1048D0000A689070000AD07030000A6810713000C9
:1048E0000A68507130000A68907140200A68D071DF
:1048F00001200A6810723000096848729020400058
:1049000028580A3090214900685022E0686803283E
:104910001ED2A86803281BD203983900C9B2405C94
:10492000002815D00298902149006958401800903D
:104930006846037C002203983900C9B2415C280014
:1049400000F040F86868401C6860A868401CA860D7
:104950007F1C3800C0B20328D8D3A868022809D326
:10496000EF20216808710220216848710120216828
:1049700088710BE003980078022807D1022001001B
:10498000226811712168487120688671029805B00B
:10499000F0BD000028000020DC3C00203800002092
:1049A000043E002004770008187700082C770008E0
:1049B00008430020D8420020830400001057000064
:1049C000DC42002038B50A0019004368032B20D2CE
:1049D00043685C246343C3189B69002B19D1049B73
:1049E00044685C256C4304194568256144685C256E
:1049F0006C4304190125A56144685C256C430419C6
:104A000022731A00C9B200F006F8002801D0FF2076
:104A100000E0002032BD70B504000D00160000203B
:104A200025706068002805D19220400021183000D0
:104A300000F06DF860685C2148432018007B022874
:104A40004DD1200000F04DF861685C22514361189F
:104A500002220A6261685C22514361185A2288541A
:104A600061685C22514361185B22401C8854606875
:104A70005C21484320180321C161EDB2012D14D1FE
:104A80008025AD002B0002220121200000F055F806
:104A90002B0002228121200000F04FF8082303227E
:104AA0008221200000F049F811E040230222012178
:104AB000200000F042F8402302228121200000F073
:104AC0003CF8082303228221200000F036F89220CF
:104AD000400022183100200000F06AF8FFE70020B3
:104AE00070BD30B5010000221000130008E0401C2A
:104AF000641C5C255D434D192D6AAC42F7D35B1CE9
:104B00008C68A34201D21400F3E7C0B230BD092281
:104B100002700222427000228270120AC2700022C9
:104B200013000371012343718271C022C2711922E3
:104B30000272086809300860704770B5002400E010
:104B4000641C45685C2675434519ED69AC420AD280
:104B500045685C267543451906266643AD19282627
:104B6000AD5D002DECD145685C26754345190626E0
:104B70006643AD192426A95541685C25694341184F
:104B800006256543491925254A5541685C2251434C
:104B90004118062262438918CB8441685C22514344
:104BA000401806214C43001928210122425470BDAF
:104BB000F0B5AA4C1368CB182360082325682B7026
:104BC0000B2325686B7043685C256B43C3185A251B
:104BD0005B5D2568AB7002232568EB7002232568B6
:104BE0002B71022325686B7101232568AB710023AB
:104BF0002468E371146808341460994C15684D19E1
:104C00002560092526683570042526687570456875
:104C10005C26754345195A26AD5D2668B570256832
:104C2000EB7001252668357102252668757102250D
:104C30002668B57101252668F57125682B721568FF
:104C400009351560874D16688E192E6005262F6868
:104C50003E7024262F687E702E68B3702D688826DB
:104C60007600EE70360A2E7115686D1D15607E4D4A
:104C700016688E192E6005262F683E7024262F6830
:104C80007E7001262F68BE702E68F37046685C2720
:104C90007E4386195B27F65D2D682E7115686D1DA4
:104CA0001560724D16688E192E6004262F683E70AE
:104CB00024262F687E7002262F68BE7002262D687B
:104CC000EE7015682D1D1560694D16688E192E60E1
:104CD00005262F683E7024262F687E7006262F68D2
:104CE000BE7046685C277E4386195A27F65D2F689A
:104CF000FE7046685C277E4386195B27F65D2D684B
:104D00002E7115686D1D15605A4D16688E192E602E
:104D100007262F683E7005262F687E7046685C2740
:104D20007E4386193027F65D2F68BE7003262F68F4
:104D3000FE702F68BC4647685C267743C619768E9E
:104D400067463E71360A7E710678012E03D105262C
:104D50002F68BE7102E005262F68BE711668F61D29
:104D6000166016688E192660092627683E7004268C
:104D700027687E7046685C277E4386195B27F65D50
:104D80002768BE702668F370022627683E710A26DF
:104D900027687E712668B3712668F37124682372D0
:104DA00014680934146014680C192C600724260058
:104DB0002F683E7005262F687E7046685C277E430C
:104DC00086192427F65D2F68BE7002262F68FE70B4
:104DD0002F68BC4647685C267743C619F68C674641
:104DE0003E71360A7E710678012E02D12E68B371AB
:104DF00001E02E68B3711668F61D166016688E19EC
:104E00002E602E68347005242E68747044685C2609
:104E1000744304192A26A45D2E68B47002242E68F7
:104E2000F4702C6846685C277E438619B68D26711F
:104E3000360A66710078012802D12868837101E082
:104E4000286883711068C01D10600879801C087183
:104E500010688870000AC870F0BD0000F842002099
:104E6000E0420020E8420020EC420020F042002016
:104E7000F4420020E4420020FCB585B00C9A0E9B61
:104E80000F9C109D8F4E3668243600968D4E3668E6
:104E9000DC27F0518B480068E0268151059889494C
:104EA0000968D4268851069886490968D826885109
:104EB00084480068E42142500D9882490968E8223C
:104EC000885080480068EC2143507E480068F021FB
:104ED00044507C480068B2214900455064220021BA
:104EE000002001F0E5FC002801D11220E8E075491E
:104EF0000968FC228850009804003834802252004F
:104F00000121002001F0D4FCE060E068002801D11C
:104F1000122400E000240025002600200390002C2D
:104F20005AD168480068D421425866480068D821A0
:104F300040580290002000210191002112E00BE076
:104F4000854200D2050000231800019F79188E4287
:104F500000D20E0001931900029B049FDB1B0293F9
:104F6000049BD218029B002B1BD013780493537818
:104F7000DBB2022BE4D0042BE1D1D378002B05D196
:104F8000019B591801911179401C03E01379994252
:104F900000D21179039B9778BB4201D29378039397
:104FA000DAE7019A51188E4200D20E00854200D2F3
:104FB0000500002D05D142220321022001F078FBDB
:104FC0004224002C08D10398102805D31222032173
:104FD000022001F06DFB1224002C12D100989821C0
:104FE00045500098A021465020232A00002100208F
:104FF00001F0D8FC002801D1122402E0009994228B
:105000008850002E2AD0002C28D16823320000219D
:10501000002001F0C7FC0500002D01D112241EE084
:1050200000989C21455003E00024002C14D16835E1
:1050300000989C21405868217143401885420ED247
:10504000802292000121002001F032FCE862E86A2F
:105050000028E9D1122402E0152400E00025002CEC
:1050600001D100202CE0002D11D006E0E86A0028D4
:1050700002D0E86A01F0AEFC683D00989C214058DF
:105080008542F3D200989C21405801F0A3FC00987F
:1050900094214058002804D000989421405801F0F1
:1050A00099FC0098406C002803D00098406C01F0F7
:1050B00091FC04480068FC21405801F08BFC200062
:1050C00007B0F0BDFC420020F9B58DB00F0016000E
:1050D000002000903F2269460D9801F0B5FC0028A1
:1050E0001FD111480068FC214458206C002817D1BA
:1050F000149D009A521C0D992000FDF7C1FF6764B2
:105100006565E6650E98A065052001900A950994ED
:1051100001A8B847002804D101202064002000E045
:1051200012200FB0F0BD0000FC42002038B50C008A
:105130000B48056880206860C8220021002001F02B
:10514000B7FB002801D1122008E0E861056005499D
:10515000A961C421445001202860002032BD00BF55
:10516000FC420020CF70000870B5002634000E4DC0
:10517000286800221221836998472868FC21455835
:105180000AE0A86C296D884720430400643502E0DA
:10519000286D0028F5D1761C002E03D1286C00283C
:1051A000F6D1F8E7200070BDFC4200201A490860E3
:1051B0007047704710B5184B1860184800682430C5
:1051C00038303D21405C202802D0212818D021E031
:1051D000824C22000221186801F04FFC002801D007
:1051E000FDF73CFC962080012168814204D22060BA
:1051F000200000F097F902E0200000F093F909E0A8
:10520000764A0121186801F038FC002801D0FDF72A
:1052100025FCFFE710BD0000B0420020FC4200204A
:10522000F8B584B07049086824300268032A0AD0AF
:1052300000206E49086001006D4A11706D490860D8
:1052400067490860C7E090228058806980680968D3
:10525000A02252008958022902D18026B60000E01F
:105260004026002800D1B6E05D4D2968002907D00E
:1052700005290CD080296AD0812900D1A8E0AAE0B4
:1052800000215C4A11605A4A1170052129600024EE
:1052900056490C60944F554B3200390001F060FCC8
:1052A00004280CD253480168002902D080202860CD
:1052B00004E021004E4A117004602C608BE0042849
:1052C0002DD14A480068002827D04A4800680028A5
:1052D00003D1FEF775FC8549086085480470454C8C
:1052E0002068002802D00120414908703F48026828
:1052F00039003C482368C7183800FDF7D9F8206802
:105300003A49096840182060802000012168401A4D
:10531000B04203D2802028605DE02C605BE005286D
:1053200014D134480068002810D0304800680028A4
:105330000AD16F480178491C01700178102902DBFD
:1053400004708020286046E00520286043E0694F13
:10535000FEF736FC3860654E3068002801D13868A9
:10536000306038683168401A029022480068039023
:105370000024200020000299002907D00398FA2178
:1053800089004843029901F0D2F8800A01900298FE
:105390000090039B584A6021584801F053FC0128B3
:1053A0000ADB6021554801F073FCFF23020092B232
:1053B00052494C4800F02CFB34603C60FF230D4800
:1053C000026892B20749474800F022FB2C6002E0D5
:1053D00000202860FFE705B0F0BD0000200000209D
:1053E000B8420020D4280020FC420020BC4200200B
:1053F0000C430020C0420020F8B584B00024039480
:1054000020003F48006824300168032902D03D484D
:10541000046065E09021405880698668394D2868AD
:10542000002802D0052817D059E037480178002914
:1054300011D00470FEF7C4FB3449086080221201C9
:105440003348026003AB3349300001F047FC0528C4
:1054500001D10520286043E003AB00220021300089
:1054600001F03CFC052839D228480068002834D0D7
:10547000FEF7A6FB28490860274800682349096809
:10548000401A029022480768200020000299002953
:1054900006D0FA2080007843029901F048F8800A8B
:1054A0001E4E0190029800903B001D4A6021300082
:1054B00001F0C8FB01280ADB6021300001F0E8FBA5
:1054C000FF23020092B23100064800F0A1FA0F4813
:1054D0000460114804600E4804602C6000E02C60F9
:1054E00005B0F0BD9440002038420020C4420020A6
:1054F0000D430020C84200204075000828410020CC
:10550000FC420020B44200200A430020CC4200208C
:10551000D4420020D4300020D04200208841002016
:10552000B075000800B50179002902D0022901D028
:1055300001E000E0FFE74179002903D0022903D010
:1055400001D302E001E000E0FFE78079072802D004
:10555000082801D001E000E0FFE700BDF8B5050034
:10556000104E306824300090EF690CE03C00676911
:10557000306822000F218369984700202060606016
:105580006061A061E061002FF0D1A86900999022CC
:10559000885000206860A860A861E8612860002049
:1055A000F2BD00BFFC420020F8B504000F0015005A
:1055B0001E000BE000203070761C30008007F9D10F
:1055C000200001F007FC3060241D361D2800451E18
:1055D000002818D03800471C0078022809D0042879
:1055E000EBD020783070641C761CEFE70020307020
:1055F000761C3000C007F9D42000FDF74CFD308048
:10560000A41CB61CE2E7F1BD38B505000024124920
:10561000087800281CD0FA208000097800F087FF65
:1056200001000E48006800F082FFFDF764FB0028CF
:105630000CD1042D08D2002229000020C043FDF720
:1056400050FB0748056004E0012402E0012400E06B
:1056500001242000C0B232BDD00000201C00002078
:105660000000002081B0012009490A6802430A6055
:1056700009680840009000988020400505490A68A4
:1056800002430A60096808400090009801B0704722
:10569000401002403C100240F8B50200002433E004
:1056A000062603E0734DAA42FAD1052625002F40B5
:1056B00008256F43BE4006437048A50804277D4374
:1056C00046516D4D286898434E68F60300D518433F
:1056D00028606B4D286898434E68B60300D5184380
:1056E0002860684D286898434E68F60200D5184334
:1056F0002860654D286898434E68B60202D50600BA
:10570000180030432860641C0868E040002800D17D
:10571000AFE0012608683300A3400340002BF2D01D
:105720004868022802D0486812281FD1E0080425E2
:1057300068431018076A0F25BC46200047077F0FF3
:10574000042047432800B84067468743086905405E
:10575000AC46200045076D0F042045436046A84035
:105760003843E50804277D43551928621568032747
:10577000AC462500022045433800A84065468543D5
:10578000009548683840844625000220454360461D
:10579000A840009D284310604868012808D0486848
:1057A000022805D04868112802D0486812281DD167
:1057B0009568AC462500022045433800A840654660
:1057C00085430095C868844625000220454360460D
:1057D000A840009D2843906055683000A040854354
:1057E000486800093040A0402843506048680328BA
:1057F00013D0D568AC462500022045433800A840A8
:105800006546854300958868844625000220454307
:105810006046A840009D2843D0604868C00000D47E
:1058200071E716488446A508042045436046405960
:1058300000900F25AC462500380028400825684315
:10584000654685400098A843A025ED05AA4201D1F0
:1058500000262BE7174DAA4200D127E7164DAA4292
:1058600001D1022622E7154DAA4200D01AE73E00D8
:105870001CE7F1BD0014005080180240601802407F
:1058800084180240001802400418024000B5D2B249
:10589000002A02D089B2816101E089B2816200BD33
:1058A00042690B009BB213401B0489B29143194318
:1058B000816170470004005000080050000C005047
:1058C00000B503000020C9B2002903D0022906D088
:1058D00003D306E05A609A6004E05A6002E09A60DE
:1058E00000E00120C0B200BD00B5002801D10120B8
:1058F00001E00160002000BD70B5040001252068B2
:10590000060C2E402078C006C00E85400E4820218F
:105910007143401801682940002905D0056060687E
:10592000002801D060688047084820214E43801934
:1059300001682940002905D00560A068002801D031
:10594000A068804770BD00000C180240101802408B
:1059500080B50D4A126802600A6842600C224261FA
:105960000A228A5E02614A68826008228A5EC260F8
:105970000C22895E816180210902C161002141629E
:1059800000F004F802BD00BF0400002010B50400C0
:10599000002C01D1012037E0A0690028FFD1882028
:1059A0002058002805D1002084216054200001F0F7
:1059B0001FFA242088216050206800680121884354
:1059C00021680860A06A002802D0200000F06AF96F
:1059D000200000F094F8012801D1012014E0206893
:1059E00040680A49014020684160206880682A2197
:1059F000884321688860206800680121014320688D
:105A00000160200000F0CAF910BD0000FFB7FFFFE1
:105A1000FEB504001D008820205820286DD10E00FE
:105A2000002E05D06846028068460088002801D113
:105A3000012063E080277F01A068B84207D1206978
:105A4000002804D13000C00701D5012056E0002015
:105A500090216050212088216050FEF7B1F801901C
:105A6000684600885421605268460088562160527A
:105A70000295A068B84204D12069002801D1002510
:105A800014E03500002611E02878216888626D1C3A
:105A900007E0002DF8D13088C005C00D216888626C
:105AA000B61C5620205A401E562160525620205ABD
:105AB00000280ED002980090019B00228021200037
:105AC00000F0EAF90028E4D020208821605003206B
:105AD00014E002980090019B00224021200000F079
