:020000040800F2
:100000008841002071420008594100085B41000806
:1000100000000000000000000000000000000000E0
:100020000000000000000000000000005D4100082A
:1000300000000000000000005F410008614100086E
:10004000971E0008A71E0008432400086329000823
:10005000B3290008BF2F0008D32F0008694100080A
:10006000734100081B36000803370008673A000890
:100070003B3C0008E7410008194200086F420008B5
:10008000A54200080000000000000000A742000890
:1000900000000000A9420008AB420008AD42000881
:1000A000AF420008B1420008B3420008B542000860
:1000B000B74200080000000000000000000000003F
:1000C0000DE081B00A2001E00098401E00900098E9
:1000D0000028F9D10A48C90040580DE000BF81B09E
:1000E0000A2001E00098401E009000980028F9D1F5
:1000F0000348C900401840688001800D01B0704776
:1001000000980040F8B584B00600306801F00BF9A3
:10011000010422D4410500D499E33068416CA04A1F
:100120000A404264300001F050FA0021300000F033
:1001300011FCEDE301280CD100982178C90040188A
:10014000016889B2016000982178C90040180168EF
:1001500001602178300001F085F93068416C0904B4
:1001600000D4ECE3416C0A07120F0292B74C8027CF
:10017000002A72D1C90623D430680068B44901400E
:100180003802084331680860B248317DC9004058E0
:100190008001800D3063B06A316B4018B06200217D
:1001A000300001F05FF9707C0028D6D0F06A00289A
:1001B000D3D1707C07433068C76400207074CCE7EB
:1001C0003168096889B2AA225200B5180A0514D507
:1001D0002978FFF775FFE8610346EA88A7208000C9
:1001E0003118306801F0C8F8306801680C402743C6
:1001F0000760300001F0EAF8AFE70804ADD53068D9
:100200000068044027433068076029783068FFF7AA
:1002100057FFE8610346002B0ED0696900290BD017
:10022000EA88306801F0A8F86869E96940186861EF
:100230000021300001F07DF93068026811058CD48E
:10024000C02189010A408A4287D00268824B13404C
:100250005940824A0A4302607FE730689100405863
:1002600080B201900298282148430390019800042D
:1002700000D4B8E09000316809580C403C43316824
:100280000C5003983018AA21490045182978287B7A
:10029000002807D13068FFF713FF040066D0230061
:1002A000EA8885E0E878022861D1019A14004020AC
:1002B0000440306852042AD5FFF703FF0090A86974
:1002C0000099884201D3401A00E00020A86100286C
:1002D0000BD1306829788900401801685E4A0A40CD
:1002E000B90151405D4A0A430260002C09D03068D0
:1002F0002978890040180168B64A0A4058491143D4
:1003000001600098002830D083B22A8929E0FFF7E5
:10031000E5FE0090A8690099884201D3401A00E0E8
:100320000020A86100280BD1306829788900401886
:100330000168494A0A40B9015140484A0A430260EB
:10034000002C09D130682978890040180168A14A39
:100350000A404349114301600098002805D083B248
:100360006A896969306801F007F8009C24E0880018
:1003700031680958974A0A40394911433268115087
:10038000287801003268800010584004104609D5D2
:10039000FFF797FE04000FD023002A8908E000BF72
:1003A000FFFB0000FFF79AFE040005D023006A89D6
:1003B0006969306800F0E0FFA0B2E9690918E961F5
:1003C0006969A4B209196961A969002907D0296975
:1003D000884204D32900306800F09AFD03E02978B0
:1003E000300001F0A6F80198384273D03000143084
:1003F0000399441830680299890040180168144A2A
:100400000A40390211430160124D281D0090E07826
:10041000012843D10020A061207B002814D06078FF
:10042000019949062AD500281CD12078C000281837
:1004300001688901890901602078C00028180168D5
:10044000802212060A43026083E600BF8F0FFF0777
:100450000F8FFF07009800408FBFFF0780800000CC
:10046000C08000000128EFD12078C0002818016862
:1004700089B201602078C000281868E6002800D002
:1004800058E600982178C900401801688901890957
:10049000016000982178C9004018D0E721780198C0
:1004A000C00518D4C80028588001800DA269904268
:1004B00001D2121A00E00022A261002A00D149E60E
:1004C000616909186161E1690818E061210030681B
:1004D00000F01EFD41E6019A2F0C174030685206CD
:1004E00000D4DAE0FFF7EDFDA169884201D2091AD4
:1004F00000E00021A161002963D16078A7490028AC
:100500000ED12078C000281802680A4002602078C6
:10051000C0002818026880231B06134303600CE008
:1005200001281ED12078C0002818026892B202600B
:100530002078C0002818026802606078002810D176
:1005400000982278D200801802681140016000985B
:100550002178C90040180168802212060A4302600F
:100560000FE0607801280CD100982178C90040186C
:10057000016889B2016000982178C90040180168BB
:100580000160E07802280BD130682178890040189A
:100590000168C44A0A4020215140C34A0A4302600C
:1005A0002178300000F05EFF002F09D030682178FC
:1005B000890040180168074A0A40BC49114301609C
:1005C000CBE5002F0CD031682278920089180A6898
:1005D000004B01E08F8FFF071340B44A1A430A60B3
:1005E0002421615C012900D027E161690918E269D1
:1005F0001218E2612269236A934203D310001A1A87
:10060000226207E0002B02D01800002222620022A2
:100610002423E2546278002A2CD12278D200AA182E
:1006200013689B019B09136080231B06002806D1D9
:100630002278D200AA1815682B43136029E03F28BE
:100640000BD24208C30700D5521C2378DB00EB18FD
:100650001D6892062A431A601BE04209C70600D1B2
:10066000521E2778FF00ED192F6892063A43134374
:100670002B600EE0012A0CD12278D200AA18136850
:100680009BB213602278D200AA18136805041D4398
:100690001560616183B22289CCE0FFF71FFDA1697B
:1006A0000022814201D3091A00E00021A161002942
:1006B00056D1607880210906384A00280BD120786D
:1006C000C00028180368134003602078C000281871
:1006D00003680B430BE001281BD12078C0002818C9
:1006E00003689BB203602078C00028180368036089
:1006F000607800280DD100982378DB00C0180368CB
:100700001A40026000982278D200801802681143D3
:100710000EE0607801280CD100982178C9004018BB
:10072000016889B2016000982178C9004018016809
:100730000160E07802280BD13068217889004018E8
:100740000168584A0A4020215140574A0A43026032
:100750002178300000F086FE002F00D0FDE425E770
:10076000002F09D1316823789B00C9180B68754D9B
:100770001D404E4B2B430B602421615C01295CD151
:1007800061690918E3691B18E3612369256A9D42C1
:1007900006D318002A1A226208E000BFFFFFFF03F9
:1007A000002D01D0280022622423E2546278002A1E
:1007B0002CD1009A2378DB00D21813689B019B0987
:1007C000136080252D06002805D1009A2378DB00D0
:1007D000D218136829E03F280CD24208C30700D57D
:1007E000521C009B2578ED005B191D6892062A4378
:1007F0001A601CE04309C20600D15B1E009A2778EC
:10080000FF00D21917689B063B430EE0012A0ED168
:10081000009A2378DB00D21813689BB21360009A09
:100820002378DB00D218136805041D43156061614D
:1008300083B26289306800F078FD306821788900E1
:1008400040180168174A0A403021514001E541042F
:1008500003D53068416C3C4A6FE0810403D53068B1
:10086000416C3A4A69E0B32189007118C2041FD56E
:100870003068026C04239A4302643068026C0823D7
:100880009A4302640878012805D1002008700021ED
:10089000300000F0D3FE300000F0B6FE3068416C4E
:1008A0002B4A4AE0BF8FFF078080000080C0000015
:1008B0000422082304050DD53068016C0B43036442
:1008C0003068416C824B0B4043643068016C0A43D2
:1008D00002641EE0040620D53068446C7D4D25403E
:1008E00045640878002814D13068046C22430264FF
:1008F0003068026C13430364012008703068406D57
:1009000080083C2202404A600121300000F096FE3F
:1009100015E0300000F06CFE11E0810508D530686C
:10092000416C6D4A0A404264300000F079FE06E0F6
:10093000C00504D53068416C684A0A40426405B07D
:10094000F0BD00008F8FFF07FFBF0000FFDF00003A
:10095000FFEF000010B5A522920084182278012A2A
:1009600001D1022010BD012222704174006800F004
:10097000D4FC0020207010BDF1B507250C002C40E0
:10098000282674430019012600240F0602D51430CE
:10099000467003E0AA277F00C01944700D4005701F
:1009A0005105490D0161C370022B00D104710099FA
:1009B000A52292008D182978012901D10220F2BDCB
:1009C0002E7001000098006800F08EF82C70002056
:1009D000F2BD70B507250C002C402826744304197D
:1009E000AA267600A4196261A3610022E261627006
:1009F0000D4025702100006800F08AFA002070BDCB
:100A00004907490F282251434018B821490040584E
:100A10007047F8B507250C002C40282674430419AC
:100A200014346261A36101222427E255236200236A
:100A3000E36162700D4025702100006800F068FAE3
:100A40000020F2BD70B50A000725294003798B42CA
:100A500001D2012070BD01230024160605D52826E9
:100A60007143411814314B7007E01100282671437F
:100A70004118AA26760089194C708B7015400D70AC
:100A8000A522920085182A78012A01D1022070BD82
:100A90002B70006800F02CFC2C70002070BD10B58D
:100AA000A522920084182278012A01D1022010BDCB
:100AB0000122227000680A0604D54907490F00F098
:100AC0000FF801E000F00EF80020207010BD0000CB
:100AD000FFF700007FFF0000FFFD0000FFFE0000A9
:100AE0000020704700207047FEB500226B461A7147
:100AF0000A78920083181A689A4C1440CA78002A1F
:100B000005D0022A12D009D3032A04D00BE0220018
:100B10008024A40005E02200C02401E022008024FB
:100B2000E400144302E001226D462A718E4A144308
:100B30001C600B789C00041925688C4E2E403343B2
:100B4000134323600E788A4B1B1D0093894B20248E
:100B5000894D0F7B002F00D08CE0F6004F78002FDE
:100B600029D0834B9E190096009E3668360C3604B9
:100B7000009F3E600E78F6009B191E68CF88BF0864
:100B8000BF0037431F600B789B00C3181E687606B2
:100B900005D51E68754F3740784E3E431E600B7872
:100BA0009B00C018C9780129016800D16CE10D4093
:100BB0006C4022439EE1009CA41925682D0C2D0455
:100BC0002560009C0D78ED0064192568CE88B60874
:100BD000B6002E432660009C0D78ED006419256850
:100BE000AD01AD0925600D69002D09D1009C0D787E
:100BF000ED0064192568802636062E4326601DE028
:100C00003F2D0CD26C08ED0700D5641C009D0E78BA
:100C1000F600AD192E68A40634432C600EE06C0972
:100C2000ED0600D1641E009D0E78F600AD192E6809
:100C3000A40634438026360626432E600C78A40092
:100C4000041925686D0405D52568484E2E40AB4D26
:100C5000354325600978002903D101680B40C02184
:100C600004E08900401801680B4080218901594047
:100C70000A433FE1B60086190296CE78022E029E04
:100C8000366806D1394F37409D4E3E43029F3E6045
:100C900004E09C4F37401743029E3760344E0F7874
:100CA000FF00F6190296029E3668360C3604029F43
:100CB0003E602F4E0F78FF00F6190296029E3668AE
:100CC0000F89BF08BF003743029E3760009E0F7830
:100CD000FF00F6190296029E3668360C3604029F13
:100CE0003E60009E0F78FF00F6190296029E36685D
:100CF0004F89BF08BF003743029E37600E78B600A9
:100D00008619029666024F78002F00D0BFE0029C41
:100D10002768164C3E4006D0029E36682640774F24
:100D20003743029E37600E78B600861937687F0613
:100D300004D537683C40114F274337604C780C4F3F
:100D4000002C38D10C78E4003C192668B601B609AD
:100D500026600C69002C13D10C78E4003C1926683D
:100D600026E000BF8F89FF07808000008F8FFF077C
:100D7000009800408FBFFF07BF8FFF07C0800000B3
:100D80003F2C0BD26608E40700D5761C0C78E400F3
:100D90003C192768B6063E4326601CE06609E40657
:100DA00000D1761E0C78E4003C192768B6063E4355
:100DB00080273F060DE0012C45D10C78E4003C195A
:100DC0002668B6B226600C78E4003C1926680F69E4
:100DD0003F04374327604C78002C34D1009C0E78B8
:100DE000F600A4192668B601B60926600C698026AB
:100DF0003606002C05D1009C0F78FF00E419276807
:100E00000BE03F2C0BD26608E40700D5761C009C53
:100E10000F78FF00E4192768B6063E4311E0670922
:100E20000297E40601D17C1E0294009C0F78FF001B
:100E3000E4190094009C2468029FBF0627433E43A8
:100E4000009C266012E04C78012C0FD1009C0E789B
:100E5000F600A4192668B6B22660009C0E78F6004B
:100E6000A41926680F693F04374327600C78A40053
:100E7000041926683340C026B6015E40164326603A
:100E800009788900401801680D402A4332E0029F2A
:100E90003F6800973E4007D0029E36681A4F3740A1
:100EA000164E3E43029F3E600E78B60086190096AD
:100EB000009E3668760607D5009E3668124F37408A
:100EC000124E3E43009F3E600E78B6008619CF78E2
:100ED000012F05D037683D406C401443346003E077
:100EE0003468254015433560097889004018016849
:100EF0000B401A43026068460079FEBD80C00000C6
:100F0000808100008F8EFF078F8FFF07C080000059
:100F1000F1B584B00E00CB48CB497278012A00D0DD
:100F200096E1B76932690292BA4200D21746C74CBD
:100F3000327B002A13D1BBB2F2887169049800F0A9
:100F4000F4F93078C0002018016889B20160307867
:100F5000C000201801683A040A43026067E1327851
:100F60000392049A039B9B00D2180092326A01926A
:100F7000251DF278022A00D032E1029A019B9A42A2
:100F800000D317E1009800680140CA48084300995F
:100F90000860306AC01B306270783178FA07D20F6F
:100FA0000092049A8B00D25852067BD500282CD18F
:100FB000C80028180168890189090160002F06D13D
:100FC0003078C000281801688022120629E03F2FDF
:100FD0000CD278080099002900D0401C3178C90053
:100FE00069180A688006104308601CE07809F90651
:100FF00000D1401E3178C90069180A688006104384
:101000008022120602430A600DE001280BD1C800BD
:101010002818016889B201603078C000281801687A
:101020003A040A430260BBB272897169049800F005
:101030007CF97069C0197061306A3169814201D2EE
:10104000C01B01E00700002030627078002826D124
:101050003078C00020180168890189090160802169
:101060000906002F00D1D6E03F2F0BD27808F907F0
:1010700000D5401C3178C90061180A688006104309
:101080000860CEE07809FA0600D1401E3278D2001E
:10109000A21813688006184301431160C1E00128BB
:1010A000FCD18FE000282CD1C800201801688901EC
:1010B00089090160002F06D13078C000201801682E
:1010C0008022120629E03F2F0CD2780800990029CF
:1010D00000D0401C3178C90061180A6880061043AE
:1010E00008601CE07809F90600D1401E3178C9007B
:1010F00061180A68800610438022120602430A60C3
:101100000DE001280BD1C8002018016889B20160E8
:101110003078C000201801683A040A430260BBB26C
:1011200032897169049800F000F97069C019706122
:10113000306A3169814201D2C01B01E00700002002
:1011400030627078002825D13078C00028180168F6
:1011500089018909016080210906002F4ED03F2FA7
:101160000BD27808F90700D5401C3178C9006918FE
:101170000A6880061043086046E07809FA0600D144
:10118000401E3278D200AA18136880061843014323
:10119000116039E0012837D13078C0002818016883
:1011A00089B201603078C000281801683A040A4307
:1011B000026029E01F460099096808406D49014313
:1011C000009801603078C0002018016889B2016081
:1011D0003078C000201801683A040A43026020E019
:1011E0000198C01B30620398C0003904009A12684D
:1011F00052060CD52818026892B202603078C000FE
:101200002818026811430160BBB272890BE02018F4
:10121000026892B202603078C00020180268114360
:101220000160BBB232897169049800F07EF80498BD
:101230003178890040180168604A0A4030215140E5
:101240004C4A32E08F8EFF078F8FFF0700980040D7
:101250000023484A347B002C2ED1B469002C0CD1D9
:10126000F478002C09D104983478A400001904689B
:101270002140104C0C43046007E004993478A4002A
:1012800009190C68204010430860B0693169814237
:1012900000D2431AB361049831788900401801687C
:1012A000474B0B40C021890159400A43026000208E
:1012B00005B0F0BD80810000F078022814D1F069FB
:1012C0000028E8D0049833789B00C01803685408BD
:1012D00025001D40A54201D01C40DCD10368194007
:1012E000384B0B430360D6E70128D3D00120DFE75A
:1012F0000A78920080181F4A49780029016803D0B3
:101300002E4B0B40102103E02D4B0B408021490157
:1013100059400A43026000207047002901D1802112
:10132000C16400207047406C7047F0B5D81C870836
:101330009D07AD0F00D07F1E234816180C00002F0C
:1013400006E0200000F09AF93060361D241D7F1E53
:10135000F7D128000BD000202178FA0091400143FA
:1013600008007F1C641C6D1E2904F5D13060F0BD9F
:101370000000000080800000F0B5D81C87089D07A1
:10138000AD0F11481618280000D07F1E0C00002F4A
:1013900006E03068210000F07FF9361D241D7F1E15
:1013A000F7D1280009D03068F9000200CA40227045
:1013B0007F1C641C6D1E2904F6D1F0BDBF8FFF0792
:1013C0008FBFFF07C080000000980040F1B582B0D9
:1013D00099480068C4696768203708220298A721E5
:1013E0008900411838003C3000F060F90025BD61EB
:1013F000012078607D62A0680E218843A0603C21B6
:10140000795C090604D5802149000143A160F7BD3C
:10141000A5738026B6004221795C002903D14321BF
:10142000795C002910D0B86800903800423000F094
:1014300047F9786103467008834208D90099200073
:1014400000F043F92573A0680643A660F7BDBD61AF
:10145000FA683A610098817B0298FFF7BAFA022095
:101460002073F7BDFEB5744A1268D2690F230C00D1
:101470001C400C256C43194202D01619643601E059
:10148000121D161934682034002508270190080021
:1014900038D1A0680090307A012849D10023002279
:1014A00000210198FFF795FA0098018AE0698142CE
:1014B0001BD3A06B012808D1002300220098817B58
:1014C0000198FFF7A6FAA563F7BD656202202060C8
:1014D0006069A061706807437760E16A002901D004
:1014E0002000884704203072F7BD451A0B46AB42F6
:1014F00000D92B00226952182261C01AE0610098BD
:10150000817B09E0A06B00280AD06069002807D021
:10151000A563E561002300220198FFF77AFAF7BD81
:101520006562022020606069A0617068074377608F
:10153000F7BDF8B5070040480068C069001D0A07FC
:10154000120F0C235A4384182568203508260800FA
:101550002FD1207A022837D1A868009000213800C6
:10156000FFF74EFAA9690918A9616A698A4215D379
:10157000914204D00099098A0B00984205D0606816
:10158000C021890001436160F1BD286942182A61C8
:101590000098817B3800FFF71CFAF1BD27206862B4
:1015A000606806436660E96A00290DD02800884714
:1015B000F1BD3800FFF724FAA8610020686202201C
:1015C0002860606806436660F1BD70B51A4D2868F2
:1015D000406A002801D000F087F82868A02149005F
:1015E00040180126066000F0BBF82868466261BD1D
:1015F00011480068B22149004158002900D17047C4
:1016000080B5F420884701BD0B480068B22149002D
:101610004158002900D1704780B5F320884701BDAB
:1016200005480068B22149004158002900D170479F
:1016300080B5F020884701BD74310020704730B577
:1016400001684118446862088A188368E40704D571
:101650004C461B1901E0641C09D1914203D00C785F
:1016600064B2491C01E00C3030BD0D78491C1D707E
:101670005B1C002CEFD4641EF7D5EEE7C3788278AC
:10168000417800781B021A430902120408431043F0
:10169000704770477047704784460870000A48706A
:1016A000000A8870000AC8706046704703E00B7833
:1016B0000370491C401C13005A1E002BF7D17047C1
:1016C0000178407800020843704710B58A68536873
:1016D00004241C4354608B7B917A1943C4228058A4
:1016E000FFF7B0F9002010BDF8B58CB0FF251B4CFA
:1016F00020680090070024373868032816D190200E
:101700003D58002D0EE00320019003956968099172
:10171000002902D001A8496C8847AE69280000F072
:101720008BF83500EFD10120386001E0012806D1A7
:101730003A0018320F21009883699847050000206D
:101740008021785038602068E4314158002901D068
:101750000A20884728000DB0F0BD00BF743100207A
:10176000F8B5324F38680600F1690091040024345E
:10177000AE214900411800250A68012A05D101005F
:10178000CC318A6A0A60CA6A0CE00D600100CC3173
:101790004A6F012A03D18A680A60CA6802E00A69AE
:1017A0000A604A694A60231D0E2221498C46CC21D9
:1017B0004058614600F066F81E48E066606CA06420
:1017C000E07A2085E07AE06420001830206422006E
:1017D00018320E213000B3699847009EC4360021AC
:1017E0003068FFF75CF90023E27A00213068FFF7E8
:1017F000C3F880213068FFF752F90023E27A802194
:101800003068FFF7B9F8E5610120E063A0630820C4
:10181000E064606525653868B221490041580029B7
:1018200001D0012088470020F2BD00BF74310020A4
:101830001804002010270000F8B5070010480068C1
:1018400024300090FE6900250CE0340066690C48E5
:10185000006822000F2183699847256065606561F3
:10186000A561E561002EF0D1B869009990228850F9
:101870007D60BD60BD61FD613D600020F2BD00BFC7
:1018800074310020F8B504000F0015001E0009E0B7
:101890003070761CB107FBD1200000F020F83060DA
:1018A000241D361D2800451E002817D039004F1C66
:1018B00000200978022908D00429EBD02078307064
:1018C000641C761CEEE73070761CF107FBD4200018
:1018D000FFF7F6FE3080A41CB61CE3E7F1BD0178EB
:1018E000427812020A43817809041143C078000645
:1018F0000843704770B503000D00504C94208000E1
:10190000221818000AD197208000261800233100E1
:10191000200000F0B4F8902040000AE0C9208000C8
:101920002618310094204000201800F0A8F89220DA
:10193000800020180168406809183000296070BDD7
:10194000F1B582B00020694608803D4C092626701A
:10195000042565700120A0706A46E11C18A000F003
:1019600075F8684607883F1DF8B226547F1CF8B208
:1019700025547F1C0220F9B260547F1C6A46F8B2DD
:10198000211800BF13A000F061F8684600883818DD
:10199000401CC1B26654401CC1B26554401C0321B6
:1019A000C2B2A1546A46401CC0B221180EA000F079
:1019B0004DF8200000F070FA029908602000FEBD8A
:1019C00053544D6963726F656C656374726F6E69B1
:1019D0006373000053544D33322055534220446505
:1019E00076696365000000003030303030303030D0
:1019F000303030310000000038B50400114D0920AE
:101A0000287004206870280000F046FA2060280042
:101A100032BD30B5020000230020084C5C255D4338
:101A20006419257B954204D1257D8D4201D15A2030
:101A3000205C5B1C032BF0D330BD000014000020A1
:101A4000642F00208031002001207047002800D141
:101A5000704730B50023040001E05B1C641C25784E
:101A6000002DFAD1DBB213800B70012203E0D4B257
:101A70000B55521C401C0378002BF8D130BDFFB52C
:101A800083B00400002601969020400025186E6067
:101A90002E6012200499087001200499487004985F
:101AA000E549086004988021890081700221C17095
:101AB000E14801680E714E718E714020C871DF4A95
:101AC0000A7204224A72DC490968DD4A8A72572286
:101AD000CA72D9490968C2000A7302224A73D649F8
:101AE000096801228A730227CF7303220A74012234
:101AF0004A742968123129606A46127E012A17D178
:101B0000049A51180A220A7006224A70CA4A516081
:101B1000C2008A700222CA70C74949680E714E71AC
:101B20008E71C871012008724E7228680A302860D0
:101B30006068022801D8A168022900D960E10599EE
:101B4000019A895C002900D15AE1049A2B68D218C5
:101B500002926A4611705C214143220018325258A9
:101B6000002A2FD1611808612000183061685C22BA
:101B700051430122425020000C3061685C225143E5
:101B80006A46127842546846007E207060680028D9
:101B900011D1029809210170477000218170C17034
:101BA0000171012141718671C021C1711921017238
:101BB00068680930686020000C3061685C2251431D
:101BC000405C022800D015E10020002109E0401C03
:101BD000521C230020335C274F43DB599A42F6D333
:101BE000491CA268914201D20022F2E7022721009B
:101BF000203163685C225343CF5021005A3163681F
:101C00005343C85421005B3163685343401CC8549C
:101C100060685C21484320180321C1616846007E4A
:101C2000012807D13B0202220121200000F00AF91D
:101C30003B0206E0402302220121200000F002F9CD
:101C4000402302228121200000F0FCF80823032217
:101C50008221200000F0F6F8029800906968401890
:101C6000092101700421417021005A3162685C230E
:101C70005A43895C8170C670012202714771877175
:101C8000C2710672686809306860009909180520F9
:101C90000870242048708E70B433CB7001230B7110
:101CA0006968491D6960009B591805230B704870CD
:101CB0008A70CE7022005B32944663685C22534384
:101CC0006246D25C0A716968491D6960009A5118C0
:101CD00004220A7048708F70CF706968091D6960AE
:101CE000009A511805220A7048700620887020005A
:101CF0005A3062685C235A43805CC87020005B30B5
:101D000062685A43805C08716868401D6860009989
:101D10000818072101700521417061685C22514358
:101D200061183022895C81700321C170424988604A
:101D300062685A43A218528E0271120A427105203B
:101D40008A6890716868C01D6860009A101809223E
:101D500002700422427063685C2253436246D25C84
:101D60008270C67007710A2242718671C67106724E
:101D7000686809306860009A10180722027005220E
:101D8000427062685C235A43A2182423D25C82709A
:101D9000C770886062685C235A43A218D28C0271B3
:101DA000120A42718A6896716868C01D6860009A5C
:101DB0001018072202700522427062685A43A21866
:101DC0002A23D25C8270C770886062685C235A43A1
:101DD000A218928D0271120A427189688E71686828
:101DE000C01D686000980179891C01716968817063
:101DF000090AC1706068401C6060A068401CA06057
:101E00000198401CC0B20190022800D890E60A4810
:101E10000068A168012905D9EF21017147710121ED
:101E2000817106E005990978022902D1077147718D
:101E30008671049807B0F0BD68310020830400006B
:101E400010570000F0B5002600E0761C44685C25C1
:101E50006C430719062474433D19FF69BE4203D23F
:101E60002827EF5D002FF0D12426A95541685C2575
:101E700069434118091925254A5541685C22514397
:101E800041180919CB844168514340180019282191
:101E900001224254F0BDFEE7431C0178401C094278
:101EA000FBD1C01A7047FEE738B5040001D101200C
:101EB00032BD250084356868002803D128702000D1
:101EC00000F0BEFA24206860206801680122914376
:101ED0000160A06A002802D0200000F049F920002B
:101EE00000F086F8012811D020684168084A0A40AD
:101EF0004260206881682A229143816020680168DD
:101F000001220A430260200000F0A0F932BD000067
:101F1000FFB7FFFFF1B584B01F0006465436706B63
:101F2000202861D10C000FD068460280002A0BD017
:101F30000498806880214901884207D1049800698B
:101F4000002803D1E00701D501204EE00025F5630C
:101F50002120706300F076FA010068460088308026
:101F60006846008870803A000498806880235B018E
:101F7000984209D104980069002805D12500049FE2
:101F80000192029104001AE02000F8E721788162B2
:101F9000641C11E001980090029B0022802138000F
:101FA00000F0BCF900281BD13868002CEED129883C
:101FB000C905C90D8162AD1C7088401E7080708893
:101FC0000028E7D13800029B0199009100224021AE
:101FD00000F0A4F9002803D120207063002004E061
:101FE00020207063032000E0022005B0F0BD000057
:101FF000F8B5050000260024286801688E4A0A40CA
:10200000A96811432A690A4369691143EA690A43C5
:1020100002604168894A0A40E96811434160816869
:10202000874A0A40A96911432A6A0A438260C16A41
:102030000F2291436A6A0A43C262824A1021824B8C
:1020400098420FD1506D8007800F0ED0022803D028
:1020500004D3032804D009E0022107E0042105E0AD
:10206000082103E0A54B984200D1002100910727E9
:10207000A34980200002EB698342009B32D1002BF0
:1020800006D0022B23D0042B29D0082B04D059E0F2
:1020900000F028FC002856D0696800912EA16A6AD9
:1020A0005200895A00F042FC40000099490840184B
:1020B000009900F03BFC01001039924A914241D254
:1020C00002404008074017432868C7603BE008000B
:1020D000116849093940491C00F028FCDAE700F092
:1020E000BFFBD7E7002B06D0022B20D0042B26D035
:1020F000082B04D026E000F0F5FB002823D0696807
:10210000009100BF14A16A6A5200895A00F00EFCC7
:10211000009949084018009900F008FC01001039A6
:10212000784A91420ED280B22968C8600BE008005C
:10213000116849090F40791C00F0F8FBDDE700F059
:102140008FFBDAE7012428006830012141800180FB
:10215000C66006612000F2BD010002000400060016
:1021600008000A000C001000200040008000000160
:102170002821415C090706D501684A68624B134073
:10218000826B1A434A602821415CC90706D5016861
:102190004A685E4B1340C26A1A434A602821415C78
:1021A000890706D501684A68594B1340026B1A43E8
:1021B0004A602821415C490706D501684A68554BA9
:1021C0001340426B1A434A602821415CC90606D578
:1021D00001688A68504B1340C26B1A438A602821F9
:1021E000415C890606D501688A68754B1340026C0C
:1021F0001A438A602821415C490611D501684A6862
:10220000704B1340426C1A434A60426C80235B035C
:102210009A4205D14A686C4B1340826C1A434A605B
:102220002821415C090606D501684A68674B1340BE
:10223000C06C184348607047F369FFCFFFCFFFFFC2
:10224000FFF4FF110010024000380140FEB5060007
:10225000370084370024FC6000F0F4F8019020255A
:1022600030680068000717D559480090019B00228C
:102270002904300000F052F800280DD0EFF3108050
:10228000012181F3108831680A6880239A430A602B
:1022900080F310887D6026E030680068400725D50F
:1022A0004B480090019B00226904300000F036F892
:1022B00000281BD0EFF31080012181F310883168D2
:1022C0000A68444B13400B6080F31088EFF31080D2
:1022D000012181F3108831688A6801239A438A605A
:1022E00080F31088BD603C700320FEBD7D60BD6042
:1022F000F46634673C700020FEBD000000440040DE
:10230000006CDC02F0FF0000FF7FFFFFFFFFFDFF1E
:10231000FFFFFEFFFFFFFBFFFFEFFFFFFEB5802784
:102320003F010825002604000191684602700293CF
:102330002068C069019901400198814201D10120C2
:1023400000E0002069460978884236D108980021CB
:10235000C9438842ECD000F075F80299401A0899F8
:10236000814201D3002901D10320FEBD206800680D
:102370004007DDD501988028DAD04028D8D02068E1
:10238000C0692840206803D1C0693840D0D009E036
:102390000562200000F020F820008430C56006703F
:1023A0000120FEBD20680762200000F015F8200023
:1023B00084302021C1600670D6E70020FEBD0000F9
:1023C000FFDFFFFFFFFFEFFFFFFF9FFFFFFFF7FFB5
:1023D000FFFFFF01DFFEFFFF10B5EFF310810122C9
:1023E00082F3108802681368134C1C40146081F358
:1023F0001088EFF31081012282F31088026893683D
:102400000E4C1C40946081F31088C16E01290BD1E1
:10241000EFF31081012282F3108802681368102400
:10242000A343136081F3108820218C228150002166
:10243000C166416710BD0000DFFEFFFFFEFFFFEF3A
:102440007047FEE701484068704700BF0000002069
:10245000F1B582B0002856D0A24C0078C00708D54C
:10246000A1680298406838220A40082A4DD1002805
:1024700049D002980078800726D5A2680298C068E3
:1024800099499A4E3823134074D100283BD0606894
:1024900006400298406900023043606020680140B5
:1024A0000298006908432060914801212268920443
:1024B000520F914000F03AFA884908608848006855
:1024C00000F050FA00281ED10127FF433826029859
:1024D0000078000707D502988069A1683140182963
:1024E0007CD100280FD0042002990968014000D156
:1024F000C8E002998968A2681640202E00D08FE0BB
:10250000002900D0BEE00120FEBD802149028842A2
:1025100007D0A022D2029042206805D18A0002434F
:1025200022602068014305E0724901402160206873
:102530007149014021608025AD0202984068002861
:102540000CD0FFF77FFF06002068284091D1FFF7ED
:1025500079FF801B6528F7D30320FEBDFFF772FFCC
:1025600006002068284084D0FFF76CFF801B652898
:10257000F7D3F1E7220D0092002820681ED0014019
:102580000298006908432060206891080143216097
:10259000FFF758FF029D070020680099014005D110
:1025A000FFF750FFC01B0228F6D9D5E76068064048
:1025B0006869000230436060029585E7A7490140E1
:1025C0002160FFF73FFF0500206800990140F4D02B
:1025D000FFF738FF401B0228F6D9BDE70028206E20
:1025E0000FD0012101432166FFF72CFF0500206E6B
:1025F000800700D577E7FFF725FF401B0228F6D9B3
:10260000AAE738402066FFF71DFF0500206E80070F
:1026100000D468E7FFF716FF401B0228F6D99BE7B6
:102620000122012904D0052906D1E16D0843E065A6
:10263000E06D0243E26506E0E06D0740E765E06DAE
:1026400004218843E06502260298806800280CD0A7
:10265000FFF7F8FE0500E06D304013D1FFF7F2FE02
:10266000401B97498842F6D376E7FFF7EBFE05005B
:10267000E06D304006D0FFF7E5FE401B90498842F0
:10268000F6D369E702980078C00624D58026360480
:102690000298C069002820680ED0710801432160AB
:1026A000FFF7D0FE05002068304014D1FFF7CAFEC6
:1026B000401B0228F7D94FE7914901402160FFF7FD
:1026C000C1FE05002068304005D0FFF7BBFE401B6F
:1026D0000228F7D940E70020FEBD000010000020CE
:1026E0000800002000100240FFC7FFFFFF80FFFF2F
:1026F000006CDC02FFFFFEFFFFFFFBFFF8B50700E9
:102700006ED000917F4800684007400F884218D281
:102710007C4E306807218843009901433160FFF700
:1027200091FE009C050030684007400FA04207D092
:10273000FFF788FE401B62498842F4D30320F2BDB4
:1027400000943968704D022001420ED0490706D529
:10275000A9686E4A0A40B02109011143A960A9681D
:102760006B4A0A40F9681143A9600726F643397895
:10277000C90738D529681C229143BA680A432A60E0
:102780007968012918D12868800329D5A8683040C4
:102790000143A960FFF756FE3C000700A8683821F6
:1027A00001406068C00081421CD0FFF74BFEC01B97
:1027B00043498842F2D3C1E7002902D12868400585
:1027C00003E0022903D128680002DFD408E00329CE
:1027D00003D12A6E1040D9D102E0EA6D1040D5D164
:1027E0000120F2BD27000098464909684907490FB2
:1027F000884217D243480068064000983043414958
:102800000860FFF71FFE009C06003E480068400776
:10281000400FA04206D0FFF715FE801B28498842D2
:10282000F3D38BE73878400705D5A86837490140CE
:1028300038690843A86000F013F83649AA68120501
:10284000120F9200895CC906C90EC840324908605F
:102850003248006800F086F8F2BD0000FFFEFFFF7E
:1028600030B507222849086884081440641C2D48A4
:1028700038238D681D4007D10B680121DB0A1A40FF
:10288000914000F053F816E08A681A40082A12D0E6
:102890008A681A40202A02D1802000020BE08A6850
:1028A0001A40182A02D1FA20C00104E089680B40BE
:1028B000102B00D00020210000F038F830BD0000BF
:1028C0008913000080B5FFF7CBFF15490968114A4D
:1028D0000905090F8900515CC906C90EC8400E4997
:1028E000086002BD80B5FFF7EDFF0F490C4A126882
:1028F0005204520F9200895CC906C90EC84002BD3D
:10290000FFFFBFFF0020024000100240FF8FFFFFCB
:10291000FFF0FFFFDC40000810000020080000204E
:1029200008100240006CDC021C420008094214D06E
:1029300088420FD30122030C01D1000412040023AA
:1029400000185B418B4200D35B1A5241F8D3190047
:102950001000704701000020704708B500F028F80B
:1029600008BDFEE770B5060000240F4D2978002948
:1029700016D0FA208000FFF7D9FF01000B4800684D
:10298000FFF7D4FF00F041F8002809D1042E07D248
:10299000002231000020C04300F029F8AE6000E0C2
:1029A0000124200070BD00BF0000002010000020A6
:1029B0007047FEE710B5C30018221A40FF24944068
:1029C000E3438907090E9140020004D41948920894
:1029D0009200801806E0184A0007000F08388008A7
:1029E00080001018026813401943016010BD80B5C3
:1029F000FFF7E0FF01BD0000010005D40121C00682
:102A0000C00E81400D480160704710B5401E802106
:102A10004904884201D3012010BD094C60600321A4
:102A20000020C043FFF7C6FF0020A06007212160FF
:102A300010BD000000E400E01CED00E000E100E05B
:102A400010E000E00100202008437047F8B596B080
:102A50001C9C049103A92B254C5500210A9102903E
:102A60000E9200930CE00498029A9047049000287C
:102A700000D148E10A98401C0A900E98401C0E9024
:102A80000E98017800290CD02529ECD10020079060
:102A900008900990022608210191012504210E9C2D
:102AA00002E00A9831E12843641C2278202AFAD0F7
:102AB000232A0AD02B2A04D02D2A04D0302A08D069
:102AC0000AE03043F0E70843EEE702000820104335
:102AD000EAE702001020FAE72A2A0ED1009A1368CA
:102AE0001A681F1D009B1F600C92002A03D55342D9
:102AF0000C9301430800641C15E000210C9101496E
:102B00000CE000BFCBCCCC0C0C9A8A4205DA9700C3
:102B1000BA185200D218303A0C92641C23781A006A
:102B2000303A0A2AF0D321782E2903D00021C94354
:102B30000B9126E0641C21782A2908D100990A68A3
:102B40001168121D009B1A600B91641C19E02D295D
:102B500001D1641C00E0002100220B920CE000294E
:102B600009D10B9ABD4FBA4205DA9700BA18520044
:102B7000D218303A0B92641C23781A00303A0A2A91
:102B8000EDD303A908852778390000BFB4A000F071
:102B900017FA002801D03800641C03AF2A217854AA
:102BA000785C682805D12078682802D162207854A2
:102BB000641C10A806902278601C0E90252A1AD05A
:102BC000582A00D1C8E0632A00D12FE1642A00D13D
:102BD000F5E0692A00D1F2E06F2A00D1BCE0702A4A
:102BE00000D1ABE0732A0BD0752A00D1B4E0782A6B
:102BF00000D1B1E025E10795402169440A7013E056
:102C0000009800680468001D009908600594002C75
:102C100000D080E02B20385C002878D092A000F013
:102C2000D9F9414201296ED10C980799401A0999A6
:102C3000401A0899401A0F902820385C400712D497
:102C40002020694608710F9800280CDD0F9C029D1A
:102C5000012301AA03A9280000F094F9002852D109
:102C6000641EF5D10295079D10AC002D0DD0029E7B
:102C700021780498B0470490002844D00A98401C5A
:102C80000A90641C6D1EF3D10296302069460871CB
:102C9000099C002C0BDD029D012301AA03A9280039
:102CA00000F070F900282ED1641EF5D10295059C24
:102CB000089D002D0DD0029E21780498B047049005
:102CC000002820D00A98401C0A90641C6D1EF3D185
:102CD00002962820385C400700D4D1E620206946BF
:102CE00008710F98002800DCCAE60F9C029D0123A2
:102CF00001AA03A9280000F045F9002803D1641EA9
:102D0000F5D10295BCE60020C04317B0F0BD00BF6E
:102D1000AAA0059088E70B9D002D03D52000FFF7A2
:102D2000BBF809E02A000021200000F077F9002814
:102D300001D0001B00E02800089075E700980168AA
:102D40000868091D009A1160039010A80590782169
:102D500003A800F097F867E7785C622803D068283A
:102D600009D06C280FE0009801680868091D009BD5
:102D70001960C0B20DE0009801680868091D009B49
:102D8000196080B205E0009801680868091D009B81
:102D900019600390388D0199C0B2084240D0039861
:102DA00000283DD020201043782839D1079810A959
:102DB00030230B54401C431C07930A5430E0785CCA
:102DC000622803D0682809D06C280FE000980168B9
:102DD0000868091D009B196040B20DE00098016869
:102DE0000868091D009B196000B205E000980168A1
:102DF0000868091D009B19600390002802D50798F8
:102E00002D2109E0388D304202D007982B2103E0B4
:102E1000C00705D50798202110AB1954401C079016
:102E200010A8079940180590110091E707950098A0
:102E300001680868091D009A116040216944087002
:102E4000F2E607952520402169440870100000D162
:102E5000EAE6079610A84270E6E60000CBCCCC0C60
:102E6000686C747A4C0000007072696E74665F73EF
:102E70003A2062616420257320617267756D656E0A
:102E800074000000F0B583B005000C00E868019004
:102E900020006F2801D1082606E0FFF7D3FD78282F
:102EA00001D00A2600E01026182728680100642CAB
:102EB00001D0692C03D1002801D548420100002926
:102EC0000DD1286A00280AD1082E36D12820285C86
:102ED000000732D5172730200199C8752DE00295DB
:102EE00068460470019C0D007F1E01972800310088
:102EF000FFF71CFD30313A2907DAE155280031008F
:102F0000FFF714FD05000AD004E068460078411878
:102F1000AF31F2E702988068E1198842E4D3029D5C
:102F20000194082E09D12820285C000705D5E05D12
:102F3000302802D07F1E3020E0551820C01B686169
:102F40000199C919A960296A884206DA081AA86194
:102F5000288D0B490140298510E000290ED5282134
:102F6000695C14220A40102A08D1696A2A69891A00
:102F7000AA69891A081A012800DBA86103B0F0BD0C
:102F8000EFFF0000F8B50024002B11D007000E0061
:102F900014001D0021787068B8477060002809D0BF
:102FA000F069401CF0610020641C6D1EF2D1040029
:102FB0002000F2BD0020C043F9E700000000FEE75A
:102FC000C9B202788A4203D0401C002AF9D10020FD
:102FD0007047FEE780B5002801D100BF07A0064971
:102FE0000B68002B03D022220021984701E000F05B
:102FF00020F8222002BD00007C310020636F6E7338
:10300000747261696E742068616E646C65723A20D6
:10301000626164206D65737361676500C9B2521E99
:1030200005D30378401C8B42F9D1401E7047002025
:10303000704780B5012000F001F801BD80B500BFE8
:1030400000BF024A11001820ABBEFBE726000200B9
:1030500070B586B00500002000240121754A2B00C0
:1030600004D0012D09D00124E44324E013680B436C
:10307000136012680A40009206E0042316681E439B
:103080001660126813400093009A00BF21A36E00DF
:103090009B5B0193029103900320049001A9664871
:1030A000AA00805800F000F9012D04D1012251023C
:1030B000714800F0A1F9200006B070BD10B50024E1
:1030C000010004D0012807D00124E4430BE00122D1
:1030D0002021A020C00504E000228021890056485C
:1030E000406800F089F9200010BD000010B50024F0
:1030F000010004D0012802D00124E44308E000BF0D
:1031000004A14200895A4C4A8000105800F07AF914
:10311000200010BD20000002F8B586B00422454B07
:103120001C6814431C601B681A400092009A070038
:103130005AA07A00805A0190012003900220049046
:10314000BE004E4DAC192068002904D1029101A99E
:1031500000F0AAF820E04A49029101A900F0A4F881
:1031600048480C2179434018009000BF4DA0815978
:10317000009800F06DF9281D82590021009800F098
:1031800057F900BF46A0C5570022A1682800FFF7E5
:103190002EFC2800FFF730FC002007B0F0BD000037
:1031A00080B538490C225043081800F058F901BD89
:1031B000F0B587B00024002801D0012434E0069146
:1031C00001251C48016829430160016829400091DC
:1031D0000099016829430160016829400091009924
:1031E000690482680A438260806801400091009807
:1031F0000420019002260296049603950595A027C7
:10320000FF0501A9380000F04FF808200190029650
:10321000059501A9380000F047F806991A4800F012
:1032200041F9002801D00324E443200007B0F0BD99
:1032300000000000341002409C42000870B51400E9
:1032400000250E0004E0307800F006F8761C6D1CB6
:10325000A542F8D3200070BD31B5FA239B000122AE
:1032600069460948094C247894256C430019FEF7F7
:1032700051FE009832BD0000000800509042000846
:10328000000021105C3100206430002082310020D9
:1032900080B5002000F091F901BD00000020000081
:1032A000070000000D000006FCB50A000023012104
:1032B000009101002CE0062003E056488142FAD13B
:1032C0000520A8403843206053480468F043044078
:1032D0005568ED0300D534434F4D2C606C680440B5
:1032E0005768BF0300D534436C604C4C24680440DD
:1032F0005568ED0200D53443484D2C606C68204081
:103300005468A40202D504003000204368605B1CAE
:1033100010680400DC406ED0009C9C40019426465E
:103320000640F4D05068022801D012280FD1D808E6
:1033300080000C18206A9F001C253D400F27AF40DD
:10334000B843177C3F073F0FAF40074327620D6824
:10335000580003278740FC4325401779BF07BF0F5C
:1033600087402F430F605568012D05D0022D03D0F3
:10337000112D01D0122D11D18D682540D7688740BD
:103380002F438F604D68019FBD43AC4655682D09A2
:10339000009F2F409F4065462F434F605568032D87
:1033A00005D0CD682C40956885402543CD60506898
:1033B000C000ACD51A489C08A40004192768D8009E
:1033C000182505400F20A8408743A020C005814252
:1033D00001D1002075E71348814201D1009870E7C0
:1033E0001148814201D102206BE71048814200D090
:1033F00063E7032065E7F3BD002A01D081617047D0
:103400008162704742690B0013401B0491431943CA
:10341000816170470014005080180240001802407B
:10342000601802400004005000080050000C0050DA
:1034300003000020002903D0022905D002D305E0B3
:103440005A6001E05A6070479A60704701207047E7
:10345000002801D10120704701600020704770B53D
:10346000040021680125080C2840C906C90E8D40BA
:1034700046010A4880190168294004D00560606847
:10348000002800D08047064880190168294004D0F0
:103490000560A068002800D0804770BD0C1802406D
:1034A0001018024080B50D4A126802600A68426036
:1034B0000C2242610A228A5E02614A688260082206
:1034C0008A5EC2600C22895E816180210902C1612D
:1034D00000214162FEF7E8FC02BD00BF0C000020A5
:1034E00038B500F08DF800F039F800F097F800F0EA
:1034F000ABF80020FFF7ACFD0120FFF7A9FD01218B
:103500000020FFF709FE304CE1204002206000253A
:1035100065600020A060A0812100FFF749FE00281F
:1035200001D000F055F800BF33A100BF29A000F082
:10353000E9F800BF29A000F0E5F80020FFF7BEFD84
:103540000120FFF7BBFD20690128FCD12561002087
:10355000FFF7CCFD0120FFF7C9FDF4E718B58DB0EA
:10356000202105A800F0E2F81421684600F0DEF8FA
:10357000012416480168072291432143016011206C
:1035800005902004069080010C9005A8FEF760FFCE
:10359000002801D000F01CF80720009001940020C2
:1035A00002900390049001216846FFF7A7F80028D5
:1035B00001D000F00DF80EB010BD002802D101209E
:1035C0000149086170470000483100200020024096
:1035D00072B6FEE725730A0D0000000057656C63A4
:1035E0006F6D6520746F2053544D333220776F72A6
:1035F0006C6420210A0D000056302E302E31000060
:1036000010B500240320FFF7ADF9002801D00124F4
:1036100001E000F093F8200010BDFEE781B020200B
:1036200008490A6802430A600A681040009000983E
:1036300001200A6802430A60096808400090009867
:1036400001B0704734100240F0B589B0234C00231C
:103650000022C02149012000103000F0D7F80028D6
:1036600038D108A90120FEF745F9070007A9002075
:10367000FEF740F9050006A8FEF762F9060005A866
:10368000FEF7BAF90021049105990391029006987A
:1036900001900096079B2A000899380000F0C0F8B6
:1036A000002817D10E4820600E4860600E48A060C8
:1036B00000210220FEF7C8F9E06000210220FEF799
:1036C000A8F903000094E2680849094800F090F95D
:1036D000002800D0FF2009B0F0BD000074040020D5
:1036E000931600089516000897160008E53F000895
:1036F00000040020EFF3108072B6704780F310884A
:103700007047FEE70EB4C0B5020003A80190002088
:10371000009001AB0121044878440C30FFF796F982
:10372000029906B0084700BF310B0000002200BF1D
:10373000094202D0491E4254FCD1704781B00A4868
:10374000012142680A434260426811400091009999
:103750008021490502680A43026000680140009127
:10376000009801B0704700BF3C100240FEB5040055
:103770001E00002C02D00191002901D1FA20FEBDCB
:1037800015000A46002100F065F9200018301D4997
:103790000860C42040002118216014300096002DDC
:1037A00006D0002E04D020186060D820400000E031
:1037B0006160154E34600727FF432118C91D394049
:1037C00001982018814214D2421A206800F04CF966
:1037D000002D15D00098002812D0024600212800A4
:1037E00000F038F9E81D0740390000982818814298
:1037F00001D31220FEBD421A3068406800F034F94F
:103800000020FEBD743100207831002080B50028F2
:1038100001D0002901D1FA2002BDFFF7A7FF02BDA8
:10382000FFB587B010981199129A139B149C6F4D95
:103830002D682E00243600962E00D436079FB760E0
:10384000089FF760099F37600A9F77603061716158
:10385000B261F361B22040002C50642200210020AC
:1038600000F020F9002801D11220BCE05F4909686E
:10387000FC228850121D0121002000F013F90028BD
:1038800001D1122700E0002700994431039108601C
:10389000002001900021002F44D1544A1368D433F2
:1038A0001A685B68002400250026029614E0069C36
:1038B0000194029C049D854200D328000025002627
:1038C00007E01779B74200D33E0097788F4200D3C4
:1038D0003900059FDB1BD219AF190497019FBC4229
:1038E00000D32700069700270297002B0DD01778EA
:1038F00005975778022FDAD0042FEAD1D778002F16
:10390000DFD1049D1679641CDFE7049E864200D255
:103910000600069A002A06D142220321022000F066
:1039200029F942274BE01227102905D3122203213F
:10393000022000F01FF942E0039842650398C66533
:1039400020230021002000F023F9002837D003991C
:103950000865002E01D1002045E0682332000021D7
:10396000002000F015F9002829D00099443188651D
:103970000400009D00E0683428004430806D682118
:10398000714340188442E6D2802292000121002037
:1039900000F088F8E0620028EDD10095002C0ED0F0
:1039A00005E0E06A002801D000F008F9683C280032
:1039B0004430806D8442F4D2009500F0FFF8009806
:1039C0004430006D002801D000F0F8F80098406CF9
:1039D000002801D000F0F2F804480068FC214058AB
:1039E00000F0ECF838000BB0F0BD0000743100209E
:1039F000F9B58DB00F001600002000903F226946F7
:103A00000D9800F003F900281FD111480068FC212F
:103A10004458206C002817D1149D009A521C0D990F
:103A20002000FDF743FE67646565E6650E98A065B6
:103A3000052001900A95099401A8B847002804D1EF
:103A400001202064002000E012200FB0F0BD000033
:103A5000743100200B00110000D1704780B51A00AE
:103A6000FFF766FE01BDFEE770B504000D0016000D
:103A700014220021FFF7EEFF03208643E560266154
:103A8000A56030000838206002206060A819001F7F
:103A90000460001F0560286001486860002070BD58
:103AA000EEEEFFFFF8B5002903D1304909680D6833
:103AB00004E0012906D12D4909684D68002D01D087
:103AC000002A01D10020F2BD06000020C04386423A
:103AD00001D0072E00D20726D21D072082431700EF
:103AE000082E01D2390000E0B919280000F0A6F82C
:103AF000040005D112220821022000F03BF8E1E782
:103B00002068021B083A21000831194B31420CD0C1
:103B100089190831B143083908604B606868401C56
:103B200068602160501A02190C00D01B14280AD3B7
:103B300020000830C0192168016043606968491C91
:103B4000696020603A0065602868801A083828603B
:103B5000A868844201D12068A860002120000830B4
:103B6000FFF778FF20000830F2BD00BF7831002059
:103B7000EEEEFFFF10B5054B1B68DA601C69641C94
:103B80001C615B69002B00D0984710BD7831002084
:103B9000F8B504000F0015001E0008D00020C04337
:103BA0003100FEF7C3FEA84201D20020F2BD390069
:103BB000200075432A00FFF775FFF2BD10B50028FD
:103BC00019D008380F4A4168914214D0002912D008
:103BD0000D4B1B681C68A14202D05B6899420AD158
:103BE00042600A680368D218121A0A608A68904212
:103BF00000D2886010BD192208210220FFF7BAFF09
:103C000010BD00BFEEEEFFFF7831002010B5002898
:103C100011D00023C45C002C03D05B1C9A42F9D263
:103C200004E0002900D00B60002010BDFF22082115
:103C30000220FFF79FFFFF2010BDFEE7FEB5002228
:103C4000009244680268A31EDB00D21891423DD264
:103C50008668C3689E4239D305695B19B34235D380
:103C6000621C00231A4D029131004E68AE4226D1EB
:103C7000009B002B02D18160012300930B6801930C
:103C80005B1A083B029EB3421BD20023019E36689A
:103C9000019F7F68AF4207D10E60641E8668019F56
:103CA000BE4205D1816003E03100002A05D0521EDA
:103CB000002A06D0521ED8D103E0446006E009680D
:103CC000F6E7020008005460002B00D10020FEBD82
:103CD000EEEEFFFFF2B50400170000250026483085
:103CE0008021009A521E0BD0521E12D0521E1AD0A2
:103CF000521E22D0521E1BD0D21E012A38D949E0B2
:103D0000396861643979017079794170B979817064
:103D100046E0616C39604821615C397141787971A4
:103D20008078B8713CE001793970C078787037E0FC
:103D3000397801717978C17032E02068C069012F4B
:103D400002D0022F04D008E0827B0A4206D102E0B2
:103D5000827B0A4202D0406900E0532604212030D1
:103D600000F020F8012F01D1256419E0256217E049
:103D70002068C069009A082A00D08025827B114003
:103D8000A94200D04069016A012901D1FF2607E05C
:103D9000476505E0542207210220FFF7EBFE542679
:103DA0003000F2BD70B505000C4804686962FFF789
:103DB000A1FC0600286801280AD12A000D21200054
:103DC000A36998473000FFF799FC0420286002E0BF
:103DD0003000FFF793FC002070BD00BF743100205D
:103DE000FEB504000025606C012803D16562042043
:103DF0002063FEBD29480068436A012B06D0022BD0
:103E000004D0032B02D02520606244E00190A66814
:103E10000327206B002804D0202829D0212831D066
:103E200039E0F07B384206D0B07B000601D5032094
:103E300000E00220A0620091A06A03280BD108468E
:103E4000002808D0824206D0318AFEF76FFD481E56
:103E50008041C00F00E00020A063A5610098606170
:103E60000098E061E068206101202060202020634C
:103E7000F07B384204D07068022801D10520FEBDD5
:103E80002120206322000C2101988369984705288E
:103E900003D22563FEBD25630120FEBD74310020E1
:103EA000FEB5006A876C2C4804685C343D20205CB9
:103EB000029020003E30FDF703FC06002000423057
:103EC000FDF7FEFB009001903D0048350298202848
:103ED00031D03ED3222801D012D33AE00021002075
:103EE000297101210E4200D00120E870B00700D5F1
:103EF0002971F968002901D0380088470020FEBDEB
:103F00000098072801D907200190796CE06800F03B
:103F100025F84820385CE16808716878E1684871E4
:103F2000A878E16888710320A062009A01992000B6
:103F300000F01CF8E2E7E068FDF7D1FC7864E06887
:103F400000792870E06840796870E0688079A8702E
:103F5000CFE7FF20FEBD00BF7431002001700A0AC8
:103F600042700A0C8270090EC170704710B50400CF
:103F7000002020632000FFF733FF062801D1FE2038
:103F800010BD042801D2606A10BD002010BD38B5F4
:103F9000006A846C2068C0694169827B120602D481
:103FA0000500080000E00D00262100F015F826218C
:103FB000280000F011F8002207212000FFF78AFEF8
:103FC000A168002901D02000884720004B30002143
:103FD00001704170002032BD80B52030FFF7E2FE55
:103FE000002002BD80B50168491E06291CD801A227
:103FF000525C97441220262C06320C0000F016F872
:1040000002BD00F033F802BD40690A2801D100204A
:1040100002BD572002BD00F032F802BDFFF7B7FF26
:1040200002BDFFF73DFF02BD542002BD38B50400BC
:10403000256A502200210020FFF734FD002801D11D
:10404000122032BDA864616A0A6842604A688260D0
:104050008968C160E1214902416448300121017051
:104060000021417008218170002032BD80B5006AB6
:10407000806C002801D0FFF7A1FD002002BD80B5B3
:104080000100086A806C89688860016041680029C5
:1040900000D08847002002BD80B50D4979443031F9
:1040A0000C4A7A442E32914203D00B4900BF00BF24
:1040B00002BD6946087001220120FFF7BFF8012800
:1040C00002D16846007802BD0020C04302BD00BF97
:1040D00030BFFFF72CBFFFF72804002000000000CE
:1040E00000000000000000000000000000000000D0
:1040F00000000000000000000000000001000000BF
:1041000002000000030000000400000006000000A0
:1041100007000000080000000900000070B4012141
:10412000002213E00368001D0B4202D04D46EB183D
:104130005B1E1A601B1D241F042CFAD21D00A6074B
:1041400001D51A80AD1C0C4000D02A700468001DF7
:10415000002CE7D170BC7047FEE7FEE77047704760
:1041600080B500F00DF801BD80B50020FFF718F80C
:1041700001BD80B50148FBF7C5FF01BD842C0020BF
:1041800002484168027889184160704700000020A9
:1041900010B5074979441831064C7C44163404E0C4
:1041A000081D0A68891888470100A142F8D110BD8E
:1041B000480000006400000000F00FF8002801D063
:1041C000FFF7E6FF00BF00BF002000BF00BF00BF39
:1041D00000BFFFF785F900F002F80120704780B5B5
:1041E00000F002F801BDFEE700F000F8074638468F
:1041F000FEF724FFFBE7000025FFFFFF102D000066
:10420000740400200000000037D4FFFFAC00000061
:10421000E800000000000020FEE7000000000000B1
:10422000000000000000000000000000010000008D
:1042300002000000030000000400000005480146E1
:1042400003B4684680F3098800BF00BF00BF00BF09
:10425000FFF7B2FFA5EDF5FE38B505000C00200014
:10426000FFF71AFFA04200D00025280032BDFEE76C
:104270000148804701480047814200083D4200084C
:1042800080200005014908607047000008ED00E04B
:1042900000080050913200080F000000000000509C
:1042A00000080050FEE7FEE7FEE7FEE7FEE7FEE758
:1042B000FEE7FEE7FEE7FEE70001F9000004FC0070
:1042C00005440040001BB78100810081008100ABE4
:1042D000000002810081008100E2001A75785F739E
:1042E0006C6176655F636C6173735F6364635F6168
:1042F000636D0000010102FC01FD02FC01060000EB
:104300000204010001FD000FF830002048310020B8
:10431000F8300020F8300020FC0003F8300020FCCA
:0C4320000007700400205C040020E00096
:040000050800423D70
:00000001FF
