:020000040800F2
:10000000800500202D1F00088D1E0008911E00088D
:1000100000000000000000000000000000000000E0
:10002000000000000000000000000000951E000815
:100030000000000000000000971E0008991E000844
:10004000D70D00085B1400086F140008C7140008DF
:100050002B1C0008EB1C0008371E0008A11E00081E
:10006000691E0008AB1E00082B1F0008651F000852
:10007000671F0008691F00086B1F00086D1F00083C
:100080006F1F00080000000000000000711F000842
:1000900000000000731F0008751F0008771F00088C
:1000A000791F00087B1F00087D1F00087F1F0008C4
:1000B000811F000800000000000000000000000098
:1000C00010B50400002C01D1012037E0A069002800
:1000D000FFD188202058002805D1002084216054B9
:1000E000200000F001FB2420882160502068006877
:1000F0000121884321680860A06A002802D02000FE
:1001000000F06AF9200000F094F8012801D10120E4
:1001100014E0206840680A49014020684160206876
:1001200080682A218843216888602068006801214E
:10013000014320680160200000F0CAF910BD0000F2
:10014000FFB7FFFFFEB504001D00882020582028BF
:100150006DD10E00002E05D06846028068460088EA
:10016000002801D1012063E080277F01A068B84208
:1001700007D12069002804D13000C00701D5012033
:1001800056E000209021605021208821605000F02E
:10019000CBFA019068460088542160526846008876
:1001A000562160520295A068B84204D12069002807
:1001B00001D1002514E03500002611E028782168DF
:1001C00088626D1C07E0002DF8D13088C005C00D95
:1001D00021688862B61C5620205A401E5621605263
:1001E0005620205A00280ED002980090019B002231
:1001F0008021200000F0EAF90028E4D020208821A6
:100200006050032014E002980090019B00224021DE
:10021000200000F0DBF9002804D020208821605065
:10022000032005E0202088216050002000E002200B
:10023000FEBD70B5040000263500A16820690843A2
:1002400061690143E0690843216809689A4A0A40E4
:100250001043216808602068406898490140E068C0
:10026000084321684860A169206A084321688968B9
:10027000934A0A401043216888602068C06A0F21B1
:100280008843616A01432068C16220688D498842C1
:1002900015D18D4800688007800F002805D00228FE
:1002A00005D006D3032806D007E031000EE0022176
:1002B0000CE004210AE0082108E0102106E0206893
:1002C0008249884201D1310000E0102180200002E3
:1002D000E26982423ED1C9B2002906D0022907D084
:1002E00004290FD0082910D010E000F0C3FC0FE063
:1002F000AA48AB49096849094907490F491C00F058
:10030000E3FC05E000F06EFC02E001E030000125B6
:10031000002855D0A349626A02235A43895A00F043
:10032000D3FC02214843616849084018616800F025
:10033000CBFC9D490200103A8A4209D202001140CA
:1003400040084007400F084380B22168C86037E08A
:10035000012535E0C9B2002906D0022907D00429B9
:100360000FD0082910D010E000F084FC0FE08B487B
:100370008B49096849094907490F491C00F0A4FC49
:1003800005E000F02FFC02E001E03000012500282C
:1003900016D08449626A02235A43895A00F094FCB9
:1003A000616849084018616800F08EFC010010394E
:1003B0007D4A914203D280B22168C86000E00125E5
:1003C000012001006A22A152682160526667A66777
:1003D0002800C0B270BD000000B52821415C0907AB
:1003E00007D501684968714A0A40816B1143026868
:1003F00051602821415CC90707D5016849686C4AEA
:100400000A40C16A1143026851602821415C890792
:1004100007D501684968674A0A40016B11430268C1
:1004200051602821415C490707D501684968624A43
:100430000A40416B1143026851602821415CC906A2
:1004400007D5016889685D4A0A40C16B114302689B
:1004500091602821415C890607D501688968584A5E
:100460000A40016C1143026891602821415C4906F1
:1004700014D501684968534A0A40416C1143026827
:100480005160416C80225203914207D10168496852
:100490004D4A0A40816C1143026851602821415C39
:1004A000090607D501684968704A0A40C16C1143C2
:1004B0000068416000BD0000F369FFCFFFCFFFFF80
:1004C000FFF4FF1100380140541002400044004086
:1004D0007CB5040000259020255000F025F9060089
:1004E0002068006800071ED5614800903300002294
:1004F00080218903200000F069F8002813D0EFF371
:100500001080012181F310882168096880229143BD
:100510002268116080F31088202088216050842098
:100520002554032039E02068006840072BD5504847
:100530000090330000228021C903200000F046F81B
:10054000002820D0EFF31080012181F3108821686A
:100550000968484A0A4021680A6080F31088EFF36E
:100560001080012181F3108821688968012291435C
:100570002268916080F3108820208C2160508420B4
:100580002554032009E02020882160508C216050F0
:10059000E566256784202554002076BD006CDC02CA
:1005A00000100240FC1E0008F0FF0000FF7FFFFF6C
:1005B000FFFFFDFFFFFFFEFFFFFFFBFFFFEFFFFF62
:1005C000FFDFFFFFFFFFEFFFFFFF9FFFFEB5040010
:1005D0000F00089D2068C0693840B84201D1012051
:1005E00000E000206946097988423CD10020C043E0
:1005F0008542EFD000F098F80299401A854201D365
:10060000002D01D103202FE0206800684007E1D5CC
:10061000802FDFD0402FDDD008262068C069304011
:10062000002807D1802000012168C9690140002904
:10063000D0D00BE020680662200000F01DF890206A
:10064000265000208421605401200DE021680862BA
:10065000200000F011F8202090216050002084211B
:100660006054032000E00020FEBD0000FFFFF7FF04
:10067000FFFFFF01DFFEFFFF00B5EFF31081012256
:1006800082F3108802681268154B134002681360E9
:1006900081F31088EFF31081012282F31088026841
:1006A0009268104B13400268936081F31088C16E0A
:1006B00001290CD1EFF31081012282F31088026826
:1006C000126810239A4303681A6081F3108820216E
:1006D0008C2281500021C166416700BD00000000EE
:1006E000DFFEFFFFFEFFFFEF704730B501684118E6
:1006F000446862088A188368E40704D54C461B19CD
:1007000001E0641C09D1914203D00C7864B2491C09
:1007100001E00C3030BD0D78491C1D705B1C002CB5
:10072000EFD4641EF7D5EEE701480068704700BFBC
:1007300074010020F8B50400002C01D101206EE105
:1007400001252068284000284BD0B5480168382092
:100750000840082804D16068002842D101205EE1E9
:10076000802040026168814204D1AE490A6810438A
:10077000086017E06168A022D202914209D1A9491C
:100780000A688023DB0213430B600A681043086089
:1007900008E0A4480168A44A0A4002600168A34A2C
:1007A0000A400260606800280DD0FFF7BDFF060018
:1007B0009C480068800314D4FFF7B6FF801B6528AF
:1007C000F6D303202BE1FFF7AFFF06009548006842
:1007D000800306D5FFF7A8FF801B6528F6D303200A
:1007E0001DE12078800752D58D48016838200840E7
:1007F000002828D1E168002901D101200FE18C49AE
:100800000A688C4B1340626912021A430A6000287E
:1008100011D184490868884A024020691043086061
:1008200086480968C90A4A07520F2900914000F01A
:100830004BFA834908608348006800F09DFA00285D
:1008400025D00120EBE0E06800282ED0754E3068FE
:1008500079490140206908433060306880214900AF
:1008600001433160FFF760FF07003068400506D4A0
:10087000FFF75AFFC01B0328F7D30320CFE06C48D3
:1008800001686C4A0A4061690902114301602078DD
:10089000000742D56248006838210140182916D166
:1008A000A069002839D10120B9E05E4E3068664960
:1008B00001403160FFF738FF070030684005E6D59A
:1008C000FFF732FFC01B0328F7D30320A7E0A0697E
:1008D000002810D05D4E306828433060FFF724FFB9
:1008E00007003068800718D4FFF71EFFC01B0328DD
:1008F000F7D3032093E0554E3068012188433060E0
:10090000FFF712FF07003068800706D5FFF70CFFDE
:10091000C01B0328F7D3032081E004202168014095
:10092000002950D000263E49096838220A40202A72
:1009300004D1A068002846D1012070E0A1680129F7
:1009400004D1A44801680D43056013E0A16805299E
:1009500007D1A0490A6810430860086805430D6084
:1009600008E09C480168012291430160016804226B
:1009700091430160A06800280ED0FFF7D5FE050066
:1009800094480068800716D4FFF7CEFE401B9249BA
:100990008842F5D3032042E0FFF7C6FE05008D48EC
:1009A0000068800707D5FFF7BFFE401B8A498842D1
:1009B000F5D3032033E0F6B2012E04D18748016855
:1009C000874A0A4002602078C00627D5E0690028DF
:1009D00012D0144D28688021C90301432960FFF714
:1009E000A3FE04002868000218D4FFF79DFE001B38
:1009F0000328F7D3032012E00A4D2868A5490140D7
:100A00002960FFF791FE04002868000206D5FFF771
:100A10008BFE001B0328F7D3032000E00020F2BD6B
:100A20000810024000100240FFFFFEFFFFFFFBFF27
:100A300004100240FF80FFFFFFC7FFFF006CDC02D5
:100A40001C00002000000020FFFEFFFF601002409D
:100A5000FEB50400002C01D10120BAE00091072569
:100A60008D4E306828400099884215D230680721A1
:100A70008843009901433160FFF756FE0700306854
:100A800028400099884207D0FFF74EFEC01B52490C
:100A90008842F4D303209CE0022021680140002911
:100AA00011D02178490707D57C490A687C4B13404F
:100AB000B02212011A430A6078490A68794B134040
:100AC000E2681A430A602178C90749D576490A685D
:100AD0001C239A43A36813430B606268012A04D164
:100AE0000868800322D4012073E06268002A04D1E0
:100AF000086840051AD401206BE06268022A04D11C
:100B00000868000212D4012063E06168032906D15D
:100B1000664909680840002808D1012059E02D499C
:100B200009680840002801D1012052E05B4F386875
:100B300007218843616801433960FFF7F5FD0190A3
:100B40003868382101406068C000814208D0FFF752
:100B5000EBFD0199401A20498842F1D3032038E087
:100B6000009831682940884215D2306807218843AF
:100B7000009901433160FFF7D7FD07003068284036
:100B80000099884207D0FFF7CFFDC01B1249884269
:100B9000F4D303201DE02078400706D53F480168C4
:100BA0003F4A0A4021691143016000F01BF84049A7
:100BB0003A4A1268120A1207120F04235A43895C38
:100BC000C906C90EC8403B4908603B48006800F0B0
:100BD000D3F8FEBD5C100240891300003C100240B7
:100BE000FFFFFFEF30B507202F4A11688C08044043
:100BF000641C3821294B1D680D40002D08D10121AE
:100C00001268D20A104081402C4800F05DF81AE0CA
:100C100018680840082801D1284814E018680840DE
:100C2000202802D1802000020DE018680840182812
:100C300002D1FA20C00106E018680140102901D154
:100C40001E4800E00020210000F03EF830BD10B545
:100C5000FFF7C8FF1749164A194B1B681B0A1B07E9
:100C60001B0F04246343D25CD206D20ED04008602E
:100C7000086810BD80B5FFF7EAFF1249104A1268F4
:100C8000120B5207520F04235A43895CC906C90E3E
:100C9000C84002BDFFFFBFFF002002400810024015
:100CA000FF8FFFFFFFF0FFFF0010024060100240C7
:100CB000641D00081C00002000000020006CDC0205
:100CC000081002406C1E00080022030A8B420BD25F
:100CD00003098B4219D243088B422ED2411A00D20B
:100CE0000146524110467047FF2209023FD01206CA
:100CF0008B4205D3121209028B4201D31212090250
:100D000003098B4219D300E0090AC3098B4201D3BE
:100D1000CB01C01A524183098B4201D38B01C01A07
:100D2000524143098B4201D34B01C01A524103097E
:100D30008B4201D30B01C01A5241C3088B4201D32D
:100D4000CB00C01A524183088B4201D38B00C01ADA
:100D5000524143088B4201D34B00C01A5241884292
:100D600000D3401A5241CFD201461046704708B511
:100D700000F030F808BD002038B505000024124905
:100D8000087800281CD0FA2080000978FFF79CFF23
:100D900001000E480068FFF797FF00F090F8002868
:100DA0000CD1042D08D2002229000020C04300F0FD
:100DB0007CF80748056004E0012402E0012400E01B
:100DC00001242000C0B232BD6C0000201C000020B5
:100DD000000000207047FEE700B5010049B200297D
:100DE00005D40121C006C00E81403748016000BD16
:100DF000F0B5020052B2002A1BD40322334B040088
:100E000064B2A40804256C431C59FF251600064053
:100E100008277E43B540AC438901C9B2024008258A
:100E20006A439140214340B2800804225043195044
:100E300022E00F24264B032205006DB22540083D19
:100E4000AE0804256E4305006DB22C40083CA40892
:100E500004256C431F59FF24A446150005400824AF
:100E600065436446AC40A7438901C9B202400820EB
:100E70004243914039439951F0BD80B5411E8022D3
:100E80005204914201D301200EE0401E1149086036
:100E900003210020C043FFF7ABFF00200E4908608C
:100EA00007200E490860002002BD80B540B2FFF760
:100EB0009FFF01BD80B540B2FFF78EFF01BD80B539
:100EC000FFF7DBFF02BD000000E100E000E400E00E
:100ED0001CED00E014E000E018E000E010E000E0AD
:100EE0000100202008437047F8B596B01C9C04917F
:100EF00003A92B254C5500210A9102900E920093D4
:100F00000CE00498029A90470490002800D148E130
:100F10000A98401C0A900E98401C0E900E9801787A
:100F200000290CD02529ECD10020079008900990C9
:100F3000022608210191012504210E9C02E00A9855
:100F400031E12843641C2278202AFAD0232A0AD0CF
:100F50002B2A04D02D2A04D0302A08D00AE03043AE
:100F6000F0E70843EEE7020008201043EAE702003A
:100F70001020FAE72A2A0ED1009A13681A681F1D5A
:100F8000009B1F600C92002A03D553420C9301432F
:100F90000800641C15E000210C9101490CE000BF21
:100FA000CBCCCC0C0C9A8A4205DA9700BA185200C6
:100FB000D218303A0C92641C23781A00303A0A2A6C
:100FC000F0D321782E2903D00021C9430B9126E0CC
:100FD000641C21782A2908D100990A681168121D19
:100FE000009B1A600B91641C19E02D2901D1641C2F
:100FF00000E0002100220B920CE0002909D10B9A9D
:10100000BD4FBA4205DA9700BA185200D218303AEA
:101010000B92641C23781A00303A0A2AEDD303A9F4
:1010200008852778390000BFB4A000F017FA00281F
:1010300001D03800641C03AF2A217854785C6828FA
:1010400005D12078682802D162207854641C10A849
:1010500006902278601C0E90252A1AD0582A00D1BA
:10106000C8E0632A00D12FE1642A00D1F5E0692AA3
:1010700000D1F2E06F2A00D1BCE0702A00D1ABE0D1
:10108000732A0BD0752A00D1B4E0782A00D1B1E0E0
:1010900025E10795402169440A7013E00098006833
:1010A0000468001D009908600594002C00D080E0C1
:1010B0002B20385C002878D092A000F0D9F941426A
:1010C00001296ED10C980799401A0999401A08997C
:1010D000401A0F902820385C400712D4202069461F
:1010E00008710F9800280CDD0F9C029D012301AAB6
:1010F00003A9280000F094F9002852D1641EF5D10C
:101100000295079D10AC002D0DD0029E2178049809
:10111000B0470490002844D00A98401C0A90641CF0
:101120006D1EF3D10296302069460871099C002C8F
:101130000BDD029D012301AA03A9280000F070F92C
:1011400000282ED1641EF5D10295059C089D002D26
:101150000DD0029E21780498B0470490002820D03A
:101160000A98401C0A90641C6D1EF3D10296282038
:10117000385C400700D4D1E62020694608710F98FA
:10118000002800DCCAE60F9C029D012301AA03A9E6
:10119000280000F045F9002803D1641EF5D102951E
:1011A000BCE60020C04317B0F0BD00BFAAA0059068
:1011B00088E70B9D002D03D5200000F07DF909E0A4
:1011C0002A000021200000F07FF9002801D0001B38
:1011D00000E02800089075E7009801680868091D7C
:1011E000009A1160039010A80590782103A800F0E0
:1011F00097F867E7785C622803D0682809D06C28E4
:101200000FE0009801680868091D009B1960C0B2D2
:101210000DE0009801680868091D009B196080B204
:1012200005E0009801680868091D009B196003909B
:10123000388D0199C0B2084240D0039800283DD0B3
:1012400020201043782839D1079810A930230B5457
:10125000401C431C07930A5430E0785C622803D09A
:10126000682809D06C280FE0009801680868091DFB
:10127000009B196040B20DE0009801680868091DE4
:10128000009B196000B205E0009801680868091D1C
:10129000009B19600390002802D507982D2109E0D2
:1012A000388D304202D007982B2103E0C00705D5C6
:1012B0000798202110AB1954401C079010A80799DB
:1012C00040180590110091E707950098016808689B
:1012D000091D009A1160402169440870F2E60795E3
:1012E0002520402169440870100000D1EAE60796E5
:1012F00010A84270E6E60000CBCCCC0C686C747A87
:101300004C0000007072696E74665F733A2062610F
:101310006420257320617267756D656E740000002E
:10132000F0B583B005000C00E868019020006F283C
:1013300001D1082606E0FFF7D3FD782801D00A2660
:1013400000E01026182728680100642C01D0692CC1
:1013500003D1002801D54842010000290DD1286A97
:1013600000280AD1082E36D12820285C000732D563
:10137000172730200199C8752DE002956846047042
:10138000019C0D007F1E019728003100FFF79CFC97
:1013900030313A2907DAE15528003100FFF794FC93
:1013A00005000AD004E0684600784118AF31F2E742
:1013B00002988068E1198842E4D3029D0194082EC6
:1013C00009D12820285C000705D5E05D302802D02F
:1013D0007F1E3020E0551820C01B68610199C91993
:1013E000A960296A884206DA081AA861288D0B4983
:1013F0000140298510E000290ED52821695C1422BE
:101400000A40102A08D1696A2A69891AAA69891AC0
:10141000081A012800DBA86103B0F0BDEFFF00004F
:10142000F8B50024002B11D007000E0014001D0099
:1014300021787068B8477060002809D0F069401CB6
:10144000F0610020641C6D1EF2D104002000F2BD8A
:101450000020C043F9E700000000FEE7C9B20278AF
:101460008A4203D0401C002AF9D100207047FEE7D1
:1014700080B5002801D100BF07A006490B68002BEA
:1014800003D022220021984701E000F028F8222012
:1014900002BD000078010020636F6E737472616991
:1014A0006E742068616E646C65723A2062616420BB
:1014B0006D65737361676500431C0178401C0942C8
:1014C000FBD1C01A7047FEE7C9B2521E05D303789C
:1014D000401C8B42F9D1401E70470020704780B5F8
:1014E000012000F001F801BD80B500BF00BF024A35
:1014F00011001820ABBEFBE726000200F8B586B04D
:101500000400002007002100C9B2002906D02100F4
:10151000C9B2012902D00127FF433BE02100C9B233
:10152000002909D1012243490B6813430B60096864
:101530000A400092009908E004223E490B681343D8
:101540000B6009680A40009200996B4E2100C9B2F5
:1015500002225143715A019101210291039003200B
:1015600004906B4D01A92000C0B2042250432858BA
:1015700000F05EF92000C0B201280BD1012220004A
:10158000C0B202214843315AE4B2042044432859EE
:1015900000F048FA380007B0F0BD38B5002401006B
:1015A000C9B2002906D00100C9B2012902D0012424
:1015B000E44320E00100C9B200290ED101224E49C6
:1015C0000300DBB202256B43C95A514BC0B204255C
:1015D0006843185800F026FA0DE00022464903003F
:1015E000DBB202256B43C95A494BC0B2042568439C
:1015F000185800F017FA200032BD10B50024010081
:10160000C9B2002906D00100C9B2012902D00124C3
:10161000E4430CE038490200D2B202235A43895A0B
:101620003B4AC0B204235843105800F005FA20008A
:1016300010BD00003410024038B586B0040004200C
:101640006F4A1368034313601268104000900098BB
:101650006C482200D2B202235A43805A01900120E2
:10166000039002200490C9B200290AD10020029000
:1016700001A96548E4B204225443005900F0D8F8A7
:1016800037E06248029001A95F482200D2B20423E9
:101690005A43805800F0CCF85D4D5E482100C9B235
:1016A0000422514341582000C0B20C225043281854
:1016B00000F0E6F958482100C9B2042251434258CB
:1016C00000212000C0B20C235843281800F0C4F9B0
:1016D000524D002252482100C9B2042359434158B7
:1016E0002000C0B22856FFF7E0FBE4B22857FFF70E
:1016F000E1FB002007B030BD5C1F000880B5444905
:10170000C0B20C225043081800F0C2F901BD00001D
:1017100008000020F8B5040000252000C0B2002811
:1017200002D00125ED4313E00F003E4E2000C0B271
:1017300094214843301800F02FF83900E4B2942087
:101740004443301900F0D0F9002801D00325ED43BF
:101750002800F2BD70B514000D00002604E02878C2
:1017600000F006F86D1C761CA642F8D3200070BD70
:1017700031B5FA239B00012269462A482A4C247875
:1017800094256C430019FEF7DDFC009832BD80B54E
:10179000002000F033FA01BD70B586B0012418486E
:1017A00001682143016001682140009100990168AE
:1017B0002143016000682040009000988020800252
:1017C0001A490A6802430A600968084000900098B4
:1017D0000420019002250295049503940594A02607
:1017E000F60501A9300000F023F8082001900295C9
:1017F000059401A9300000F01BF806B070BD000090
:1018000034100240760D0008100000200000211066
:1018100064010020601F000814000020821F0008DF
:1018200018000020700000207C0100203C100240C5
:10183000F8B50200002433E0062603E0734DAA4207
:10184000FAD1052625002F4008256F43BE400643E8
:101850007048A50804277D4346516D4D286898437C
:101860004E68F60300D5184328606B4D28689843EE
:101870004E68B60300D518432860684D2868984321
:101880004E68F60200D518432860654D28689843D5
:101890004E68B60202D50600180030432860641C6A
:1018A0000868E040002800D1AFE001260868330056
:1018B000A3400340002BF2D04868022802D04868B9
:1018C00012281FD1E008042568431018076A0F2565
:1018D000BC46200047077F0F042047432800B8403C
:1018E0006746874308690540AC46200045076D0FF1
:1018F000042045436046A8403843E50804277D435B
:101900005519286215680327AC4625000220454377
:101910003800A840654685430095486838408446AD
:101920002500022045436046A840009D28431060E2
:101930004868012808D04868022805D0486811285E
:1019400002D0486812281DD19568AC4625000220B7
:1019500045433800A840654685430095C8688446DD
:101960002500022045436046A840009D2843906022
:1019700055683000A0408543486800093040A040C9
:10198000284350604868032813D0D568AC4625002A
:10199000022045433800A840654685430095886885
:1019A00084462500022045436046A840009D284308
:1019B000D0604868C00000D471E716488446A50886
:1019C000042045436046405900900F25AC46250051
:1019D0003800284008256843654685400098A8439C
:1019E000A025ED05AA4201D100262BE7174DAA42FA
:1019F00000D127E7164DAA4201D1022622E7154D54
:101A0000AA4200D01AE73E001CE7F1BD00140050C6
:101A100080180240601802408418024000180240FA
:101A20000418024000B5D2B2002A02D089B2816106
:101A300001E089B2816200BD42690B009BB2134094
:101A40001B0489B29143194381617047000400501F
:101A500000080050000C005000B503000020C9B27F
:101A6000002903D0022906D003D306E05A609A6009
:101A700004E05A6002E09A6000E00120C0B200BDBC
:101A800000B5002801D1012001E00160002000BD67
:101A900070B5040001252068060C2E402078C00691
:101AA000C00E85400E48202171434018016829402E
:101AB000002905D005606068002801D06068804773
:101AC000084820214E43801901682940002905D08B
:101AD0000560A068002801D0A068804770BD0000A4
:101AE0000C1802401018024080B50D4A12680260BE
:101AF0000A6842600C2242610A228A5E02614A68D8
:101B0000826008228A5EC2600C22895E8161802127
:101B10000902C16100214162FEF7D2FA02BD00BF95
:101B20000400002010B500F081F800F038F800F053
:101B30008BF80020FFF7E2FC0120FFF7DFFC01211A
:101B40000020FFF779FD3149E120400208600024C0
:101B50004C602000088120004881200088810020FE
:101B6000FFF7D8FD002801D000F05CF8284929488B
:101B700000F080F8284800F07DF80020FFF70DFD08
:101B80000120FFF70AFD254801680129FBD1046007
:101B90000020FFF732FD0120FFF72FFDF3E718B516
:101BA0008DB02021002205A800F078F81421002231
:101BB000684600F073F80124194801680722914330
:101BC00021430160059480204002069005A8FEF79D
:101BD000B1FD002801D000F025F807200090019405
:101BE000002002900390049001216846FEF730FF28
:101BF000002801D000F016F80EB010BD00B5C0B23C
:101C0000002802D101200549086000BD54010020D0
:101C1000541F00084C1F0008C41E0008700100205B
:101C20000020024000B572B6FEE7FEE710B50024C2
:101C30000320FFF7A1F8002801D0012401E000F003
:101C400055F82000C0B210BD81B0202008490A68B4
:101C500002430A600A6810400090009801200A6858
:101C600002430A60096808400090009801B070477C
:101C7000341002400EB4C0B5020003A80190002049
:101C8000009001AB0121044878440C30FFF72CF997
:101C9000029906B0084700BF7D0200001206130A31
:101CA0001A43130C1A4300BF094205D0830705D01D
:101CB0000270401C491EF9D1704700001300103912
:101CC00006D330B41400150010393CC0FCD230BC2F
:101CD000490700D30CC000D504C0890002D302809C
:101CE000801C002900D502707047FEE781B00120FA
:101CF00009490A6802430A60096808400090009890
:101D00008020400505490A6802430A6009680840C6
:101D10000090009801B07047401002403C10024013
:101D200080B50D49794430310C4A7A442E329142C3
:101D300003D00B4900BF00BF02BD694608700122F5
:101D40000120FFF707FD012802D16846007802BD97
:101D50000020C04302BD00BFA8E2FFF7A4E2FFF7E6
:101D60002000002000000000000000000000000033
:101D70000000000000000000000000000000000063
:101D8000000000000100000002000000030000004D
:101D9000040000000600000007000000080000002A
:101DA0000900000070B40121002213E00368001D47
:101DB0000B4202D04D46EB185B1E1A601B1D241F00
:101DC000042CFAD21D00A60701D51A80AD1C0C40C8
:101DD00000D02A700468001D002CE7D170BC704749
:101DE00010B5074979441831064C7C44163404E098
:101DF000081D0A68891888470100A142F8D110BD62
:101E0000480000006400000000F00FF8002801D036
:101E1000FFF7E6FF00BF00BF002000BF00BF00BF0C
:101E200000BFFFF77FFE00F002F80120704780B589
:101E300000F002F801BDFEE700F000F80746384662
:101E4000FFF752FBFBE700005DFFFFFF1001000002
:101E5000700000200000000093E8FFFF2701000051
:101E60009A00000000000020FEE7000000000000D3
:101E70000000000000000000000000000100000061
:101E800002000000030000000400000000B5FEE7AF
:101E900000B5FEE77047704780B500F007F801BD58
:101EA00080B50020FFF72AFC01BDFEE7034801686A
:101EB000034A127889180160704700BF740100203E
:101EC0006C00002057656C636F6D6520746F205344
:101ED000544D333220776F726C6420210A0D00005C
:101EE0000548014603B4684680F3098800BF00BF77
:101EF00000BF00BFFFF788FFA5EDF5FE010002005F
:101F00000400060008000A000C0010002000400039
:101F10008000000138B505000C002000FFF700FF2D
:101F2000A04200D00025280032BDFEE701488047CE
:101F3000014800473D1F0008E11E00088020000501
:101F4000014908607047000008ED00E025730A0DA4
:101F50000000000056302E302E310000200000021C
:101F60000D000006FEE7FEE7FEE7FEE7FEE7FEE700
:101F7000FEE7FEE7FEE7FEE7FEE7FEE7FEE7FEE739
:101F8000FEE7070004FC0002440040FD000D500085
:101F9000080050000800508F1700080FFC00071BB6
:101FA000B7000204010001FD000F040100205401EC
:101FB00000200401002004010020FC0003040100B3
:101FC00020FC00076800002054000020E000000111
:0400000508001EE1F0
:00000001FF
