:020000040800F2
:1000000070050020B91A0008751A0008771A000850
:1000100000000000000000000000000000000000E0
:10002000000000000000000000000000791A000835
:1000300000000000000000007B1A00087D1A000884
:10004000B70B0008070C000813120008271200085D
:100050007F1200085B180008031A0008851A0008C0
:10006000351A00088F1A0008B71A0008ED1A0008A0
:10007000EF1A0008F11A0008F31A0008F51A000830
:10008000F71A00080000000000000000F91A00083C
:1000900000000000FB1A0008FD1A0008FF1A000803
:1000A000011B0008031B0008051B0008071B0008B4
:1000B000091B000800000000000000000000000014
:1000C00038B5040001D1012032BD250084356868AF
:1000D000002803D12870200000F0BEFA24206860B8
:1000E00020680168012291430160A06A002802D0C3
:1000F000200000F049F9200000F086F8012811D016
:1001000020684168084A0A404260206881682A22C3
:10011000914381602068016801220A430260200047
:1001200000F0A0F932BD0000FFB7FFFFF1B584B0C9
:100130001F0006465436706B202861D10C000FD08A
:1001400068460280002A0BD004988068802149010B
:10015000884207D104980069002803D1E00701D53F
:1001600001204EE00025F5632120706300F094FA31
:1001700001006846008830806846008870803A0038
:100180000498806880235B01984209D10498006933
:10019000002805D12500049F0192029104001AE075
:1001A0002000F8E721788162641C11E0019800903A
:1001B000029B00228021380000F0BCF900281BD1EE
:1001C0003868002CEED12988C905C90D8162AD1CA3
:1001D0007088401E708070880028E7D13800029B2C
:1001E000019900910022402100F0A4F9002803D1D8
:1001F00020207063002004E020207063032000E0D2
:10020000022005B0F0BD0000F8B50500002600246E
:10021000286801688E4A0A40A96811432A690A437E
:1002200069691143EA690A4302604168894A0A40E0
:10023000E968114341608168874A0A40A96911430E
:100240002A6A0A438260C16A0F2291436A6A0A439A
:10025000C262824A1021824B98420FD1506D8007B2
:10026000800F0ED0022803D004D3032804D009E065
:10027000022107E0042105E0082103E0A54B984294
:1002800000D1002100910727A34980200002EB69DB
:100290008342009B32D1002B06D0022B23D0042BAB
:1002A00029D0082B04D059E000F046FC002856D095
:1002B000696800912EA16A6A5200895A00F060FCB8
:1002C0004000009949084018009900F059FC0100CD
:1002D0001039924A914241D20240400807401743E8
:1002E0002868C7603BE00800116849093940491C8B
:1002F00000F046FCDAE700F0DDFBD7E7002B06D084
:10030000022B20D0042B26D0082B04D026E000F0AE
:1003100013FC002823D06968009100BF14A16A6A09
:100320005200895A00F02CFC0099490840180099A5
:1003300000F026FC01001039784A91420ED280B2BA
:100340002968C8600BE00800116849090F40791C52
:1003500000F016FCDDE700F0ADFBDAE70124280031
:100360006830012141800180C66006612000F2BD35
:10037000010002000400060008000A000C00100042
:1003800020004000800000012821415C090706D5BB
:1003900001684A68624B1340826B1A434A60282105
:1003A000415CC90706D501684A685E4B1340C26AC2
:1003B0001A434A602821415C890706D501684A68CA
:1003C000594B1340026B1A434A602821415C49078C
:1003D00006D501684A68554B1340426B1A434A6080
:1003E0002821415CC90606D501688A68504B134034
:1003F000C26B1A438A602821415C890606D50168D0
:100400008A68754B1340026C1A438A602821415C4C
:10041000490611D501684A68704B1340426C1A4373
:100420004A60426C80235B039A4205D14A686C4B58
:100430001340826C1A434A602821415C090606D5A4
:1004400001684A68674B1340C06C184348607047A6
:10045000F369FFCFFFCFFFFFFFF4FF110010024051
:1004600000380140FEB50600370084370024FC60E8
:1004700000F012F90190202530680068000717D5B8
:1004800059480090019B00222904300000F052F8E6
:1004900000280DD0EFF31080012181F3108831681E
:1004A0000A6880239A430A6080F310887D6026E002
:1004B00030680068400725D54B480090019B00221A
:1004C0006904300000F036F800281BD0EFF31080EC
:1004D000012181F3108831680A68444B13400B6096
:1004E00080F31088EFF31080012181F310883168C8
:1004F0008A6801239A438A6080F31088BD603C704B
:100500000320FEBD7D60BD60F46634673C70002052
:10051000FEBD000000440040006CDC02F0FF000063
:10052000FF7FFFFFFFFFFDFFFFFFFEFFFFFFFBFF62
:10053000FFEFFFFFFEB580273F01082500260400DE
:1005400001916846027002932068C06901990140D8
:100550000198814201D1012000E00020694609781C
:10056000884236D108980021C9438842ECD000F077
:1005700093F80299401A0899814201D3002901D1C8
:100580000320FEBD206800684007DDD50198802863
:10059000DAD04028D8D02068C0692840206803D12C
:1005A000C0693840D0D009E00562200000F020F892
:1005B00020008430C56006700120FEBD20680762FF
:1005C000200000F015F8200084302021C160067062
:1005D000D6E70020FEBD0000FFDFFFFFFFFFEFFFBB
:1005E000FFFF9FFFFFFFF7FFFFFFFF01DFFEFFFFA2
:1005F00010B5EFF31081012282F3108802681368AE
:10060000134C1C40146081F31088EFF31081012219
:1006100082F31088026893680E4C1C40946081F34A
:100620001088C16E01290BD1EFF31081012282F3F2
:100630001088026813681024A343136081F31088A4
:1006400020218C2281500021C166416710BD00002D
:10065000DFFEFFFFFEFFFFEF704730B50168411876
:10066000446862088A188368E40704D54C461B195D
:1006700001E0641C09D1914203D00C7864B2491C9A
:1006800001E00C3030BD0D78491C1D705B1C002C46
:10069000EFD4641EF7D5EEE701484068704700BF0D
:1006A00000000020F1B582B0002856D0A24C00789E
:1006B000C00708D5A1680298406838220A40082A75
:1006C0004DD1002849D002980078800726D5A2682D
:1006D0000298C06899499A4E3823134074D1002873
:1006E0003BD0606806400298406900023043606079
:1006F0002068014002980069084320609148012168
:1007000022689204520F914000F03AFA884908603A
:100710008848006800F050FA00281ED10127FF43E6
:10072000382602980078000707D502988069A168EA
:10073000314018297CD100280FD004200299096883
:10074000014000D1C8E002998968A2681640202EB5
:1007500000D08FE0002900D0BEE00120FEBD802146
:100760004902884207D0A022D2029042206805D1D7
:100770008A00024322602068014305E0724901407B
:10078000216020687149014021608025AD020298F6
:10079000406800280CD0FFF77FFF06002068284043
:1007A00091D1FFF779FF801B6528F7D30320FEBDA9
:1007B000FFF772FF06002068284084D0FFF76CFF27
:1007C000801B6528F7D3F1E7220D009200282068EE
:1007D0001ED00140029800690843206020689108FB
:1007E00001432160FFF758FF029D07002068009930
:1007F000014005D1FFF750FFC01B0228F6D9D5E70D
:10080000606806406869000230436060029585E7D1
:10081000A74901402160FFF73FFF050020680099CC
:100820000140F4D0FFF738FF401B0228F6D9BDE79E
:100830000028206E0FD0012101432166FFF72CFF15
:100840000500206E800700D577E7FFF725FF401BE6
:100850000228F6D9AAE738402066FFF71DFF0500F9
:10086000206E800700D468E7FFF716FF401B0228C0
:10087000F6D99BE70122012904D0052906D1E16DB3
:100880000843E065E06D0243E26506E0E06D074085
:10089000E765E06D04218843E065022602988068E0
:1008A00000280CD0FFF7F8FE0500E06D304013D1B2
:1008B000FFF7F2FE401B97498842F6D376E7FFF731
:1008C000EBFE0500E06D304006D0FFF7E5FE401B73
:1008D00090498842F6D369E702980078C00624D58B
:1008E000802636040298C069002820680ED071085E
:1008F00001432160FFF7D0FE05002068304014D18D
:10090000FFF7CAFE401B0228F7D94FE79149014083
:100910002160FFF7C1FE05002068304005D0FFF7D9
:10092000BBFE401B0228F7D940E70020FEBD0000B7
:10093000100000200800002000100240FFC7FFFF49
:10094000FF80FFFF006CDC02FFFFFEFFFFFFFBFFED
:10095000F8B507006ED000917F4800684007400F4F
:10096000884218D27C4E30680721884300990143A1
:100970003160FFF791FE009C050030684007400F92
:10098000A04207D0FFF788FE401B62498842F4D39B
:100990000320F2BD00943968704D022001420ED050
:1009A000490706D5A9686E4A0A40B02109011143DA
:1009B000A960A9686B4A0A40F9681143A960072633
:1009C000F6433978C90738D529681C229143BA689B
:1009D0000A432A607968012918D12868800329D53B
:1009E000A86830400143A960FFF756FE3C000700AD
:1009F000A868382101406068C00081421CD0FFF720
:100A00004BFEC01B43498842F2D3C1E7002902D103
:100A10002868400503E0022903D128680002DFD4DA
:100A200008E0032903D12A6E1040D9D102E0EA6D13
:100A30001040D5D10120F2BD270000984649096831
:100A40004907490F884217D243480068064000987A
:100A5000304341490860FFF71FFE009C06003E48F6
:100A600000684007400FA04206D0FFF715FE801B2C
:100A700028498842F3D38BE73878400705D5A86822
:100A80003749014038690843A86000F013F8364937
:100A9000AA681205120F9200895CC906C90EC840E7
:100AA000324908603248006800F086F8F2BD000064
:100AB000FFFEFFFF30B5072228490868840814406C
:100AC000641C2D4838238D681D4007D10B68012117
:100AD000DB0A1A40914000F053F816E08A681A4089
:100AE000082A12D08A681A40202A02D180200002E7
:100AF0000BE08A681A40182A02D1FA20C00104E0EB
:100B000089680B40102B00D00020210000F038F83D
:100B100030BD00008913000080B5FFF7CBFF1549F9
:100B20000968114A0905090F8900515CC906C90EF7
:100B3000C8400E49086002BD80B5FFF7EDFF0F49C0
:100B40000C4A12685204520F9200895CC906C90E01
:100B5000C84002BDFFFFBFFF00200240001002405E
:100B6000FF8FFFFFFFF0FFFF30190008100000208B
:100B70000800002008100240006CDC02381A00084F
:100B8000094214D088420FD30122030C01D1000482
:100B90001204002300185B418B4200D35B1A5241C0
:100BA000F8D319001000704701000020704708B505
:100BB00000F028F808BDFEE770B5060000240F4DD0
:100BC0002978002916D0FA208000FFF7D9FF01000C
:100BD0000B480068FFF7D4FF00F041F8002809D166
:100BE000042E07D2002231000020C04300F029F873
:100BF000AE6000E00124200070BD00BF00000020B6
:100C0000100000207047FEE710B5C30018221A40FC
:100C1000FF249440E3438907090E9140020004D465
:100C2000194892089200801806E0184A0007000F41
:100C300008388008800010180268134019430160CA
:100C400010BD80B5FFF7E0FF01BD0000010005D435
:100C50000121C006C00E81400D480160704710B5EB
:100C6000401E80214904884201D3012010BD094C57
:100C7000606003210020C043FFF7C6FF0020A06092
:100C80000721216010BD000000E400E01CED00E041
:100C900000E100E010E000E0010020200843704780
:100CA000F8B596B01C9C049103A92B254C55002146
:100CB0000A9102900E9200930CE00498029A9047D9
:100CC0000490002800D148E10A98401C0A900E9830
:100CD000401C0E900E98017800290CD02529ECD1EB
:100CE0000020079008900990022608210191012513
:100CF00004210E9C02E00A9831E12843641C22780A
:100D0000202AFAD0232A0AD02B2A04D02D2A04D054
:100D1000302A08D00AE03043F0E70843EEE702004B
:100D200008201043EAE702001020FAE72A2A0ED131
:100D3000009A13681A681F1D009B1F600C92002AFE
:100D400003D553420C9301430800641C15E00021B5
:100D50000C9101490CE000BFCBCCCC0C0C9A8A4220
:100D600005DA9700BA185200D218303A0C92641C77
:100D700023781A00303A0A2AF0D321782E2903D09A
:100D80000021C9430B9126E0641C21782A2908D14F
:100D900000990A681168121D009B1A600B91641C6F
:100DA00019E02D2901D1641C00E0002100220B92E2
:100DB0000CE0002909D10B9ABD4FBA4205DA970021
:100DC000BA185200D218303A0B92641C23781A00D9
:100DD000303A0A2AEDD303A908852778390000BFE5
:100DE000B4A000F017FA002801D03800641C03AF4B
:100DF0002A217854785C682805D12078682802D1A7
:100E000062207854641C10A806902278601C0E9012
:100E1000252A1AD0582A00D1C8E0632A00D12FE130
:100E2000642A00D1F5E0692A00D1F2E06F2A00D1EE
:100E3000BCE0702A00D1ABE0732A0BD0752A00D138
:100E4000B4E0782A00D1B1E025E10795402169445A
:100E50000A7013E0009800680468001D009908609B
:100E60000594002C00D080E02B20385C002878D03E
:100E700092A000F0D9F9414201296ED10C9807994E
:100E8000401A0999401A0899401A0F902820385C96
:100E9000400712D42020694608710F9800280CDD05
:100EA0000F9C029D012301AA03A9280000F094F9D8
:100EB000002852D1641EF5D10295079D10AC002D7B
:100EC0000DD0029E21780498B0470490002844D0A9
:100ED0000A98401C0A90641C6D1EF3D102963020C3
:100EE00069460871099C002C0BDD029D012301AAB3
:100EF00003A9280000F070F900282ED1641EF5D156
:100F00000295059C089D002D0DD0029E2178049825
:100F1000B0470490002820D00A98401C0A90641C16
:100F20006D1EF3D102962820385C400700D4D1E62C
:100F30002020694608710F98002800DCCAE60F9C43
:100F4000029D012301AA03A9280000F045F9002809
:100F500003D1641EF5D10295BCE60020C04317B052
:100F6000F0BD00BFAAA0059088E70B9D002D03D51A
:100F7000200000F07DF909E02A000021200000F0A7
:100F80007FF9002801D0001B00E02800089075E7D9
:100F9000009801680868091D009A1160039010A864
:100FA0000590782103A800F097F867E7785C62283D
:100FB00003D0682809D06C280FE000980168086801
:100FC000091D009B1960C0B20DE000980168086817
:100FD000091D009B196080B205E00098016808684F
:100FE000091D009B19600390388D0199C0B2084219
:100FF00040D0039800283DD020201043782839D1D4
:10100000079810A930230B54401C431C07930A5423
:1010100030E0785C622803D0682809D06C280FE0A3
:10102000009801680868091D009B196040B20DE036
:10103000009801680868091D009B196000B205E06E
:10104000009801680868091D009B1960039000283A
:1010500002D507982D2109E0388D304202D007983B
:101060002B2103E0C00705D50798202110AB1954A8
:10107000401C079010A8079940180590110091E7AF
:101080000795009801680868091D009A11604021C1
:1010900069440870F2E607952520402169440870EC
:1010A000100000D1EAE6079610A84270E6E60000BC
:1010B000CBCCCC0C686C747A4C0000007072696EFA
:1010C00074665F733A2062616420257320617267E1
:1010D000756D656E74000000F0B583B005000C00FE
:1010E000E868019020006F2801D1082606E0FFF78C
:1010F000D3FD782801D00A2600E01026182728689A
:101100000100642C01D0692C03D1002801D548428C
:10111000010000290DD1286A00280AD1082E36D1F5
:101120002820285C000732D5172730200199C87580
:101130002DE0029568460470019C0D007F1E01970A
:1011400028003100FFF71CFD30313A2907DAE1555C
:1011500028003100FFF714FD05000AD004E06846BE
:1011600000784118AF31F2E702988068E1198842AF
:10117000E4D3029D0194082E09D12820285C0007A1
:1011800005D5E05D302802D07F1E3020E0551820C4
:10119000C01B68610199C919A960296A884206DAE9
:1011A000081AA861288D0B490140298510E0002903
:1011B0000ED52821695C14220A40102A08D1696AD8
:1011C0002A69891AAA69891A081A012800DBA86104
:1011D00003B0F0BDEFFF0000F8B50024002B11D0E4
:1011E00007000E0014001D0021787068B847706079
:1011F000002809D0F069401CF0610020641C6D1EBD
:10120000F2D104002000F2BD0020C043F9E7000045
:101210000000FEE7C9B202788A4203D0401C002ACF
:10122000F9D100207047FEE780B5002801D100BF4A
:1012300007A006490B68002B03D022220021984703
:1012400001E000F028F8222002BD00006401002027
:10125000636F6E73747261696E742068616E646C22
:1012600065723A20626164206D6573736167650021
:10127000431C0178401C0942FBD1C01A7047FEE7AD
:10128000C9B2521E05D30378401C8B42F9D1401ECF
:1012900070470020704780B5012000F001F801BDC3
:1012A00080B500BF00BF024A11001820ABBEFBE7AB
:1012B0002600020070B586B0050000200024012140
:1012C000754A2B0004D0012D09D00124E44324E009
:1012D00013680B43136012680A40009206E004236F
:1012E00016681E431660126813400093009A00BFF0
:1012F00021A36E009B5B0193029103900320049055
:1013000001A96648AA00805800F000F9012D04D117
:1013100001225102714800F0A1F9200006B070BD11
:1013200010B50024010004D0012807D00124E443B3
:101330000BE001222021A020C00504E00022802132
:1013400089005648406800F089F9200010BD00006F
:1013500010B50024010004D0012802D00124E44388
:1013600008E000BF04A14200895A4C4A800010588E
:1013700000F07AF9200010BD20000002F8B586B018
:101380000422454B1C6814431C601B681A400092E1
:10139000009A07005AA07A00805A01900120039019
:1013A00002200490BE004E4DAC192068002904D1E3
:1013B000029101A900F0AAF820E04A49029101A98E
:1013C00000F0A4F848480C2179434018009000BF71
:1013D0004DA08159009800F06DF9281D8259002117
:1013E000009800F057F900BF46A0C5570022A16839
:1013F0002800FFF726FC2800FFF728FC002007B094
:10140000F0BD000080B538490C225043081800F0A8
:1014100058F901BDF0B587B00024002801D001249F
:1014200034E0069101251C480168294301600168E8
:101430002940009100990168294301600168294011
:1014400000910099690482680A43826080680140C3
:1014500000910098042001900226029604960395BC
:101460000595A027FF0501A9380000F04FF80820D6
:1014700001900296059501A9380000F047F80699F9
:101480001A4800F041F9002801D00324E443200069
:1014900007B0F0BD0000000034100240E41A00085C
:1014A00070B5140000250E0004E0307800F006F856
:1014B000761C6D1CA542F8D3200070BD31B5FA230F
:1014C0009B00012269460948094C247894256C4305
:1014D0000019FEF72BFE009832BD000000080050F6
:1014E000D81A0008000021105801002060000020D8
:1014F0006801002080B5002000F088F901BD0000DF
:1015000000200000070000000D000006FCB50A00E6
:1015100000230121009101002CE0062003E0564841
:101520008142FAD10520A84038432060534804681E
:10153000F04304405568ED0300D534434F4D2C6013
:101540006C6804405768BF0300D534436C604C4C52
:10155000246804405568ED0200D53443484D2C60A2
:101560006C6820405468A40202D504003000204377
:1015700068605B1C10680400DC406ED0009C9C40DE
:10158000019426460640F4D05068022801D0122863
:101590000FD1D80880000C18206A9F001C253D4000
:1015A0000F27AF40B843177C3F073F0FAF400743BB
:1015B00027620D68580003278740FC4325401779B0
:1015C000BF07BF0F87402F430F605568012D05D01F
:1015D000022D03D0112D01D0122D11D18D6825407F
:1015E000D76887402F438F604D68019FBD43AC464D
:1015F00055682D09009F2F409F4065462F434F603F
:101600005568032D05D0CD682C409568854025434D
:10161000CD605068C000ACD51A489C08A4000419DD
:101620002768D800182505400F20A8408743A02030
:10163000C005814201D1002075E71348814201D1E4
:10164000009870E71148814201D102206BE71048F1
:10165000814200D063E7032065E7F3BD002A01D093
:10166000816170478162704742690B0013401B041F
:101670009143194381617047001400508018024063
:10168000001802406018024000040050000800509A
:10169000000C005003000020002903D0022905D0CF
:1016A00002D305E05A6001E05A6070479A607047C3
:1016B00001207047002801D10120704701600020FF
:1016C000704770B5040021680125080C2840C90640
:1016D000C90E8D4046010A4880190168294004D08E
:1016E00005606068002800D08047064880190168BE
:1016F000294004D00560A068002800D0804770BD54
:101700000C1802401018024080B50D4A12680260A1
:101710000A6842600C2242610A228A5E02614A68BB
:10172000826008228A5EC2600C22895E816180210B
:101730000902C16100214162FEF7C2FC02BD00BF87
:101740000C00002038B500F07BF800F031F800F014
:1017500085F80020FFF7AEFD0120FFF7ABFD01216A
:101760000020FFF70BFE2C4CE120400220600025FA
:1017700065600020A060A0812100FFF74BFE0028DB
:1017800001D000F04DF800BF26A000F07DF8002049
:10179000FFF7C6FD0120FFF7C3FD20690128FCD13A
:1017A00025610020FFF7D4FD0120FFF7D1FDF4E70C
:1017B00018B58DB02021002205A800F079F8142179
:1017C0000022684600F074F80124144801680722DA
:1017D00091432143016005942004069005A8FEF77B
:1017E00061FF002801D000F01BF807200090019451
:1017F000002002900390049001216846FFF7A8F8AA
:10180000002801D000F00CF80EB010BD002802D165
:101810000120014908617047440100200020024076
:1018200072B6FEE757656C636F6D6520746F205369
:10183000544D333220776F726C6420210A0D000002
:1018400010B500240320FFF7B7F9002801D00124C8
:1018500001E000F033F8200010BDFEE781B0202049
:1018600008490A6802430A600A681040009000981C
:1018700001200A6802430A60096808400090009845
:1018800001B07047341002400EB4C0B5020003A886
:1018900001900020009001AB0121044878440C30F5
:1018A000FFF7FEF9029906B0084700BFF5010000F6
:1018B000094202D0491E4254FCD1704781B00A4807
:1018C000012142680A434260426811400091009938
:1018D0008021490502680A430260006801400091C6
:1018E000009801B0704700BF3C10024080B50D4920
:1018F000794430310C4A7A442E32914203D00B495C
:1019000000BF00BF02BD6946087001220120FFF739
:10191000C7FD012802D16846007802BD0020C043FF
:1019200002BD00BFDCE6FFF7D8E6FFF71400002099
:1019300000000000000000000000000000000000A7
:101940000000000000000000000000000000000097
:10195000010000000200000003000000040000007D
:101960000600000007000000080000000900000059
:1019700070B40121002213E00368001D0B4202D065
:101980004D46EB185B1E1A601B1D241F042CFAD257
:101990001D00A60701D51A80AD1C0C4000D02A708E
:1019A0000468001D002CE7D170BC704710B50749D2
:1019B00079441831064C7C44163404E0081D0A684A
:1019C000891888470100A142F8D110BD48000000E5
:1019D0006400000000F00FF8002801D0FFF7E6FFD8
:1019E00000BF00BF002000BF00BF00BF00BFFFF767
:1019F000A9FE00F002F80120704780B500F002F85F
:101A000001BDFEE700F000F807463846FFF748FC46
:101A1000FBE700005DFFFFFF0C01000060000020FD
:101A20000000000037ECFFFFE2000000780000003B
:101A300000000020FEE700000000000000000000A1
:101A40000000000000000000010000000200000093
:101A500003000000040000000548014603B4684686
:101A600080F3098800BF00BF00BF00BFFFF7B2FFCF
:101A7000A5EDF5FEFEE7FEE77047704780B500F084
:101A800007F801BD80B50020FFF7BCFC01BDFEE7F3
:101A900002484168027889184160704700000020C0
:101AA00038B505000C002000FFF720FFA04200D051
:101AB0000025280032BDFEE7014880470148004765
:101AC000C91A0008591A0008802000050149086059
:101AD0007047000008ED00E000080050F514000811
:101AE0000F0000000000005000080050FEE7FEE775
:101AF000FEE7FEE7FEE7FEE7FEE7FEE7FEE7FEE7BE
:101B0000FEE7FEE7FEE7FEE7FEE70001F90000045E
:101B1000FC000B440040001BB7000204010001FD63
:101B2000000FF400002044010020F4000020F40025
:101B30000020FC0003F4000020FC00075C000020F3
:061B400048000020E00057
:0400000508001A597C
:00000001FF
