:020000040800F2
:10000000E85C002095860008CD840008D1840008B3
:1000100000000000000000000000000000000000E0
:10002000000000000000000000000000D58400086F
:100030000000000000000000D7840008D9840008F8
:100040001F290008832A0008D32A00082B3D000836
:1000500053710008AF710008D3720008E1840008F2
:10006000EB840008E3740008777700088B770008BA
:10007000EB770008EF77000847790008E77D000874
:100080006B7F00080000000000000000CF80000827
:10009000000000005F810008DF8300088F850008F2
:1000A000C18500086B860008D5860008D786000841
:1000B000D9860008000000000000000000000000D9
:1000C0000021416404490164002070470249026C28
:1000D0008A4302640020704780BF000000B50A0018
:1000E000D2B2002A05D1016C490049080164002000
:1000F00000BDC9B2012905D1016C802212060A4354
:100100000264F4E70120F3E70EB418B504000120FF
:100110002064206C01218843206400212000FFF727
:10012000DDFF00216164C0B201B0019910BC04B0D0
:10013000084700207047002070470000F8B50022F3
:100140006B461A700A7804235A438258D34B1340E3
:10015000CA78002A05D0022A08D00DD3032A06D077
:100160000FE01A0080239B0013430DE00CE01A00FF
:10017000C023DB00134307E01A008023DB00134396
:1001800002E001226C462270C54A13430C78042514
:100190006C430351C34B0C7804256C4305591D4037
:1001A0000C782C4314430D780426754344510C7B82
:1001B000002C00D0E5E04C78002C44D0BA4F0C78ED
:1001C00008256C433C59240C24040D7808267543FB
:1001D0007C510C7808256C433D59CC88A408A400B8
:1001E0002C430E7808256E43BC510C7804256C43D3
:1001F000045964060AD50C7804256C43045923403D
:10020000AA4C1C430B7804256B43C450CB78012BBC
:100210000DD00B7804246343C458A54B23402024FD
:100220005C402243097804235943425058E20B783A
:1002300004246343C4589E4B23401A430978042383
:10024000594342504CE2984D0C78082674432C19BF
:100250000E7808277E43AE197668360C3604666041
:100260000C78082674432C190E7808277E43AE19A3
:100270007768CE88B608B6003E4366600C780826DC
:1002800074432C190E7808277E43AE197668B601A0
:10029000B60966600C69002C0DD10C7808267443F1
:1002A0002C190E7808277E43AD196E6880252D061F
:1002B0003543656030E00C693F2C14D20C6964084A
:1002C0000E7CF60700D5641C0E7808277E43AF1914
:1002D000AC460E7808256E436546AD196D68A406D8
:1002E0002C437C6018E00C6964090E7CF606F60E5F
:1002F000002E00D1641E0E7808277E43AE19AC464E
:100300000F7808256F436546ED196D68A4062C43E8
:1003100080252D06254375600C7804256C4304590F
:1003200064040AD50C7804256C4304592340D54C49
:100330001C430B7804256B43C4500B78002B11D160
:100340000B7804246343C4585A4B2340802464012F
:100350005C4080239B0163401A430978042359437E
:100360004250BDE10B7804246343C458514B2340F1
:100370008024A4015C40224309780423594342505D
:10038000AEE1CC78022C0BD10C7804256C430559D6
:100390001D40D54C2C430D780426754344510AE08A
:1003A0000C7804256C430559D04C2C4014430D782F
:1003B0000426754344513C4D0C78082674432C594F
:1003C000240C24040E7808277E43AC510C780826B0
:1003D00074432E590C89A408A40034430F780826CE
:1003E0007743EC510C78082674432C190E780827B3
:1003F0007E43AE197668360C360466600C780826A3
:1004000074432C190E7808277E43AE1977684E89FD
:10041000B608B6003E4366604C78002C00D012E16E
:100420000C7804267443045964040AD50C78042615
:10043000744306591E40934C34430F780426774387
:10044000C4510C7804267443045964060AD50C7808
:100450000426744304592340144C1C430B7804268F
:100460007343C4504B78002B50D10B78082463435E
:10047000EB589B019B090C78082674432B510B69A0
:10048000002B19D10B7808246343EC5880231B06FA
:1004900023430C78082674432B5136E08F89FF07DD
:1004A000808000008F8FFF0700980040C080000010
:1004B000BF8FFF078FBFFF070B693F2B10D20B6960
:1004C0005B080C7CE40700D55B1C0C7808267443A1
:1004D0002C599B0623430C78082674432B5114E0B7
:1004E0000B695B090C7CE406E40E002C00D15B1E5A
:1004F0000C78082674432C599B0623438024240639
:100500001C430B7808267343EC5016E04B78012B04
:1005100013D10B7808246343EB589BB20C78082660
:1005200074432B510B7808246343EC580B691B046C
:1005300023430C78082674432B514B78002B4AD167
:100540000B7808246343EB180C78082674432C19A5
:100550006468A401A4095C600B69002B0DD10B78C1
:1005600008246343EB180C78082674432C1964683C
:1005700080252D0625435D602CE00B693F2B12D2B0
:100580000B695B080C7CE40700D55B1C0C78082623
:1005900074432C190E7808277E43AD196D689B06AD
:1005A0002B43636016E00B695B090C7CE406E40EE8
:1005B000002C00D15B1E0C78082674432C190E7891
:1005C00008277E43AD196D689B062B4380252D06B9
:1005D0001D4365601AE04B78012B17D10B78082476
:1005E0006343EB180C78082674432C196468A4B292
:1005F0005C600B7808246343EB180C78082674437E
:100600002C1964680D692D0425435D600B78042462
:100610006343C458A34B2340802464015C4080237F
:100620009B01634013430C7804256C4303510B7802
:1006300004246343C4589C4B23401A430978042381
:10064000594342504CE00C7804256C43045964042F
:100650000AD50C7804256C4305591D40094C2C43E0
:100660000D780426754344510C7804256C430459D5
:1006700064060ED50C7804256C43045923408B4C3A
:1006800002E000BF80C000001C430B7804256B43D0
:10069000C450CB78012B0DD00B7804246343C3588E
:1006A000814C1C402023634013430C7804256C4389
:1006B00003510AE00B7804246343C4587A4B234067
:1006C00013430C7804256C4303510B7804246343D3
:1006D000C458744B23401A430978042359434250A9
:1006E00068460078F2BD0000808100008F8EFF0711
:1006F00030B50A7B002A40D14A78002A1ED00A78F9
:1007000004235A43825852060BD50A7804235A43CD
:100710008258674B1340654A1A430B78042463439D
:10072000C2500A7804235A4383585F4A1A40614BE7
:1007300013430978042251434350B0E00A7804235C
:100740005A43825852040BD50A7804235A438258DC
:10075000574B1340584A1A430B7804246343C25042
:100760000A7804235A4383584E4A1A40514B134384
:10077000097804225143435091E04A78002A47D136
:100780000A7804235A43825852040BD50A7804236A
:100790005A438258464B1340474A1A430B78042465
:1007A0006343C2500A7804235A43825852060BD539
:1007B0000A7804235A4382583D4B13403B4A1A435C
:1007C0000B7804246343C2500A7804235A438258A6
:1007D000374B1340354A1A430B7804246343C25005
:1007E0000A7804235A4382582E4B1340314A13434C
:1007F0000C7804256C4303510B7804246343C458DC
:10080000294B23401A43097804235943425046E0B8
:100810000A7804235A43825852040BD50A780423D9
:100820005A438258224B1340234A1A430B7804241C
:100830006343C2500A7804235A43825852060BD5A8
:100840000A7804235A438258194B1340174A1A4313
:100850000B7804246343C2500A7804235A43825815
:10086000134B1340144A1A430B7804246343C250B9
:100870000A7804235A4382580B4B13400D4A134302
:100880000C7804256C4303510B7804246343C4584B
:10089000044B23401A430978042359434250002053
:1008A00030BD00008FBFFF07BF8FFF07C080000073
:1008B0008F8FFF078080000080C00000F8B5060021
:1008C0000C006078012800D010E32069A1698842FB
:1008D00001D2256900E0A569207B00281BD12B00EF
:1008E0009BB2E2886169300000F04AFCBC48217884
:1008F00008225143415889B2227808235A43815033
:1009000021780822514341582A040A4321780823B8
:1009100059434250D9E2E078022800D0FFE1206933
:10092000216A884200D3D1E120780421484330581D
:10093000AC490140AC48084321780422514370502F
:10094000206A401B2062207804214843305840062A
:1009500000D4DAE06078002845D1A1482178082247
:1009600051434118227808235A4382185268920151
:1009700092094A60002D0DD1217808225143411877
:10098000227808235A4380184068802212060243C6
:100990004A6027E03F2D10D26908EA0700D5491CBC
:1009A000227808235A438218237808277B43C018EB
:1009B000406889060143516014E06909EA06D20ED5
:1009C000002A00D1491E227808235A43821823782E
:1009D00008277B43C0184068890601438020000631
:1009E000084350601AE06078012817D17C482178CC
:1009F000082251434118227808235A43821852682A
:100A000092B24A6021780822514341182278082383
:100A10005A43801840682A0402434A6062892B00C6
:100A20009BB292B26169300000F0AAFB6069401984
:100A300060612069216A884203D2206A401B2062DB
:100A400002E0256A00202062607800283DD16448D9
:100A500021780822514341588901890922780823C5
:100A60005A438150002D0BD121780822514342581E
:100A7000802109061143227808235A43815023E03C
:100A80003F2D0ED26908EA0700D5491C22780823B9
:100A90005A43825889061143227808235A438150C9
:100AA00012E06909EA06D20E002A00D1491E227816
:100AB00008235A43825889061143802212060A43AA
:100AC000217808235943425016E06078012813D159
:100AD0004348217808225143415889B2227808239B
:100AE0005A43815021780822514342582904114326
:100AF000227808235A43815022892B009BB292B25C
:100B00006169300000F03CFBDFE1607800283DD1F6
:100B100033482178082251434158890189092278B4
:100B200008235A438150002D0BD1217808225143CC
:100B30004258802109061143227808235A438150E4
:100B400023E03F2D0ED26908EA0700D5491C227820
:100B500008235A43825889061143227808235A43AE
:100B6000815012E06909EA06D20E002A00D1491E1E
:100B7000227808235A43825889061143802212069C
:100B80000A43217808235943425016E0607801282F
:100B900013D11348217808225143415889B2227851
:100BA00008235A438150217808225143425829048E
:100BB0001143227808235A43815022892B009BB28B
:100BC00092B26169300000F0DBFA6069401960613F
:100BD0002069216A884209D2206A401B206208E00D
:100BE000009800408F8FFF0780810000256A002059
:100BF00020626078002845D1C748217808225143F7
:100C00004118227808235A438218526892019209A7
:100C10004A60002D0DD121780822514341182278D5
:100C200008235A43801840688022120602434A6013
:100C300027E03F2D10D26908EA0700D5491C227829
:100C400008235A438218237808277B43C01840683A
:100C500089060143516014E06909EA06D20E002AB0
:100C600000D1491E227808235A4382182378082786
:100C70007B43C01840688906014380200006084372
:100C800050601AE06078012817D1A3482178082223
:100C900051434118227808235A438218526892B26D
:100CA0004A602178082251434118227808235A4388
:100CB000801840682A0402434A6062892B009BB274
:100CC00092B26169300000F05BFAFEE0236A20789E
:100CD000042148433058BB490140BB4808432178B0
:100CE0000422514370508C482178082251434158C6
:100CF00089B2227808256A4381502178082251431D
:100D0000425819041143227808256A4381502289E8
:100D10009BB292B26169300000F032FAD5E0206AED
:100D2000401B2062207804214843305840066CD58F
:100D30006078002845D1784821780822514341182D
:100D4000227808235A4382185268920192094A6015
:100D5000002D0DD121780822514341182278082313
:100D60005A43801840688022120602434A6027E0F6
:100D70003F2D10D26908EA0700D5491C22780823C4
:100D80005A438218237808277B43C0184068890695
:100D90000143516014E06909EA06D20E002A00D12D
:100DA000491E227808235A438218237808277B4358
:100DB000C01840688906014380200006084350603F
:100DC0001AE06078012817D153482178082251434E
:100DD0004118227808235A438218526892B24A6016
:100DE0002178082251434118227808235A43801859
:100DF00040682A0402434A6062892B009BB292B287
:100E00006169300000F0BCF95FE0607800283DD1F6
:100E100041482178082251434158890189092278A3
:100E200008235A438150002D0BD1217808225143C9
:100E30004258802109061143227808235A438150E1
:100E400023E03F2D0ED26908EA0700D5491C22781D
:100E500008235A43825889061143227808235A43AB
:100E6000815012E06909EA06D20E002A00D1491E1B
:100E7000227808235A438258890611438022120699
:100E80000A43217808235943425016E0607801282C
:100E900013D12148217808225143415889B2227840
:100EA00008235A438150217808225143425829048B
:100EB0001143227808235A43815022892B009BB288
:100EC00092B26169300000F05BF920780421484358
:100ED0003158A748084010214140202048403A4955
:100EE000014320780422504331503DE0207B00280C
:100EF0003FD1A069002811D1E07800280ED12078D8
:100F00000421484330589B4901409B4808432178BD
:100F10000422514370500DE00098004020780421D5
:100F20004843305827490140274808432178042284
:100F3000514370502069A169884217D2A069216984
:100F4000401AA0612078042148433158A548084040
:100F50008021490141408020800148401A490143D5
:100F600020780422504331500020F2BD0020A061BF
:100F7000E8E7E07802281CD1E0690028E2D0207878
:100F800004214843305898490A0002400B0092B2AD
:100F90009A4201D00842D5D12078042148433058E4
:100FA00074490140A94808432178042251437050F4
:100FB000C8E7E078012802D10020A061C2E7012043
:100FC000D3E700008F8EFF078080000000B54A78CD
:100FD000002A0ED00A7804235A438358644A1A40E0
:100FE000102353409A4A1A43097804235943425024
:100FF0000EE00A7804235A4383587A4A1A40802321
:101000005B015340924A1A430978042359434250E2
:10101000002000BD10B54A78002A23D00A780423A6
:101020005A43825852060BD50A7804235A438258F1
:10103000504B1340854A1A430B7804246343C25033
:10104000CA78012A32D00A7804235A438358484A7E
:101050001A40202353407E4A1A43097804235943F7
:10106000425023E00A7804235A43825852040BD595
:101070000A7804235A4382583E4B1340754A1A4358
:101080000B7804246343C2500A7804235A438358DC
:10109000544A1A4080235B015340802292015A40F7
:1010A0006B4B13430978042251434350002010BD79
:1010B00000B54A78012A21D10A7B002A40D1CA789A
:1010C000012A0ED00A7804235A438358284A1A402A
:1010D000202353405E4A1A4309780423594342505F
:1010E0002EE00A7804235A438358214A1A40584B69
:1010F0001343097804225143435021E00A7B002A1C
:101100001ED1CA78012A0FD00A7804235A43835883
:10111000344A1A4080239B0153404D4A1A430978B0
:101120000423594342500BE00A7804235A4383585E
:101130002C4A1A40464B134309780422514343502A
:10114000002000BD00B5C9B2002901D18021C164D1
:10115000002000BD816D802212020A4382650020BA
:101160007047816D3C4A0A4082650020704700004C
:10117000BF8FFF078F8FFF0780810000406C704793
:10118000F0B5180080B2C01C84089E07B60F0F008F
:10119000300080B2002800D0641E92B22F4815188B
:1011A00009E0380000F05CF828602D1D781C401C18
:1011B000401C471C641E002CF3D1300080B2002874
:1011C0000FD000203978220008235A439140014370
:1011D0000800641C7F1C761E310089B20029F1D101
:1011E0002860F0BD8FBFFF0740400000F0B5180039
:1011F00080B2C01C84089E07B60F0F0092B2174839
:101200001518300080B2002800D0641E09E028685C
:10121000390000F04FF82D1D781C401C401C471C65
:10122000641E002CF3D1300080B200280DD0286855
:101230002100082251430200CA403A70641C7F1CFE
:10124000761E310089B20029F2D1F0BDC0800000C5
:101250008080000080C00000FF7FFFFF00980040FA
:10126000C3788278417800781B021A43090212047D
:1012700008431043704730B501684118446862085C
:101280008A188368E40704D54C461B1901E0641CE6
:1012900009D1914203D00C7864B2491C01E00C30B2
:1012A00030BD0D78491C1D705B1C002CEFD4641EF2
:1012B000F7D5EEE784460870000A4870000A887087
:1012C000000AC8706046704780B50A20009002E0AE
:1012D0000098401E009000980028F9D1634889B218
:1012E00008224A4380184068000C8005800D02BD2A
:1012F00080B50A20009002E00098401E00900098FF
:101300000028F9D1594889B208224A438058000C74
:101310008005800D02BD80B50A20009002E0009893
:10132000401E009000980028F9D1504889B2082248
:101330004A4380184068000C8005800D02BD38B516
:101340000400002C01D101208EE0B948205C002867
:1013500006D10020A52189006054200001F05CF82E
:101360000320B34960542068FEF7B0FE0025280032
:1013700026E001210200D2B228235A43A218517557
:101380000100C9B2282251436118087529000200E2
:10139000D2B228235A43A218D1750100C9B228221B
:1013A000514361184D620100C9B2282251436118AE
:1013B0008D620100C9B2282251436118CD62401CE0
:1013C00001002279C9B29142D3D3280032E029002A
:1013D0000200D2B228235A43A218FF235633D15415
:1013E0000100C9B2282251436118AA225200885430
:1013F00029000200D2B228235A43A218FF235833EF
:10140000D1540100C9B2282251436118B2225200BE
:101410008D500100C9B2282251436118B4225200F4
:101420008D500100C9B2282251436118B6225200E2
:101430008D50401C01002279C9B29142C7D3211DB1
:1014400083B068460D2201F033F80EBC2068FEF729
:101450005BFE6574012076496054207B012802D12F
:10146000200001F055F8002032BD00000098004037
:1014700010B50400A5208000205C012801D10220C5
:101480000EE00120A521890060542068FEF718FEB7
:101490002068FFF75FFE0020A5218900605400202E
:1014A00010BD10B50400A5208000205C012801D1EA
:1014B00002200EE00120A521890060542068FEF77B
:1014C00005FE2068FFF74DFE0020A521890060542D
:1014D000002010BD10B504002068FFF74FFE010486
:1014E00003D5200000F02AFAA1E041050DD52068BF
:1014F000406C5049014020684164200001F0BAF975
:101500000021200000F0A6F891E0410406D52068F3
:10151000406C494901402068416488E0810406D557
:101520002068406C45490140206841647FE0C10467
:1015300022D52068006C0421884321680864206853
:10154000006C0821884321680864B3208000205C77
:10155000012807D10020B321890060540021200018
:1015600001F0DCF9200001F0B4F92068406C344946
:101570000140206841645AE0010515D52068006CDF
:1015800008210143206801642068406C2D49014016
:10159000206841642068006C0421014320680164D4
:1015A000200001F087F942E001062BD52068406C4D
:1015B0002549014020684164B3208000205C002858
:1015C0001CD12068006C042101432068016420685C
:1015D000006C08210143206801640120B3218900C7
:1015E00060542068406D80083C210140B420800098
:1015F00021500121200001F091F902E0200001F0CA
:1016000059F914E0810509D52068406C0F49014063
:1016100020684164200001F06FF908E0C00506D59C
:101620002068406C0A49014020684164FFE710BD12
:1016300095020000FFFB0000FFBF0000FFDF00007D
:10164000FFEF0000FFF700007FFF0000FFFD00003C
:10165000FFFE000010B50400A5208000205C0128DA
:1016600001D102200DE00120A5229200A054617456
:10167000C9B22068FFF766FD0020A52189006054EB
:10168000002010BDF8B5040000252E0008060AD57C
:101690000800C0B24007400F2827784320181430B4
:1016A000012747700AE00800C0B24007400F282712
:1016B00078432018AA277F00C01945704907490FB1
:1016C000017092B25105490D0161C370DBB2022B6A
:1016D00000D10571A5218900615C012901D1022099
:1016E0000CE00121A5229200A15401002068FEF720
:1016F00025FDA520800025543000C0B2F2BD10B5F4
:10170000040008060AD50800C0B24007400F28228E
:10171000504320181430012242700BE00800C0B280
:101720004007400F282250432018AA225200801858
:10173000002242704907490F0170A5218900615CB0
:10174000012901D102200CE00121A5229200A1541F
:1017500001002068FEF7CCFF0020A521890060541D
:10176000002010BD70B507250C00E4B22C402826DF
:1017700074430419AA267600A4196261A3610022A9
:10178000E26162700D40257021000068FFF796F855
:10179000002070BDC9B24907490F282251434018A3
:1017A000B821490040587047F8B507250C00E4B24D
:1017B0002C4028267443041914346261A361012269
:1017C00016002427E65523620023E36162700D4072
:1017D000257021000068FFF771F80020F2BD38B5D0
:1017E0000400072220790B00DBB21340984201D29B
:1017F00001202DE0080609D50800C0B210402823BA
:101800005843201814300123437009E00800C0B287
:10181000282358432018AA235B00C01800234370D4
:1018200001231D0085700A400270A5218900615CBA
:10183000012901D102200BE0A52189006354010098
:101840002068FFF7C3FB0020A52189006054002019
:1018500032BD38B5040020790A00D2B21207120F47
:10186000904201D2012030E008060AD50800C0B23B
:101870004007400F282250432018143001224270A4
:101880000BE00800C0B24007400F28225043201848
:10189000AA22520080180022427000258570490754
:1018A000490F0170A5218900615C012901D1022045
:1018B0000BE00121A5229200A15401002068FFF74E
:1018C000A9FBA52080002554002032BD80B50A0662
:1018D00007D5C9B24907490F28225143411814318D
:1018E00008E0C9B24907490F282251434118AA22EA
:1018F000520089180068FFF7DBFBC0B202BD10B5CB
:101900000400A5208000205C012801D1022014E001
:101910000120A5229200A054080606D5C9B24907A5
:10192000490F2068FEF705FC02E02068FEF703FC83
:101930000020A52189006054002010BDF8B50400E6
:1019400026E020680168C548084007432068076012
:1019500025001435C2482978082251434058000C0C
:101960008005800DE8616869E969401868610021B7
:10197000200000F0ADFE607C002809D0A869002896
:1019800006D1607C802101432068C164002060741E
:1019900080273F022068406C3840002800D1D3E106
:1019A0002068406C01000907090F6A4611706946FA
:1019B0000978002963D1C006C3D5AA2040002518A4
:1019C000206800688026360130421AD0297889B212
:1019D0002068FFF779FCE861EB699BB2EA88A720F1
:1019E000800021182068FFF701FC206801689D48ED
:1019F00008408021014320680160200000F00FFEB4
:101A0000C6E73842C4D02068016896480840802163
:101A1000014320680160297889B22068FFF754FCEF
:101A2000E861E869002811D0686900280ED0EB69E8
:101A30009BB2EA8869692068FFF7D8FB6869E969A1
:101A4000401868610021200000F0BEFE2068006898
:101A500030429DD1C021890180B20840884297D090
:101A600020680168B9480840802149014140802030
:101A700080014840B64901432068016088E720683A
:101A800069460978042251434058694648806846AF
:101A90004088384200D189E02068694609780422EC
:101AA000514340586F4901408020084321686A46ED
:101AB000127804235A438850684600782821484306
:101AC0002018AA2149004618307B002811D131780E
:101AD00089B22068FFF7F8FB0500280080B20028D3
:101AE0004AD02B009BB2F28871692068FFF77EFB19
:101AF00042E0F078022807D1684642883100200091
:101B000000F028F9050037E02068317804225143BD
:101B10004058B5490140B54808432168327804234C
:101B20005A43885020683178042251434058400479
:101B300011D5317889B22068FFF7DAFB050028005B
:101B400080B2002818D02B009BB2328971692068BE
:101B5000FFF74CFB10E0317889B22068FFF7DBFB20
:101B60000500280080B2002806D02B009BB27289A5
:101B700071692068FFF73AFBF069290089B24018C3
:101B8000F0617069290089B240187061B06900285D
:101B900003D0ADB23069854204D23178200000F024
:101BA00013FE03E031002068FEF788FE6846408897
:101BB000000600D4ECE66846007828214843201847
:101BC0000100143120686A46127804235A4382586F
:101BD00022481040074320686A46127804235A437B
:101BE0008750C87801287BD100208861087B0028B5
:101BF00071D068464088400636D54878002816D10E
:101C000017480A7808235A438258920192090B78A0
:101C100008256B43C2500A7808235A438358802210
:101C200012061A430B7808256B43C25014E048781B
:101C3000012811D10A480A7808235A43825892B2DF
:101C40000B7808256B43C2500A7808235A43825800
:101C50000B7808256B43C2503DE000BF0F8FFF0794
:101C6000009800408F0FFF07487800281AD183485A
:101C70000A7808235A4382180B7808256B43C31847
:101C80005B689B019B0953600A7808235A438218BA
:101C90000B7808256B43C018406880231B0603435C
:101CA000536018E04878012815D174480A78082351
:101CB0005A4382180B7808256B43C3185B689BB2A4
:101CC00053600A7808235A4382180B7808256B431F
:101CD000C018406850600978200000F0F9FC57E611
:101CE00068464088C00529D464480A7808235A43C6
:101CF0008058000C8005800D020092B28B699A42D8
:101D000005D28A6903009BB2D21A8A6101E00022DF
:101D10008A618A69002A04D10978200000F0D8FC81
:101D200036E64A6903009BB2D2184A61CA6980B29A
:101D30001018C8612068FEF7C1FD29E66846428890
:101D4000200000F0A1F823E60020F2BD8FBFFF07BE
:101D500080800000F8B507000C001500680447D526
:101D6000217889B23868FFF7C3FA0600A06931000C
:101D700089B2884205D3A069310089B2401AA061B6
:101D800001E00020A061A069002810D13868217806
:101D90000422514341583A4808408021890141407A
:101DA000944808433968237804225343C85068068E
:101DB0000DD5386821780422514340580A49014022
:101DC0000A4808433968227804235A43885030006F
:101DD00080B200284ED033009BB2228961693868F6
:101DE000FFF704FA46E000BF8F8FFF07C0800000B6
:101DF000217889B23868FFF78EFA0600A0693100B1
:101E000089B2884205D3A069310089B2401AA06125
:101E100001E00020A061A069002810D13868217875
:101E2000042251434158164808408021890141400D
:101E3000704808433968237804225343C850680621
:101E40000DD4386821780422514340586A49014032
:101E50000C4808433968227804235A4388503000DC
:101E600080B2002806D033009BB26289616938686D
:101E7000FFF7BCF9300080B2F2BD000000980040CE
:101E80008FBFFF07C0800000F8B506000C001500EA
:101E9000680600D440E1217889B23068FFF728FA5B
:101EA000010089B2A269914205D2A169020092B2F1
:101EB000891AA16101E00021A161A169002900D076
:101EC0008EE06078002816D1C54821780822514359
:101ED000415889018909227808235A438150217881
:101EE00008225143425880210906114322780823D1
:101EF0005A43815014E06078012811D1B848217804
:101F000008225143415889B2227808235A4381500C
:101F10002178082251434158227808235A4381509E
:101F2000607800281AD1AE48217808225143411820
:101F3000227808235A4382185268920192094A6013
:101F40002178082251434118227808235A438018E7
:101F500040688022120602434A6018E06078012837
:101F600015D19F482178082251434118227808232F
:101F70005A438218526892B24A602178082251432B
:101F80004118227808235A43801840684860E07856
:101F900002280FD130682178042251434158C648A5
:101FA0000840202141401348084331682278042327
:101FB0005A4388502178300000F08AFB68040DD520
:101FC000306821780422514341580B480840BB49EE
:101FD00001433068227804235A4381500020FAE1FB
:101FE000690413D53168227804235A438958024A78
:101FF00004E000BF808000008F8FFF070A40AF49D8
:1020000011433268237804256B43D1502421615C4D
:10201000012900D0CCE16169020092B289186161A6
:10202000E169020092B28918E161216A2269914254
:1020300004D32069216A091A21620DE0216A00296E
:1020400004D180B200212422A15405E0002108001F
:102050002422A054206A2162617800293DD1604980
:10206000227808235A438A58920192092378082536
:102070006B43CA5000280BD1227808235A438B584F
:10208000802212061A43237808256B43CA5023E0A6
:102090003F280ED24208C30700D5521C23780825DA
:1020A0006B43CB5892061A43237808256B43CA50DA
:1020B00012E04209C306DB0E002B00D1521E23782A
:1020C00008256B43CB5892061A4380231B06134303
:1020D000227808256A438B5016E06178012913D1D4
:1020E0003F49227808235A438A5892B22378082518
:1020F0006B43CA50227808235A438B5802041A4370
:10210000237808256B43CA5003009BB2228961697A
:102110003068FFF735F84BE1217889B23068FFF776
:10212000FAF8A169020092B2914205D3A1690200B6
:1021300092B2891AA16101E00021A161A16900297F
:1021400000D091E06078002816D125482178082237
:102150005143415889018909227808235A43815003
:1021600021780822514342588021090611432278E0
:1021700008235A43815014E06078012811D118488F
:10218000217808225143415889B2227808235A43C2
:1021900081502178082251434158227808235A431C
:1021A0008150607800281DD10D48217808225143C4
:1021B0004118227808235A438218526892019209E2
:1021C0004A602178082251434118227808235A4353
:1021D000801840688022120602434A601BE000BF5C
:1021E000009800406078012815D17B4821780822AA
:1021F00051434118227808235A438218526892B2F8
:102200004A602178082251434118227808235A4312
:10221000801840684860E07802280FD13068217843
:1022200004225143415824480840202141406B4832
:1022300008433168227804235A43885021783000BB
:1022400000F046FA68040DD4306821780422514326
:1022500041586348084019490143306822780423F3
:102260005A4381500020B6E069040DD431682278C9
:1022700004235A4389585A4A0A4010491143326884
:10228000237804256B43D1502421615C012900D0BF
:102290008EE06169020092B289186161E169020011
:1022A00092B28918E161216A2269914208D32069BA
:1022B000216A091A216210E0BF8FFF0780C0000069
:1022C000216A002904D180B200212422A15404E013
:1022D000206A002121622422A1546178002945D17D
:1022E0003D49227808235A438A18237808256B43EE
:1022F000CB185B689B019B09536000280DD12278A5
:1023000008235A438A18237808256B43C91849685B
:1023100080231B060B43536027E03F2810D242085E
:10232000C30700D5521C237808256B43CB182578AA
:1023300008277D434919496892060A435A6014E008
:102340004209C306DB0E002B00D1521E237808255C
:102350006B43CB18257808277D43491949689206B5
:102360000A4380210906114359601AE06178012966
:1023700017D11949227808235A438A182378082547
:102380006B43CB185B689BB25360227808235A4397
:102390008A18237808256B43C918496803040B433E
:1023A000536003009BB2628961693068FEF7E8FE02
:1023B000306821780422514341580A4808401021CE
:1023C00041402020484005490143306822780423D9
:1023D0005A4381500020F2BD0098004080800000E8
:1023E0008F8FFF07BF8FFF0780B52148214901600C
:1023F000082101710221C171417200218172C172F3
:10240000017341738173C1730174FEF798FF002853
:1024100001D000F033FB01BD18B589B004002021C4
:10242000002201A800F02EFB2068124988421CD12E
:10243000082001900020069001A800F04BFB002826
:1024400001D000F01BFB802080010B490A68024389
:102450000A600968084000900098002200210820C6
:1024600000F04FFC082000F051FC0AB010BD000045
:1024700034410020005C00403C10024070B4103A2F
:1024800003D378C9103A78C0FBD2530701D318C9D7
:1024900018C001D508C908C0D20704D30B8803802F
:1024A000891C801C002A01D50B78037070BC704712
:1024B0008B0701D18307E1D0124205D00B78491C6C
:1024C0000370401C521EF9D17047002010B50C0655
:1024D00007D589B24907490F2824614340181430B1
:1024E00006E089B228244C430019AA21490040186B
:1024F00092B2002A03D100210173C38006E00121BA
:102500000173190001811900090C4181002010BDDF
:1025100010B401680122B5239B00C2500023B324EC
:10252000A4000355486D02434A65486D02220243E8
:102530004A65002010BC704780B502000800802169
:1025400091720121117200F0F7FB01BD38B5040052
:1025500008001500002141628021A17200F0ECFB0F
:10256000002807D128000321217200230022002126
:10257000FFF71AF931BD38B50400080015008021B5
:10258000A17200F0D9FB002807D128000421217294
:10259000002300220021FFF707F931BDF8B505003F
:1025A0002C1D20680700203700F073FD6268802131
:1025B000C9000A4202D000F070FD2FE0C026B6002C
:1025C0001640002E02D100F068FD27E06268B84B8B
:1025D0001340636062681143616000F05EFD80201B
:1025E0004000864204D0C0208000864205D00BE027
:1025F00039002000FFF7A0FF0CE0C4202A58390062
:102600002000FFF7A3FF05E0C4202A58390020006E
:10261000FFF7B1FF6068B64901406160F1BDF1B5F7
:1026200082B0B4480068C06900900098041D20681A
:102630000600203608220298A721890041183000A0
:102640003C3000F0BBFD0025B56101207060756273
:1026500060680E21884360603C20305C000605D530
:102660006068802149000143616030E02800A07269
:102670004220305C002809D14320305C002805D17D
:102680006068802189000143616020E0B768300004
:10269000423000F09EFD70617069FF21891C884204
:1026A0000AD33900009800F09BFD257260688021F4
:1026B0008900014361600AE0B561F06830617369C7
:1026C0003269B97B0298FFF74DF802202072F7BDFE
:1026D000F8B5884A1268D2690F231C00214208D03D
:1026E0000C00E4B223400C246343D2181500643577
:1026F00006E00C00E4B223400C246343D218151DFD
:102700002A681400203407000800C0B2002840D115
:10271000A668287A012856D100230022002138001B
:10272000FFF720F8308AE16988421ED3A06B0128A8
:1027300008D100230022B17B3800FFF735F80020D4
:10274000A06340E000206062022020606069A06118
:102750006868082101436960E06A002802D020000F
:10276000E16A8847042028722DE0E069318A431A23
:10277000308A984200D2338A2069318A4018206119
:10278000E069C01AE0612269B17B3800FFF70CF8FC
:1027900019E0A06B00280CD06069002809D0002047
:1027A000A063E06100230022C9B23800FEF7FCFFFD
:1027B00009E000206062022020606069A061686812
:1027C000082101436960F1BDF8B507004948006878
:1027D000C0690A00D2B21207120F0C235A438018A4
:1027E000051D2868040020340800C0B2002833D139
:1027F000287A02283DD1A668C9B23800FEF7CAFF80
:10280000A1690918A1616169A269914217D3A169FF
:102810006269914202D0318A884205D06868C0213D
:1028200089000143696024E02069318A40182061F1
:10283000338A2269B17B3800FEF794FF19E0272024
:1028400060626868082101436960E06A002810D06E
:102850002000E16A88470CE0C9B23800FEF79AFF11
:10286000A0610020606202202060686808210143A6
:102870006960F1BD38B504001E4D2868406A002823
:1028800001D000F0BDFCE079022805D101202968C3
:10289000A2225200885004E001202968A22252009E
:1028A000885000F0F5FC01202968486231BD000025
:1028B000FFFCFFFF80B50F490868B4225200805822
:1028C000002805D0F4200968B422520089588847AE
:1028D00001BD80B507490868B4225200805800281D
:1028E00005D0F3200968B42252008958884701BDF9
:1028F000FFFBFFFFCC4C002080B507490868B422DD
:1029000052008058002805D0F0200968B4225200F7
:102910008958884701BD0000CC4C00207047FEE775
:1029200010B500F04FFD00F03FF800F059FD00F049
:1029300013FB002000F06AFD012000F067FD01217B
:10294000002000F001FE4249E1204002086000241E
:102950004C602000088120004881200088810020F0
:1029600000F060FE002801D000F088F839493A48AC
:1029700000F0E6FE394800F0E3FE002000F095FD8F
:10298000012000F092FD00F044F83548016801296B
:1029900006D10460002000F0B8FD012000F0B5FD74
:1029A000002000F082FBF0E730B58DB0202100243C
:1029B000220005AD280000F065F8142122006D46C4
:1029C000280000F05FF8012526480168072291439E
:1029D000294301601120059080204002069080204C
:1029E000C0030C9005A800F0BFFE002801D000F045
:1029F00045F8072000900195029403940494012166
:102A0000684601F03FF8002801D000F037F80DB01B
:102A100030BD00B5002006E00100134A115401004A
:102A2000124A1154401C802109018842F4D300BD90
:102A300000B5C0B200280AD1012009490860010090
:102A40000B4A117001000B4A11700B49087000BD50
:102A5000F44B0020BC860008B48600086C86000891
:102A6000404C00200020024034290020343900204E
:102A7000DA4C0020DB4C0020DC4C002000B572B6A4
:102A8000FEE7FEE71206130A1A43130C1A4300BFAF
:102A9000094205D0830705D00270401C491EF9D1B8
:102AA000704700001300103906D330B4140015002D
:102AB00010393CC0FCD230BC490700D30CC000D553
:102AC00004C0890002D30280801C002900D5027056
:102AD0007047FEE7FEB5040000273D003800694658
:102AE0000870207840064BD580204005444909688D
:102AF0000140002908D142490A6802430A60096876
:102B000008400190019801273E4E3168C0208000A6
:102B1000084000280FD0E16988420CD031683A485B
:102B200008403168802252020A4332603168374AD5
:102B30000A4032603060C0070DD501F0DFF8019027
:102B40003068800707D401F0D9F80199401A30495C
:102B50008842F5D303252800C0B2002806D130688A
:102B600029490140E0690843306001E0684605708A
:102B7000FFB2012F04D122480168264A0A400260B0
:102B80002078C00706D52448016803229143A26833
:102B90000A4302602078800706D51F4801681F4A53
:102BA0000A40E168114301602078800606D51A4882
:102BB000016889008908A2690A4302602078000739
:102BC00006D517480168174A0A4061691143016038
:102BD0002078400706D510480168134A0A40216949
:102BE000114301602078000606D510480168E022F4
:102BF000914362680A43026068460078FEBD0000A7
:102C00003C1002405C100240FFFCFFFFFFFFFEFF94
:102C100089130000FFFFFFEF54100240FFCFFFFFBA
:102C200058100240FFEFFFFFFF3FFFFF0010024080
:102C300000B5010049B2002905D40121C006C00E2B
:102C400081403748016000BDF0B5020052B2002A51
:102C50001BD40322334B040064B2A40804256C4344
:102C60001C59FF251600064008277E43B540AC439B
:102C70008901C9B2024008256A439140214340B20C
:102C8000800804225043195022E00F24264B0322CF
:102C900005006DB22540083DAE0804256E430500D1
:102CA0006DB22C40083CA40804256C431F59FF2436
:102CB000A44615000540082465436446AC40A7437C
:102CC0008901C9B2024008204243914039439951D9
:102CD000F0BD80B5411E80225204914201D30120F3
:102CE0000EE0401E1149086003210020C043FFF799
:102CF000ABFF00200E49086007200E490860002045
:102D000002BD80B540B2FFF79FFF01BD80B540B264
:102D1000FFF78EFF01BD80B5FFF7DBFF02BD0000AE
:102D200000E100E000E400E01CED00E014E000E061
:102D300018E000E010E000E0F0B591B00400FF26DC
:102D40008448006801908348006807002437606A5F
:102D5000002800D0FAE03C20205C00903D20205C60
:102D6000039020003E3000F034FA0500200040308F
:102D700000F02FFA02902000423000F02AFA04906E
:102D80000398062802D0039807280AD1280A602150
:102D90000140002905D0009860218843202101438B
:102DA0000091602000990140402932D169490968A9
:102DB000B8225200895800292BD00399654A12681D
:102DC000B6235B00D258914223D180204000059069
:102DD00005A80190E0680090049B029A29000398DE
:102DE0005C4C2468B8256D006459A04700280AD1BE
:102DF00038001830203003218162049A059900F0D0
:102E000083FF0020A3E03800183000F08FFF00207F
:102E10009DE000990140202903D0009908404028F6
:102E200037D104200690002500E06D1C102D28D21B
:102E300048480068042169434018822149004158EC
:102E40000029F2D000988007800F012812D1009845
:102E5000A1280BD10398002808D1086E407C0728D0
:102E600004D14120205CA84204D0DEE70298C0B221
:102E7000A842DAD10E9106A8496C88470600002EB8
:102E8000D3D1002E03D03800183000F04FFF3000AF
:102E90005DE00398002814D0012819D003281ED023
:102EA000052823D006282BD0072830D0082830D07A
:102EB000092832D00A2835D00B2838D00C283CD02D
:102EC0003DE0049A0299009800F054FF060037E0B4
:102ED000029A2900009800F0A5FF060030E0029A4F
:102EE0002900009800F0DEFF060029E00198456106
:102EF0002A0011210198019B9B69984706001FE059
:102F0000049A0299280001F00DF8060018E05426F2
:102F100016E001F079F9060012E0280001F08AF9C4
:102F200006000DE0029801F0A9FA060008E0290069
:102F3000029801F0C7FA060002E0002600E05426DD
:102F4000002E03D03800183000F0F0FE300011B031
:102F5000F0BD00BFCC4C0020F8B58AB00024099425
:102F60007C48002300228021890101F015FC002803
:102F700001D0FF208BE008A9012001F017FC070019
:102F800007A9002001F012FC050006A801F03AFC98
:102F9000060005A801F088FC002104910599039121
:102FA0000290069801900096079B2A000899380025
:102FB00002F094F9002801D0FF2068E0664D6748D0
:102FC000286067486860022001F0B0FCA860022019
:102FD00001F0C0FC2861EC60624868616248A86149
:102FE000624E0221012001F09DFC3060604C022104
:102FF000012001F06DFC20600095236832685D4976
:103000005D4802F09BFA002801D0FF203FE05B4CB6
:103010005B4820605B4860605B48A0605B4E0021BD
:10302000022001F07FFC3060594D0021022001F0A8
:103030004FFC2860574F00942B683268390056487F
:1030400002F07CFA002801D0FF2020E0534C5448C5
:103050002060544860605448A060544E0121022012
:1030600001F060FC3060524D0121022001F030FC83
:10307000286000942B6832683900474802F05EFAF5
:10308000002801D0FF2002E000F01DF809980BB0E5
:10309000F0BDEFF3108072B6704780F31088704770
:1030A00080B5002000F02AFE02BD80B502F080FA53
:1030B00002F0AFFA02F080FB02F066FC02F0FCFCCA
:1030C00002F0E2FD01BD10B5FFF78EF9394C302357
:1030D000002200212000FFF7F9F97023002280214F
:1030E0002000FFF7F3F9B023002281212000FFF731
:1030F000EDF9F023002202212000FFF7E7F99823E1
:103100005B00002282212000FFF7E0F9B8235B007A
:10311000002283212000FFF7D9F9D8235B00002289
:1031200004212000FFF7D2F9F8235B00002284215C
:103130002000FFF7CBF98C239B0000228521200083
:10314000FFF7C4F921001C4802F06AFE2000FEF7D8
:103150008FF910BD34010020D84B0020FD55000828
:10316000035600080B5600080F5600082C4C002090
:10317000284C00205D830008A0000020044C0020A3
:10318000D5560008DB560008DD560008344C0020F8
:10319000304C00205182000888000020104C002094
:1031A0003F57000845570008475700083C4C00208F
:1031B000384C002034410020005C004000B503E0A2
:1031C0000B780370491C401C13005A1E002BF7D1CA
:1031D00000BD0178401C00780002084380B27047AF
:1031E00010B58A68536804241C4354608B7B917A21
:1031F0001943C9B2C4228058FEF7F1FA002010BD6D
:10320000F0B58DB0FF26214F3C683868243000901F
:1032100000980068032818D10098902145580FE0C5
:1032200003200290049569680A91002902D002A83F
:10323000496C8847A8690190280002F00FFE019DA3
:10324000002DEDD101200099086000980068012848
:1032500007D10098020018320F212000A369984777
:103260000600002000998022885000990860386884
:10327000B42149004058002805D00A203968B422FA
:1032800052008958884730000DB0F0BDCC4C00206A
:10329000F8B5494C2768F869009020680600243684
:1032A0002068B0214900405801280CD12068F42141
:1032B00040582168CC2288502068F8214058216865
:1032C000D022885023E000202168B022520088508C
:1032D0002068A2214900405801280CD12068D4213F
:1032E00040582168CC2288502068D8214058216855
:1032F000D02288500BE02068DC2140582168CC2285
:1033000088502068E02140582168D02288502068E9
:10331000CC214058331D0E22284902F0C5FD35004E
:10332000383527486863E868286130001830A8609D
:10333000F07AA9680882F07A686130001830A860D5
:10334000320018320E213800BB69984700210098DE
:10335000C4228058FEF7D3FA0023F27A92B20021F9
:103360000098C427C059FEF78DF980210098C42227
:103370008058FEF7C4FA0023F27A92B280210098B6
:10338000C427C059FEF77EF90020F0610121696071
:10339000296008216961E961A8612068B4214900B8
:1033A0004058002805D001202168B42252008958D5
:1033B00088470020F2BD00BFCC4C0020BC0000209C
:1033C0001027000010B50024032002F09DFD002806
:1033D00001D0012401E002F0C5FD2000C0B210BD03
:1033E00081B0202008490A6802430A600A68104038
:1033F0000090009801200A6802430A6009680840AA
:103400000090009801B0704734100240F8B586B0C3
:103410000400002007002100C9B2002906D02100C5
:10342000C9B2012902D00127FF433BE02100C9B204
:10343000002909D1012243490B6813430B60096835
:103440000A400092009908E004223E490B681343A9
:103450000B6009680A40009200996B4E2100C9B2C6
:1034600002225143715A01910121029103900320DC
:1034700004906B4D01A92000C0B20422504328588B
:1034800002F08AFD2000C0B201280BD101222000E9
:10349000C0B202214843315AE4B2042044432859BF
:1034A00002F074FE380007B0F0BD38B5002401000A
:1034B000C9B2002906D00100C9B2012902D00124F5
:1034C000E44320E00100C9B200290ED101224E4997
:1034D0000300DBB202256B43C95A514BC0B204252D
:1034E0006843185802F052FE0DE0002246490300DE
:1034F000DBB202256B43C95A494BC0B2042568436D
:10350000185802F043FE200032BD10B5002401001F
:10351000C9B2002906D00100C9B2012902D0012494
:10352000E4430CE038490200D2B202235A43895ADC
:103530003B4AC0B204235843105802F031FE200029
:1035400010BD00003410024038B586B004000420DD
:103550006F4A13680343136012681040009000988C
:103560006C482200D2B202235A43805A01900120B3
:10357000039002200490C9B200290AD100200290D1
:1035800001A96548E4B204225443005902F004FD45
:1035900037E06248029001A95F482200D2B20423BA
:1035A0005A43805802F0F8FC5D4D5E482100C9B2D4
:1035B0000422514341582000C0B20C225043281825
:1035C00002F012FE58482100C9B204225143425869
:1035D00000212000C0B20C235843281802F0F0FD4F
:1035E000524D002252482100C9B204235943415888
:1035F0002000C0B22856FFF784FBE4B22857FFF73B
:1036000085FB002007B030BDCC86000880B544495A
:10361000C0B20C225043081802F0EEFD01BD0000BC
:1036200008000020F8B5040000252000C0B20028E2
:1036300002D00125ED4313E00F003E4E2000C0B242
:1036400094214843301800F02FF83900E4B2942058
:103650004443301902F0FCFD002801D00325ED435E
:103660002800F2BD70B514000D00002604E0287893
:1036700000F006F86D1C761CA642F8D3200070BD41
:1036800031B5FA239B00012269462A482A4C247846
:1036900094256C43001902F03BFE009832BD80B5C2
:1036A0000020FFF7C5F901BD70B586B001241848A8
:1036B000016821430160016821400091009901687F
:1036C0002143016000682040009000988020800223
:1036D0001A490A6802430A60096808400090009885
:1036E0000420019002250295049503940594A026D8
:1036F000F60501A9300002F04FFC08200190029568
:10370000059401A9300002F047FC06B070BD00002E
:1037100034100240CA2400081000002000002110CC
:103720001C4C0020D0860008140000202D6E0008DC
:1037300018000020F4480020DD4C00203C1002401E
:103740000EB4C0B5020003A801900020009001ABA8
:103750000121044878440C3003F0B0F8029906B017
:10376000084700BFF14E0000F8B50400002C01D15D
:1037700001206EE101252068284000284BD0B54883
:10378000016838200840082804D16068002842D128
:1037900001205EE1802040026168814204D1AE498F
:1037A0000A681043086017E06168A022D2029142C3
:1037B00009D1A9490A688023DB0213430B600A6818
:1037C0001043086008E0A4480168A44A0A40026067
:1037D0000168A34A0A400260606800280DD000F02A
:1037E0008DFA06009C480068800314D400F086FA25
:1037F000801B6528F6D303202BE100F07FFA06003A
:1038000095480068800306D500F078FA801B65288B
:10381000F6D303201DE12078800752D58D4801683A
:1038200038200840002828D1E168002901D1012072
:103830000FE18C490A688C4B1340626912021A43EB
:103840000A60002811D184490868884A024020692A
:103850001043086086480968C90A4A07520F2900C0
:10386000914003F0E4FA834908608348006802F05D
:103870004BFB002825D00120EBE0E06800282ED08B
:10388000754E3068794901402069084330603068DE
:10389000802149000143316000F030FA07003068B0
:1038A000400506D400F02AFAC01B0328F7D30320F2
:1038B000CFE06C4801686C4A0A4061690902114313
:1038C00001602078000742D5624800683821014035
:1038D000182916D1A069002839D10120B9E05E4E1F
:1038E000306866490140316000F008FA070030682E
:1038F0004005E6D500F002FAC01B0328F7D30320E9
:10390000A7E0A069002810D05D4E306828433060E1
:1039100000F0F4F907003068800718D400F0EEF9E1
:10392000C01B0328F7D3032093E0554E30680121D4
:103930008843306000F0E2F907003068800706D560
:1039400000F0DCF9C01B0328F7D3032081E004203A
:1039500021680140002950D000263E4909683822DC
:103960000A40202A04D1A068002846D1012070E036
:10397000A168012904D1A44801680D43056013E042
:10398000A168052907D1A0490A68104308600868A2
:1039900005430D6008E09C480168012291430160E5
:1039A0000168042291430160A06800280ED000F055
:1039B000A5F9050094480068800716D400F09EF928
:1039C000401B92498842F5D3032042E000F096F96B
:1039D00005008D480068800707D500F08FF9401B6F
:1039E0008A498842F5D3032033E0F6B2012E04D190
:1039F00087480168874A0A4002602078C00627D5B8
:103A0000E069002812D0144D28688021C9030143C1
:103A1000296000F073F904002868000218D400F04F
:103A20006DF9001B0328F7D3032012E00A4D286824
:103A3000A5490140296000F061F9040028680002EE
:103A400006D500F05BF9001B0328F7D3032000E044
:103A50000020F2BD0810024000100240FFFFFEFFF0
:103A6000FFFFFBFF04100240FF80FFFFFFC7FFFFC7
:103A7000006CDC021C00002000000020FFFEFFFFA5
:103A800060100240FEB50400002C01D10120BAE014
:103A9000009107258D4E306828400099884215D244
:103AA00030680721884300990143316000F026F90E
:103AB0000700306828400099884207D000F01EF9BE
:103AC000C01B52498842F4D303209CE002202168A5
:103AD0000140002911D02178490707D57C490A689F
:103AE0007C4B1340B02212011A430A6078490A68DD
:103AF000794B1340E2681A430A602178C90749D517
:103B000076490A681C239A43A36813430B606268D2
:103B1000012A04D10868800322D4012073E062687E
:103B2000002A04D1086840051AD401206BE06268BD
:103B3000022A04D10868000212D4012063E06168FF
:103B4000032906D1664909680840002808D10120E8
:103B500059E02D4909680840002801D1012052E0B0
:103B60005B4F38680721884361680143396000F082
:103B7000C5F801903868382101406068C000814272
:103B800008D000F0BBF80199401A20498842F1D3CF
:103B9000032038E0009831682940884215D2306807
:103BA0000721884300990143316000F0A7F807001E
:103BB000306828400099884207D000F09FF8C01B69
:103BC00012498842F4D303201DE02078400706D52F
:103BD0003F4801683F4A0A4021691143016000F0F3
:103BE0001BF840493A4A1268120A1207120F0423BE
:103BF0005A43895CC906C90EC8403B4908603B4826
:103C0000006802F081F9FEBD5C10024089130000DB
:103C10003C100240FFFFFFEF30B507202F4A11682C
:103C20008C080440641C3821294B1D680D40002D70
:103C300008D101211268D20A104081402C4803F0BB
:103C4000F6F81AE018680840082801D1284814E05E
:103C500018680840202802D1802000020DE0186872
:103C60000840182802D1FA20C00106E01868014077
:103C7000102901D11E4800E00020210003F0D7F8F0
:103C800030BD10B5FFF7C8FF1749164A194B1B681E
:103C90001B0A1B071B0F04246343D25CD206D20EFF
:103CA000D0400860086810BD80B5FFF7EAFF1249F0
:103CB000104A1268120B5207520F04235A43895CB0
:103CC000C906C90EC84002BDFFFFBFFF0020024069
:103CD00008100240FF8FFFFFFFF0FFFF00100240BF
:103CE00060100240248400081C0000200000002016
:103CF000006CDC0208100240C4850008014800681E
:103D0000704700BF444C002010B504000020206321
:103D1000200003F0E3F8062801D1FE2004E0042887
:103D200001D2606A00E0002010BDFEE7F8B5050092
:103D30000F4F3C68FF26FFF7ACF900903868406AE7
:103D400000280FD0686802280CD02A001421200017
:103D5000A36998470600E87B8007800F002801D000
:103D6000022068600098FFF798F93000F2BD00BFAC
:103D7000CC4C0020F8B52A4A146813682433183351
:103D80000093009B1F00203700231D00FE68357044
:103D9000FD686B7002231E0003252840002802D016
:103DA000022821D034E0F0200002814201D1012616
:103DB00013E01068A42149004058022802D10120D4
:103DC000F96808701068A82149004058002804D0FC
:103DD000F86800780343F8680370BD623200310070
:103DE0003800FFF791FFF2BD0A0015212000A369FA
:103DF0009847FF2805D0012802D10120F9680870F2
:103E0000EBE7009A14212000A36998470020EAE715
:103E1000009A14212000A36998470020E3E700BF1F
:103E2000CC4C002070B5030014001D4E3068326881
:103E3000150024352A0018329B079B0F002B02D057
:103E4000022B11D027E001290AD13068A6214900B0
:103E50004058002806D000203168A822520088501F
:103E600000201CE054201AE090216B58210000E053
:103E70009B69002B0FD0DC6900E06469002CF7D04F
:103E8000A57B8D42F9D1220010218369984700203B
:103E90006060002003E0142183699847002070BD12
:103EA000CC4C002070B503001D4E306834682500EE
:103EB00024352C0018349B079B0F002B02D0022BBB
:103EC00013D026E001290ED13068A62149004058C0
:103ED000002806D001203168A82252008850002016
:103EE0001CE054201AE0542018E090216B5800E0A8
:103EF0009B69002B0DD0D96900E049690029F7D0F2
:103F00008D7B9542F9D10A001421836998470020DE
:103F100004E02200142183699847002070BD00BF8F
:103F2000CC4C0020F7B58AB000210391FF25B3499E
:103F30000F68B24909682431183102910299203181
:103F400000910321009A9162C1B204910021000AFC
:103F5000C0B201900C9C019801280DD002283DD0E0
:103F6000032800D1A1E006280AD0072836D0092866
:103F70000DD00F2832D039E10C98132800D3122429
:103F80000198062803D10C980B2800D30A24019825
:103F9000092803D10C98062800D305249748016806
:103FA000CC2289580068D0228258881801E0D21AA1
:103FB000C91881420FD20B784E78019FBE42F6D1CC
:103FC00022000098C068FFF7F9F80C9A21000098C9
:103FD000FFF79AFE050028000DB0F0BD01980728F4
:103FE00008D186480268D423D4580068D822825861
:103FF000A0180AE081480268CC23D4580068D02277
:104000008258A01801E0D21AE418844223D22378FF
:10401000019E0F2E0DD166780F2EF4D105AB042230
:104020007749200001F040FF05A840880390002553
:1040300011E06678022EE6D1049EB14201D0491CFF
:10404000E1E707AB08226F49200001F02DFF07A828
:10405000408803900025002D26D103980C998842B2
:1040600001D2039D00E00C9DFF20801C85420BD3F4
:1040700012220921022002F09BFF029A142138002B
:10408000BB6998470500A6E72A0021000098C06890
:10409000FFF794F801980099C96848700C9A2900B4
:1040A0000098FFF731FE050095E70498002839D104
:1040B000524C2068F0214058801CFF21891C884206
:1040C0000BD312220921022002F072FF029A14215E
:1040D0003800BB69984705007DE70098C0682168F3
:1040E000F0228958891C0170032141702168F02257
:1040F0008A582168EC23C958801CFFF75FF82068B4
:10410000F0214058801C0C99884204D22068F0218C
:104110004158891C00E00C990C9A0098FFF7F4FDB7
:10412000050058E735480168E4228E580068E82108
:10413000445805E0F078241A241FF0783018061D42
:10414000002C4AD03000FFF744F80B998842F1D197
:10415000B07804998842EDD1F07802214843801C60
:10416000FF21891C88420BDB12220921022002F068
:104170001FFF029A14213800BB69984705002CE004
:104180000098C068F17802225143891C0170032114
:104190004170002211000BE073181B7902254D437A
:1041A0004519AB70130002254D434519EB70491CAE
:1041B000F3789942F0D3F07802214843801C0C999F
:1041C000884204D2F17802204143891C00E00C9916
:1041D0000C9A0098FFF798FD0500002CA1D1029AD7
:1041E00014213800BB699847FF20F5E6029A142194
:1041F0003800BB699847FF20EEE600BFCC4C00209A
:10420000E0000020CC00002080B5094800680100D3
:10421000243108001830203080228958C26811707B
:104220000321816201220121FFF76EFD02BD00BF63
:10423000CC4C0020F1B598B00C210020009007ACC8
:10424000009A2000FEF71EFC00200590002004903C
:1042500000200190864D2868029028682430009044
:10426000002003900098802140581899884201D17D
:104270000020FBE02868CC2144582868D02146580B
:1042800001E0F61BE419002E0FD027786078C0B249
:104290000228F6D107AB08227649200001F004FE7F
:1042A00007A8407918998842EBD1002E04D11898BC
:1042B000002801D0FF20D9E0009880214058002834
:1042C00014D00098902146580EE003200D900F96D0
:1042D00071681591002902D00DA8496C8847B7690B
:1042E000300001F0BBFD3E00002EEED10020009911
:1042F0008022885001200099086001221321029831
:10430000029B9B6998471898002801D10020ADE0D6
:10431000189800998022885000980300843308225E
:104320005449200001F0C0FD07A8C179490601D514
:10433000022100E001212A68A4235B00D150C17949
:104340000A00D2B252091100C907C90F2A68A62370
:104350005B00D150468822E06430491C2B68FC2762
:10436000DB59994212D2036C012BF5D19378876DFA
:10437000BB42F1D1189BC76DBB42EDD12968927841
:1043800004235A43891882225200885000223100A7
:10439000200002F021FE0698361A06982418002EF6
:1043A0005AD02078069060780100C9B20B2905D157
:1043B00001210391A1780491E1780191C0B2042810
:1043C000E9D10AAB09222C49200001F06DFD0AAAAF
:1043D000D0780028DFD10398012837D1907804994C
:1043E000884221D12868802149004058002101E0FD
:1043F0006430491C2B68FC27DB5999421DD2036CA1
:10440000012BF5D19378876DBB42F1D1189BC76D15
:10441000BB42EDD12968927804235A43891882223D
:1044200052008850059008E0286891780422514392
:10443000401882214900059A42500198401E01907F
:1044400001980028A2D1002003909FE728688021CE
:1044500049004058002181E70320009908600322A9
:1044600013210298029B9B699847002019B0F0BD68
:10447000CC4C0020CC000020D400002080B5104996
:1044800009680A0024321168032917D19021515874
:1044900000E08969002911D08B7B8342F9D110009B
:1044A00018302030C97BC26811700121416103219D
:1044B000816201220121FFF727FC00E0FF2002BDFD
:1044C000CC4C0020F0B595B0834A1268243200929B
:1044D000009A1268032A01D05420FBE0009A90232E
:1044E000D658039000E0B669002E03D0B07B039A43
:1044F0009042F8D1002E06D152220721022002F06C
:1045000057FD5220E6E00291F07B0299884201D1EA
:104510000020DFE07048006801906F480068CC21FF
:1045200045586D480068D021445801E0E41BED195E
:10453000002C00D1CDE02F786878C0B20228F5D1E8
:1045400007AB08226549280001F0AEFC07A84179B5
:10455000009A8023D2589142E8D1478801E03F1B5E
:104560002D19002F00D1B4E02C786878C0B204284F
:10457000F5D104AB09225A49280001F095FC04A8A2
:104580008178039A9142EAD1C07802998842E6D1B3
:10459000F46911E02621200002F0CCFD22000F2159
:1045A0000198019B9B6998476069002121606160C7
:1045B0006161A161E1610400002CEBD10020F06198
:1045C00028783F1A28782D1805E000E0029F02980D
:1045D0003F1A02982D18002F5CD028780290687836
:1045E000C0B20228F2D00428F0D00528EDD10098FE
:1045F0009C2144580098A021405801E06834401E96
:10460000002804D021680029F8D101212160002868
:1046100033D023000C3306223249280001F044FC39
:1046200020002030218A4905490D2B4A1268A22317
:104630005B00D258022A0BD1E27BD20708D5238A2D
:10464000C02252011A40002A02D0D20A521C514301
:10465000016284600021C9434163A6610098E06162
:1046600022000E210198019B9B699847002806D1E2
:10467000F069002806D1F461A9E712202AE00021A0
:10468000216027E0F06900E0406941690029FBD121
:104690004461F1E70C2204A930000C30FEF78EFDD6
:1046A0000D480068B17B0422514340188221490023
:1046B0004158002902D0086C002801D1572009E098
:1046C00006200A900C9612910E660AA8496C88473B
:1046D00000E0FF2015B0F0BDCC4C0020CC00002045
:1046E000D4000020B4000020F8B504001F00002C06
:1046F00003D000910098002801D1FA2046E016006E
:10470000009A0021200002F01BFD214D2C60182092
:104710002118204A1160BA214900401821182A683E
:1047200011601430002E06D0002F04D021182A6802
:104730005160143003E0296809682A685160211823
:10474000C91D0720814300982018814201D31220FF
:104750001CE0421A2868006802F0FCFC002E14D00D
:10476000002F12D03A000021300002F0E9FC3100A5
:10477000C91D07208143F019814201D3122005E0B1
:10478000421A2868406802F0E5FC0020F2BD0000F3
:10479000D04C0020CC4C002080B5002801D000294E
:1047A00001D1FA2001E0FFF79FFF02BD70B50300C1
:1047B0000E0000201800C0B2002811D1604C614DDD
:1047C000DBB2614A2968200000F0F4F89020400034
:1047D000205892214900615840183060286810E044
:1047E0005A4C5B4DDBB2584A2968200000F0E2F8D1
:1047F00090204000205892214900615840183060B4
:10480000286870BDF1B582B0002768460780C74CA4
:1048100009263800C0B226547F1C04253800C0B2D7
:1048200025547F1C01203900C9B260547F1C6A46A0
:104830003800C0B22118BE4800F096F868460088DB
:104840003F187F1C3800C0B226547F1C3800C0B20D
:1048500025547F1C02203900C9B260547F1C6A466F
:104860003800C0B22118B34800F07EF868460088CE
:104870003818401C0100C9B26654401C0100C9B27E
:104880006554401C03210200D2B2A154401C6A4668
:10489000C0B22118A84800F067F8200002F080FCA0
:1048A000029908602000FEBD38B504000020CC4D00
:1048B00009210200D2B2A954401C04210200D2B244
:1048C000A954401C280002F06BFC2060280032BD77
:1048D00070B50200002318001C001CE0184C1D00DD
:1048E000EDB25C26754365192D7B1600F6B2B54214
:1048F00010D11D00EDB25C26754365192D7D0E00AB
:10490000F6B2B54206D11800C0B25C256843201843
:104910005A24005D5B1C1C00E4B2032CDED3C0B241
:1049200080B270BD0120C0B280B2704700B50100F6
:104930000020C9B2022901D1AA48FFE700BD00004A
:104940001444002034000020280000203C450020B2
:104950003800002000B501000020C9B2022901D1B1
:104960004A20FFE780B200BDF8B50025002815D029
:1049700014000F000600300000F011F820802078AD
:104980002900C9B278546D1C05E030782900C9B2FD
:1049900078546D1C761C30780028F6D1F1BD00B536
:1049A0000100002001E0401C491C0A78002AFAD1CD
:1049B000C0B200BDFFB581B00500002637009220CF
:1049C00040002E50902040002E50874C02982060CE
:1049D0001220216808700120216848708020800022
:1049E000216802008A70120ACA70310022681171AF
:1049F0003100226851713100226891714021226892
:104A0000D1712168794A0A72120A4A722168784A79
:104A10008A72120ACA72216802000A73120A4A7361
:104A200001212268917302212268D1730321226837
:104A30001174012122685174902149006958123182
:104A400090225200A9506946097C01294DD169493B
:104A5000029A90235B00EB58D2180A600A220B6876
:104A60001A7006220B685A700A689070000AD0709B
:104A700030000A68107130000A68507130000A680E
:104A8000907140200A68D07101200A6810723000CD
:104A9000096848729020400028580A309021490047
:104AA000685022E0686803281ED2A86803281BD239
:104AB00003983900C9B2405C002815D002989021B3
:104AC00049006958401800906846037C002203980A
:104AD0003900C9B2415C280000F030F86868401C19
:104AE0006860A868401CA8607F1C3800C0B203281A
:104AF000D8D3A868022809D3EF20216808710220C2
:104B0000216848710120216888710BE003980078C2
:104B1000022807D102200100226811712168487122
:104B200020688671029805B0F0BD00006446002040
:104B300080860008E4850008C486000838B50A00AD
:104B400019004368032B49D243685C246343C318AC
:104B50009B69002B42D143685C246343C3184468BB
:104B60001C6143685C246343C31801249C6143684F
:104B70005C246343C3181A731300DBB2012B11D1F9
:104B80001D4A43685C246343C3181C4C1578645D5C
:104B90001C7513785B1C13701378012B16D100233E
:104BA000137013E0D2B2022A10D1154A43685C2474
:104BB0006343C318134C1578645D1C7513785B1C34
:104BC00013701378022B01D100231370049AC9B219
:104BD00000F01AF8002801D0FF2000E0002032BDCC
:104BE000D84C00203C000020984C0020830400009A
:104BF000505700009C4C0020E24C00203301002064
:104C0000E34C002030010020F8B504000E0017002E
:104C10000020656826706068002805D19220400059
:104C20002118380000F0DAF860685C214843201849
:104C3000007B012802D0022834D0B7E060685C21F4
:104C400048432018007D02282BD1200000F0B0F846
:104C5000012162685C235A43A218116262685C23D6
:104C60005A43A2185A23D05460685C22504320183B
:104C7000C1612078012806D104230322812120006C
:104C800000F0C2F805E0042303228121200000F097
:104C9000BBF89220400022183900200000F0EFF805
:104CA000FFE783E0200000F083F861685C22514355
:104CB000611802220A6261685C22514361185A221B
:104CC000885461685C22514361185B22401C8854FF
:104CD00060685C21484320180321C161F6B2012EAF
:104CE00030D12800C0B2012814D18025AD002B009E
:104CF00002220221200000F087F82B0002228221EC
:104D0000200000F081F8082303228321200000F016
:104D10007BF843E0EDB2022D40D18025AD002B00A1
:104D200002220421200000F06FF82B0002228421CF
:104D3000200000F069F8082303228521200000F0FC
:104D400063F82BE02800C0B2012812D140230222D0
:104D50000221200000F058F8402302228221200086
:104D600000F052F8082303228321200000F04CF8C1
:104D700014E0EDB2022D11D14023022204212000C3
:104D800000F042F8402302228421200000F03CF889
:104D9000082303228521200000F036F892204000ED
:104DA00022183900200000F033F9FFE70020F2BD9F
:104DB00030B5010000221000130008E0401C641C04
:104DC0005C255D434D192D6AAC42F7D35B1C8C68A2
:104DD000A34201D21400F3E7C0B230BD0922027031
:104DE0000222427000228270120AC2700022130056
:104DF0000371012343718271C022C27119220272B0
:104E0000086809300860704770B5002400E0641C31
:104E100045685C2675434519ED69AC420AD2456880
:104E20005C267543451906266643AD192826AD5DF7
:104E3000002DECD145685C2675434519062666436E
:104E4000AD192426A95541685C25694341180625FA
:104E50006543491925254A5541685C22514341184B
:104E6000062262438918CB8441685C225143401872
:104E700006214C43001928210122425470BDF4B58B
:104E800004000F0060685C2148432018007D022860
:104E900000D0AFE05C4A0098006838181060092024
:104EA0001168087004201168487060685C214843EC
:104EB00020185A21405C1168887000201168C87061
:104EC00061685C2359436118C96913681971032526
:104ED00029001368597101210B001668B371022370
:104EE0001668F37112681072009A12680932009BFA
:104EF0001A60464E009A1268BA1832600922336866
:104F00001A70212233685A703268FF23123393706B
:104F10001B0AD370326810713068417122203168E9
:104F200088710220FFF716FD3168C871000A087207
:104F300000980068093000990860207801282CD179
:104F4000DE4800990968791801600721026811702C
:104F500005210A0003685A7062685C235A43A2184C
:104F60002423D25C03689A700268D5700268636873
:104F70005C256B43E318DB8C13711B0A5371227899
:104F8000012A02D10068817101E0006881710098F6
:104F90000068C01D009908602BE0C84800990968A6
:104FA0007918016007210268117005210A00036861
:104FB0005A7062685C235A43A2182423D25C0368A7
:104FC0009A700268D570026863685C256B43E318C9
:104FD000DB8C13711B0A53712278012A02D10068FD
:104FE000817101E00068817100980068C01D00991E
:104FF0000860FFE73879401C387100980068B87085
:10500000000AF870F1BD0000A04C0020A84C002060
:10501000F0B5AB4C1368CB182360082325682B70C0
:105020000B2325686B7043685C256B43C3185A25B6
:105030005B5D2568AB7002232568EB700223256851
:105040002B71022325686B7101232568AB71002346
:105050002468E3711468083414609A4C15684D197B
:105060002560092526683570042526687570456811
:105070005C26754345195A26AD5D2668B5702568CE
:10508000EB700125266835710225266875710225A9
:105090002668B57101252668F57125682B7215689B
:1050A00009351560884D16688E192E6005262F6803
:1050B0003E7024262F687E702E68B3702D68882677
:1050C0007600EE70360A2E7115686D1D15607F4DE5
:1050D00016688E192E6005262F683E7024262F68CC
:1050E0007E7001262F68BE702E68F37046685C27BC
:1050F0007E4386195B27F65D2D682E7115686D1D40
:105100001560734D16688E192E6004262F683E7048
:1051100024262F687E7002262F68BE7002262D6816
:10512000EE7015682D1D15606A4D16688E192E607B
:1051300005262F683E7024262F687E7006262F686D
:10514000BE7046685C277E4386195A27F65D2F6835
:10515000FE7046685C277E4386195B27F65D2D68E6
:105160002E7115686D1D15605B4D16688E192E60C9
:1051700007262F683E7005262F687E7046685C27DC
:105180007E4386193027F65D2F68BE7003262F6890
:10519000FE702F68BC4647685C267743C619768E3A
:1051A00067463E71360A7E710678012E03D10526C8
:1051B0002F68BE7102E005262F68BE711668F61DC5
:1051C000166016688E192660092627683E70042628
:1051D00027687E7046685C277E4386195B27F65DEC
:1051E0002768BE702668F370022627683E710A267B
:1051F00027687E712668B3712668F371246823726C
:1052000014680934146014680C192C6007242600F3
:105210002F683E7005262F687E7046685C277E43A7
:1052200086192427F65D2F68BE7002262F68FE704F
:105230002F68BC4647685C267743C619F68C6746DC
:105240003E71360A7E710678012E02D12E68B37146
:1052500001E02E68B3711668F61D166016688E1987
:105260002E602E68347005242E68747044685C26A5
:10527000744304192A26A45D2E68B47002242E6893
:10528000F4702C6846685C277E438619B68D2671BB
:10529000360A66710078012802D12868837101E01E
:1052A000286883711068C01D10600879801C08711F
:1052B00010688870000AC870F0BD0000A44C00207F
:1052C000C44C0020AC4C0020B44C0020B84C002052
:1052D000BC4C0020C04C0020B04C0020FCB585B078
:1052E0000C9A0E9B0F9C109D934E366824360096A8
:1052F000914E3668DC27F0518F480068E0268151D6
:1053000005988D490968D426885106988A49096804
:10531000D826885188480068E42142500D98864973
:105320000968E822885084480068EC21435082488C
:105330000068F021445003207F490968FC2288500E
:105340007D480068B4214900455096225200002152
:10535000002001F02DFF002801D11220EAE076495B
:105360000968802252008850009804003834802256
:1053700052000121002001F01BFFE060E0680028DE
:1053800001D1122400E00024002500260020039013
:10539000002C5AD168480068D421425866480068F9
:1053A000D82140580290002000210191002112E0F4
:1053B0000BE0854200D2050000231800019F7918F8
:1053C0008E4200D20E0001931900029B049FDB1B4A
:1053D0000293049BD218029B002B1BD013780493DA
:1053E0005378DBB2022BE4D0042BE1D1D378002B2D
:1053F00005D1019B591801911179401C03E01379E3
:10540000994200D21179039B9778BB4201D29378DD
:105410000393DAE7019A51188E4200D20E008542BA
:1054200000D20500002D05D142220321022001F007
:10543000BFFD4224002C08D10398102805D3122266
:105440000321022001F0B4FD1224002C12D1009897
:10545000982145500098A021465020232A00002181
:10546000002001F01FFF002801D1122402E0009962
:1054700094228850002E2AD0002C28D16823320094
:105480000021002001F00EFF0500002D01D11224A3
:105490001EE000989C21455003E00024002C14D10C
:1054A000683500989C214058682171434018854216
:1054B0000ED2802292000121002001F079FEE862E4
:1054C000E86A0028E9D1122402E0152400E0002552
:1054D000002C01D100202DE0002D11D006E0E86A5B
:1054E000002802D0E86A01F0F5FE683D00989C2192
:1054F00040588542F3D200989C21405801F0EAFEC2
:10550000009894214058002804D0009894214058D5
:1055100001F0E0FE0098406C002803D00098406C39
:1055200001F0D8FE0448006880214900405801F08D
:10553000D1FE200007B0F0BDCC4C0020F9B58DB0F5
:105540000F001600002500953F2269460D9801F0D6
:10555000FBFE002828D115480168802252008C5893
:1055600001E064346D1C0168FC2289588D421AD216
:10557000216C0029F5D1149D009A521C0D99200030
:10558000FDF71CFE67646565E6650E98A06505205D
:1055900001900A95099401A8B847002804D1012078
:1055A0002064002000E012200FB0F0BDCC4C0020A1
:1055B000F8B500263400104F3868002212218369A4
:1055C000984738688021490045580AE0A86C296D41
:1055D000884720430400643502E0286D0028F5D197
:1055E000761C3868FC214058864203D2286C00287B
:1055F000F3D1F5E72000F2BDCC4C00203149086022
:10560000704700202F490860704700207047002035
:10561000704730B58BB02C480068040024342C222D
:105620000021684601F08CFD2068032810D1254C2C
:10563000206800280CD0254D2878012808D168461C
:1056400000F008F86946206801F097FE00202870F5
:105650000BB030BD70B5002319001A001C00E4B275
:105660001C001D00194E3678012E23D1184E002142
:105670007156102900D1337000217156042902D2CD
:105680001A000A2113E000217156091F042902D2D1
:1056900019000A220BE0002171560839042903D2AF
:1056A0001A000921C94302E019000922D2433378C4
:1056B0005B1C337004238360057341738273C4736E
:1056C00070BD0000C84C0020CC4C0020DC4C0020F9
:1056D000E44C0020344908607047704710B5324BE5
:1056E000186032480068243038303D21405C202862
:1056F00002D0212818D021E02D4C22000221186868
:1057000001F07DFE002801D0FDF7B8F99620800158
:105710002168814204D22060200000F04BFB02E0AF
:10572000200000F047FB09E0214A0121186801F040
:1057300066FE002801D0FDF7A1F9FFE710BD1D4965
:1057400008607047704710B51A4B1860174800681A
:10575000243038303D21405C202802D0212818D048
:1057600021E0134C22000221186801F048FE0028B5
:1057700001D0FDF783F9962080012168814204D28F
:105780002060200000F016FB02E0200000F012FB79
:1057900009E0074A0121186801F031FE002801D014
:1057A000FDF76CF9FFE710BD484C0020CC4C002001
:1057B000200000204C4C0020F8B584B06E490868E9
:1057C00024300268032A0AD000206C4908600100D6
:1057D0006B4A11706B49086065490860C6E009684A
:1057E000A22252008958022902D18026B60000E088
:1057F0004026002100F0FAFA002800D1B6E05C4D06
:105800002968002907D005290CD080296AD0812970
:1058100000D1A8E0AAE000215A4A1160584A11704C
:1058200005212960002455490C60934F534B3200E9
:10583000390001F057FE04280CD2524801680029B3
:1058400002D08020286004E021004D4A11700460DD
:105850002C608BE004282DD148480068002827D010
:1058600048480068002803D1FEF748FA83490860D9
:1058700083480470434C2068002802D0012040492E
:1058800008703E48026839003A482368C718380053
:10589000FCF70EFE20683949096840182060802016
:1058A00000012168401AB04203D2802028605DE0E8
:1058B0002C605BE0052814D132480068002810D025
:1058C0002E48006800280AD16D480178491C0170F3
:1058D0000178102902DB04708020286046E0052052
:1058E000286043E0674FFEF709FA3860634E30687E
:1058F000002801D13868306038683168401A029059
:10590000204800680390002420002000029900290C
:1059100007D00398FA2189004843029901F087FAD9
:10592000800A019002980090039B574A60215748D3
:1059300001F04AFE01280ADB6021544801F06AFEAA
:10594000FF23020092B25149514800F0E1FC34605B
:105950003C60FF230B48026892B206494C4800F0B5
:10596000D7FC2C6002E000202860FFE705B0F0BD06
:10597000544C002034210020CC4C0020604C0020EE
:10598000DE4C0020644C0020F8B584B00024039461
:1059900020004048006824300168032902D03E48B6
:1059A000046065E0002100F021FA06003A4D286805
:1059B000002802D0052817D059E03848017800297E
:1059C00011D00470FEF79AF935490860802212015F
:1059D0003448026003AB3449300001F041FE052831
:1059E00001D10520286043E003AB002200213000F4
:1059F00001F036FE052839D229480068002834D045
:105A0000FEF77CF92949086028480068244909689C
:105A1000401A0290234807682000200002990029BC
:105A200006D0FA2080007843029901F000FA800A3B
:105A30001F4E0190029800903B001E4A60213000EA
:105A400001F0C2FD01280ADB6021300001F0E2FD17
:105A5000FF23020092B23100064800F059FC1048C2
:105A60000460124804600F4804602C6000E02C6061
:105A700005B0F0BDF4480020584B0020684C0020D1
:105A8000DF4C00206C4C0020A084000888490020D6
:105A9000F4480020CC4C0020504C0020DA4C002070
:105AA000704C0020784C002034290020744C0020D9
:105AB000E849002010850008F8B584B06E490868F0
:105AC00024300268032A0AD000206C4908600100D3
:105AD0006B4A11706B49086065490860C6E0096847
