:020000040800F2
:10000000705B002005660008D1640008D364000816
:1000100000000000000000000000000000000000E0
:10002000000000000000000000000000D56400088F
:100030000000000000000000D7640008D964000838
:10004000571C00086B1F0008932400088F34000819
:100050006F3A0008CF3A000887430008E1640008BF
:10006000EB6400084F510008E3510008C354000836
:10007000F3550008F3580008535900085759000871
:10008000975A00080000000000000000D35D00083F
:1000900000000000BB6300085F6500089165000870
:1000A00003660008396600083B6600083D660008E4
:1000B0003F66000800000000000000000000000093
:1000C0000DE081B00A2001E00098401E00900098E9
:1000D0000028F9D13148C90040580DE000BF81B077
:1000E0000A2001E00098401E009000980028F9D1F5
:1000F0002A48C900401840688001800D01B070474F
:10010000F8B5070001D10120F2BDA52080003E18FE
:1001100000257078002803D13570380000F0CCFD40
:1001200003207070386800F0FFFD002001240AE011
:100130002821414379184C750875CD754D628D6243
:10014000CD62401CC0B239798842F1DB00200DE05D
:10015000282141437918AA22520089184D7008704D
:10016000CD700D614D618D61401CC0B239798842FE
:10017000EEDB391D83B068460D2201F08BFB0EBC0F
:10018000386800F0DBFD7D747470387B012802D183
:10019000380001F0C8FB0020F2BD000000980040CC
:1001A00038B50400A520800025182878012801D141
:1001B000022032BD01202870206800F0AFFD2068C9
:1001C00001F0E8FA0020287032BD38B50400A520FF
:1001D000800025182878012801D1022032BD012095
:1001E0002870206800F0A0FD206801F0DAFA0020F5
:1001F000287032BDF8B584B00600306801F0D7FA37
:10020000010422D4410500D499E33068416CA04A2E
:100210000A404264300001F0DFFC0021300000F0B1
:1002200011FCEDE301280CD100982178C900401899
:10023000016889B2016000982178C90040180168FE
:1002400001602178300001F014FC3068416C090431
:1002500000D4ECE3416C0A07120F0292B74C8027DE
:10026000002A72D1C90623D430680068B44901401D
:100270003802084331680860B248317DC9004058EF
:100280008001800D3063B06A316B4018B06200218C
:10029000300001F0EEFB707C0028D6D0F06A002818
:1002A000D3D1707C07433068C76400207074CCE7FA
:1002B0003168096889B2AA225200B5180A0514D516
:1002C0002978FFF7FDFEE8610346EA88A720800051
:1002D0003118306801F094FA306801680C40274307
:1002E0000760300001F079FBAFE70804ADD5306856
:1002F0000068044027433068076029783068FFF7BA
:10030000DFFEE8610346002B0ED0696900290BD09F
:10031000EA88306801F074FA6869E9694018686130
:100320000021300001F00CFC3068026811058CD40B
:10033000C02189010A408A4287D00268824B13405B
:100340005940824A0A4302607FE730689100405872
:1003500080B201900298282148430390019800043C
:1003600000D4B8E09000316809580C403C43316833
:100370000C5003983018AA21490045182978287B89
:10038000002807D13068FFF79BFE040066D02300E9
:10039000EA8885E0E878022861D1019A14004020BB
:1003A0000440306852042AD5FFF78BFE0090A869FC
:1003B0000099884201D3401A00E00020A86100287B
:1003C0000BD1306829788900401801685E4A0A40DC
:1003D000B90151405D4A0A430260002C09D03068DF
:1003E0002978890040180168B64A0A4058491143E3
:1003F00001600098002830D083B22A8929E0FFF7F5
:100400006DFE0090A8690099884201D3401A00E06F
:100410000020A86100280BD1306829788900401895
:100420000168494A0A40B9015140484A0A430260FA
:10043000002C09D130682978890040180168A14A48
:100440000A404349114301600098002805D083B257
:100450006A896969306801F0D3F9009C24E088005A
:1004600031680958974A0A40394911433268115096
:10047000287801003268800010584004104609D5E1
:10048000FFF71FFE04000FD023002A8908E000BFF9
:10049000FFFB0000FFF722FE040005D023006A895D
:1004A0006969306801F0ACF9A0B2E9690918E9613D
:1004B0006969A4B209196961A969002907D0296984
:1004C000884204D32900306800F002FF03E0297855
:1004D000300001F035FB0198384273D03000143001
:1004E0000399441830680299890040180168144A39
:1004F0000A40390211430160124D281D0090E07836
:10050000012843D10020A061207B002814D060780E
:10051000019949062AD500281CD12078C000281846
:1005200001688901890901602078C00028180168E4
:10053000802212060A43026083E600BF8F0FFF0786
:100540000F8FFF07009800408FBFFF0780800000DB
:10055000C08000000128EFD12078C0002818016871
:1005600089B201602078C000281868E6002800D011
:1005700058E600982178C900401801688901890966
:10058000016000982178C9004018D0E721780198CF
:10059000C00518D4C80028588001800DA269904277
:1005A00001D2121A00E00022A261002A00D149E61D
:1005B000616909186161E1690818E061210030682A
:1005C00000F086FE41E6019A2F0C17403068520673
:1005D00000D4DAE0FFF775FDA169884201D2091A5B
:1005E00000E00021A161002963D16078A7490028BB
:1005F0000ED12078C000281802680A4002602078D6
:10060000C0002818026880231B06134303600CE017
:1006100001281ED12078C0002818026892B202601A
:100620002078C0002818026802606078002810D185
:1006300000982278D200801802681140016000986A
:100640002178C90040180168802212060A4302601E
:100650000FE0607801280CD100982178C90040187B
:10066000016889B2016000982178C90040180168CA
:100670000160E07802280BD13068217889004018A9
:100680000168C44A0A4020215140C34A0A4302601B
:100690002178300001F0EDF9002F09D03068217881
:1006A000890040180168074A0A40BC4911430160AB
:1006B000CBE5002F0CD031682278920089180A68A7
:1006C000004B01E08F8FFF071340B44A1A430A60C2
:1006D0002421615C012900D027E161690918E269E0
:1006E0001218E2612269236A934203D310001A1A96
:1006F000226207E0002B02D01800002222620022B2
:100700002423E2546278002A2CD12278D200AA183D
:1007100013689B019B09136080231B06002806D1E8
:100720002278D200AA1815682B43136029E03F28CD
:100730000BD24208C30700D5521C2378DB00EB180C
:100740001D6892062A431A601BE04209C70600D1C1
:10075000521E2778FF00ED192F6892063A43134383
:100760002B600EE0012A0CD12278D200AA1813685F
:100770009BB213602278D200AA18136805041D43A7
:100780001560616183B22289CCE0FFF7A7FCA16903
:100790000022814201D3091A00E00021A161002951
:1007A00056D1607880210906384A00280BD120787C
:1007B000C00028180368134003602078C000281880
:1007C00003680B430BE001281BD12078C0002818D8
:1007D00003689BB203602078C00028180368036098
:1007E000607800280DD100982378DB00C0180368DA
:1007F0001A40026000982278D200801802681143E3
:100800000EE0607801280CD100982178C9004018CA
:10081000016889B2016000982178C9004018016818
:100820000160E07802280BD13068217889004018F7
:100830000168584A0A4020215140574A0A43026041
:100840002178300001F015F9002F00D0FDE425E7F4
:10085000002F09D1316823789B00C9180B68754DAA
:100860001D404E4B2B430B602421615C01295CD160
:1008700061690918E3691B18E3612369256A9D42D0
:1008800006D318002A1A226208E000BFFFFFFF0308
:10089000002D01D0280022622423E2546278002A2D
:1008A0002CD1009A2378DB00D21813689B019B0996
:1008B000136080252D06002805D1009A2378DB00DF
:1008C000D218136829E03F280CD24208C30700D58C
:1008D000521C009B2578ED005B191D6892062A4387
:1008E0001A601CE04309C20600D15B1E009A2778FB
:1008F000FF00D21917689B063B430EE0012A0ED178
:10090000009A2378DB00D21813689BB21360009A18
:100910002378DB00D218136805041D43156061615C
:1009200083B26289306800F044FF30682178890022
:1009300040180168174A0A403021514001E541043E
:1009400003D53068416C3C4A6FE0810403D53068C0
:10095000416C3A4A69E0B32189007118C2041FD57D
:100960003068026C04239A4302643068026C0823E6
:100970009A4302640878012805D1002008700021FC
:10098000300001F067F9300001F045F93068416C42
:100990002B4A4AE0BF8FFF078080000080C0000024
:1009A0000422082304050DD53068016C0B43036451
:1009B0003068416CB24B0B4043643068016C0A43B1
:1009C00002641EE0040620D53068446CAD4D25401D
:1009D00045640878002814D13068046C224302640E
:1009E0003068026C13430364012008703068406D66
:1009F00080083C2202404A600121300001F02AF9BF
:100A000015E0300001F0FBF811E0810508D53068F1
:100A1000416C9D4A0A404264300001F00BF906E047
:100A2000C00504D53068416C984A0A40426405B05C
:100A3000F0BD00008F8FFF07FFBF0000FFDF000049
:100A4000FFEF000010B5A522920084182278012A39
:100A500001D1022010BD012222704174006800F013
:100A600093FE0020207010BDF1B507250C002C402E
:100A7000282674430019012600240F0602D51430DD
:100A8000467003E0AA277F00C01944700D4005702E
:100A90005105490D0161C370022B00D10471009909
:100AA000A52292008D182978012901D10220F2BDDA
:100AB0002E7001000098006800F054F92C7000209E
:100AC000F2BD70B50A000725294028235943411873
:100AD00001230024160602D514314B7003E0AA2628
:100AE000760089194C7015400D70A522920085186A
:100AF0002A78012A01D1022070BD2B70006800F015
:100B000041FB2C70002070BD70B507250C002C40F7
:100B1000282674430419AA267600A4196261A361E9
:100B20000022E26162700D4025702100006800F033
:100B3000CFFB002070BD4907490F282251434018C0
:100B4000B821490040587047F8B507250C002C40E3
:100B500028267443041914346261A36101222427F6
:100B6000E25523620023E36162700D40257021008D
:100B7000006800F0ADFB0020F2BD70B50A0007254B
:100B8000294003798B4201D2012070BD012300244A
:100B9000160605D528267143411814314B7007E01D
:100BA0001100282671434118AA26760089194C7035
:100BB0008B7015400D70A522920085182A78012AA5
:100BC00001D1022070BD2B70006800F071FD2C7007
:100BD000002070BD70B50A0003790C07240FA342F2
:100BE00001D2012070BD072529402823594341180F
:100BF00001230024160602D514314B7003E0AA2607
:100C0000760089194C708C7015400D70A5229200E9
:100C100085182A78012A01D1022070BD2B70006846
:100C200000F05BFD2C70002070BD80B54A07520FAC
:100C300028235A438218090602D51100143102E014
:100C4000AA2149005118006800F077FD02BD10B5D7
:100C5000A522920084182278012A01D1022010BD19
:100C60000122227000680A0604D54907490F00F0E6
:100C700075F801E000F074F80020207010BD00004D
:100C8000FFF700007FFF0000FFFD0000FFFE0000F7
:100C900080B51F481F490160082101710221C171FF
:100CA000417200214181C1600174FFF729FA0028D7
:100CB00001D001F05BF801BD18B589B00400202116
:100CC000002201A801F066F82068124988421CD170
:100CD000082001900020069001A801F061F800288A
:100CE00001D001F043F8802080010B490A680243DB
:100CF0000A6009680840009000980022002108203E
:100D000001F0FDF8082001F0FFF80AB010BD000066
:100D10006C460020005C00403C1002400021416411
:100D20000449016400207047016C034A0A400264D0
:100D30000020704780BF00007F40FFFF0EB40121FC
:100D40000164016C012291430164016C490049086E
:100D5000016400214164002003B070470020704707
:100D600000207047FEB500226B461A710A78920087
:100D700083181A689A4C1440CA78002A05D0022AAF
:100D800012D009D3032A04D00BE022008024A4004F
:100D900005E02200C02401E022008024E400144386
:100DA00002E001226D462A718E4A14431C600B78C2
:100DB0009C00041925688C4E2E4033431343236056
:100DC0000E788A4B1B1D0093894B2024894D0F7B85
:100DD000002F00D08CE0F6004F78002F29D0834BF5
:100DE0009E190096009E3668360C3604009F3E60C1
:100DF0000E78F6009B191E68CF88BF08BF003743E6
:100E00001F600B789B00C3181E68760605D51E6808
:100E1000754F3740784E3E431E600B789B00C018DC
:100E2000C9780129016800D16CE10D406C40224372
:100E30009EE1009CA41925682D0C2D042560009CC2
:100E40000D78ED0064192568CE88B608B6002E43EB
:100E50002660009C0D78ED0064192568AD01AD0990
:100E600025600D69002D09D1009C0D78ED006419F5
:100E70002568802636062E4326601DE03F2D0CD2C5
:100E80006C08ED0700D5641C009D0E78F600AD19C6
:100E90002E68A40634432C600EE06C09ED0600D1E8
:100EA000641E009D0E78F600AD192E68A40634432A
:100EB0008026360626432E600C78A4000419256887
:100EC0006D0405D52568484E2E40AB4D3543256051
:100ED0000978002903D101680B40C02104E0890092
:100EE000401801680B408021890159400A433FE1C5
:100EF000B60086190296CE78022E029E366806D17A
:100F0000394F37409D4E3E43029F3E6004E09C4F68
:100F100037401743029E3760344E0F78FF00F619B2
:100F20000296029E3668360C3604029F3E602F4EB3
:100F30000F78FF00F6190296029E36680F89BF08E7
:100F4000BF003743029E3760009E0F78FF00F619FE
:100F50000296029E3668360C3604029F3E60009E62
:100F60000F78FF00F6190296029E36684F89BF0877
:100F7000BF003743029E37600E78B600861902968E
:100F800066024F78002F00D0BFE0029C2768164C05
:100F90003E4006D0029E36682640774F3743029E79
:100FA00037600E78B600861937687F0604D5376833
:100FB0003C40114F274337604C780C4F002C38D100
:100FC0000C78E4003C192668B601B60926600C6965
:100FD000002C13D10C78E4003C19266826E000BFF1
:100FE0008F89FF07808000008F8FFF0700980040E7
:100FF0008FBFFF07BF8FFF07C08000003F2C0BD2C1
:101000006608E40700D5761C0C78E4003C192768D4
:10101000B6063E4326601CE06609E40600D1761E53
:101020000C78E4003C192768B6063E4380273F064B
:101030000DE0012C45D10C78E4003C192668B6B2CD
:1010400026600C78E4003C1926680F693F0437439A
:1010500027604C78002C34D1009C0E78F600A4193F
:101060002668B601B60926600C6980263606002C73
:1010700005D1009C0F78FF00E41927680BE03F2C96
:101080000BD26608E40700D5761C009C0F78FF00A1
:10109000E4192768B6063E4311E067090297E406A3
:1010A00001D17C1E0294009C0F78FF00E41900948B
:1010B000009C2468029FBF0627433E43009C266095
:1010C00012E04C78012C0FD1009C0E78F600A41988
:1010D0002668B6B22660009C0E78F600A419266831
:1010E0000F693F04374327600C78A4000419266871
:1010F0003340C026B6015E40164326600978890059
:10110000401801680D402A4332E0029F3F68009773
:101110003E4007D0029E3668674F3740164E3E432A
:10112000029F3E600E78B60086190096009E3668D3
:10113000760607D5009E36685F4F37405F4E3E43C8
:10114000009F3E600E78B6008619CF78012F05D03B
:1011500037683D406C401443346003E034682540F8
:101160001543356009788900401801680B401A431F
:10117000026068460079FEBD80C0000080810000EA
:101180008F8EFF07F2B582B009788900411800916F
:10119000029949786A46117149494A4A4A4B474C73
:1011A000454D029E367B002E19D16E463679002EB3
:1011B0000AD000990968490641D5009909680D408F
:1011C0002C4300990C603AE0009B1B685B0468D5D7
:1011D000009B1B681D403D4B2B43009C60E080261C
:1011E000F6016F463F79002F009F3F682FD13E40A8
:1011F00006D0009E36682E40344F3743009E37603D
:10120000029E3678B60086190096009E36687606ED
:1012100005D5009E36682E402643009F3E60029E04
:101220003678B600861937683D402C433460029CFE
:101230002478A400041925682940114321600299EB
:1012400009788900401801680B401A4330E0019783
:101250003E4006D0009E36682E401C4F3743009E0D
:101260003760029E3678B60086190096009E366872
:10127000760605D5009E36682E403443009E3460C5
:10128000029C2478A4000419266835400F4E2E4392
:101290002660029C2478A400041925682B4013437F
:1012A0002360029B1B789B00C018036819400A4307
:1012B00002600020FEBD00008F8FFF07C08000008D
:1012C0008FBFFF0780800000BF8FFF0780C0000036
:1012D000F1B584B00E00CB48CB497278012A00D01A
:1012E00096E1B76932690292BA4200D21746C74CFA
:1012F000327B002A13D1BBB2F2887169049800F0E6
:1013000058FA3078C0002018016889B2016030783E
:10131000C000201801683A040A43026067E132788D
:101320000392049A039B9B00D2180092326A0192A6
:10133000251DF278022A00D032E1029A019B9A42DE
:1013400000D317E1009800680140CA48084300999B
:101350000860306AC01B306270783178FA07D20FAB
:101360000092049A8B00D25852067BD500282CD1CB
:10137000C80028180168890189090160002F06D179
:101380003078C000281801688022120629E03F2F1B
:101390000CD278080099002900D0401C3178C9008F
:1013A00069180A688006104308601CE07809F9068D
:1013B00000D1401E3178C90069180A6880061043C0
:1013C0008022120602430A600DE001280BD1C800FA
:1013D0002818016889B201603078C00028180168B7
:1013E0003A040A430260BBB272897169049800F042
:1013F000E0F97069C0197061306A3169814201D2C7
:10140000C01B01E00700002030627078002826D160
:101410003078C000201801688901890901608021A5
:101420000906002F00D1D6E03F2F0BD27808F9072C
:1014300000D5401C3178C90061180A688006104345
:101440000860CEE07809FA0600D1401E3278D2005A
:10145000A21813688006184301431160C1E00128F7
:10146000FCD18FE000282CD1C80020180168890128
:1014700089090160002F06D13078C000201801686A
:101480008022120629E03F2F0CD27808009900290B
:1014900000D0401C3178C90061180A6880061043EA
:1014A00008601CE07809F90600D1401E3178C900B7
:1014B00061180A68800610438022120602430A60FF
:1014C0000DE001280BD1C8002018016889B2016025
:1014D0003078C000201801683A040A430260BBB2A9
:1014E00032897169049800F064F97069C0197061FB
:1014F000306A3169814201D2C01B01E0070000203F
:1015000030627078002825D13078C0002818016832
:1015100089018909016080210906002F4ED03F2FE3
:101520000BD27808F90700D5401C3178C90069183A
:101530000A6880061043086046E07809FA0600D180
:10154000401E3278D200AA1813688006184301435F
:10155000116039E0012837D13078C00028180168BF
:1015600089B201603078C000281801683A040A4343
:10157000026029E01F460099096808409F4901431D
:10158000009801603078C0002018016889B20160BD
:101590003078C000201801683A040A43026020E055
:1015A0000198C01B30620398C0003904009A126889
:1015B00052060CD52818026892B202603078C0003A
:1015C0002818026811430160BBB272890BE0201831
:1015D000026892B202603078C0002018026811439D
:1015E0000160BBB232897169049800F0E2F8049896
:1015F0003178890040180168924A0A4030215140F0
:101600007E4A32E08F8EFF078F8FFF0700980040E1
:1016100000237A4A347B002C2ED1B469002C0CD1E3
:10162000F478002C09D104983478A40000190468D7
:101630002140104C0C43046007E004993478A40066
:1016400009190C68204010430860B0693169814273
:1016500000D2431AB36104983178890040180168B8
:10166000794B0B40C021890159400A430260002098
:1016700005B0F0BD80810000F078022814D1F06937
:101680000028E8D0049833789B00C01803685408F9
:1016900025001D40A54201D01C40DCD10368194043
:1016A0006A4B0B430360D6E70128D3D00120DFE764
:1016B0000A7892008018514A49780029016803D0BD
:1016C000604B0B40102103E05F4B0B408021490130
:1016D00059400A4302600020704730B50A789200F2
:1016E0008218464B5A4C4D78002D156811D06D0666
:1016F00004D515682C40554D25431560CA78012A3C
:1017000019D009788900401801684E4A0A40202102
:101710000EE06D0404D515682C404E4D2543156030
:101720000978890040180168474A0A40C0218901A8
:1017300051400B430360002030BD304A4B78012BF1
:101740000B7B0CD1002B1DD10B789B00C0183D4B9F
:10175000C9780129016812D00B4020210CE0002B30
:1017600010D10B789B00C018374BC978012901684C
:1017700005D00B408021890159400A4301E00B400C
:101780001A43026000207047002901D18021C16402
:1017900000207047816D802212020A43826500207A
:1017A0007047816D2C4A0A40826500207047406C6A
:1017B0007047F0B5D81C87089D07AD0F00D07F1E7D
:1017C000264816180C00002F06E0200000F0C2FB8F
:1017D0003060361D241D7F1EF7D128000BD000205D
:1017E0002178FA009140014308007F1C641C6D1EA3
:1017F0002904F5D13060F0BD0000000080800000B9
:10180000F0B5D81C87089D07AD0F1448161828009E
:1018100000D07F1E0C00002F06E03068210000F091
:10182000A5FB361D241D7F1EF7D1280009D0306886
:10183000F9000200CA4022707F1C641C6D1E29043E
:10184000F6D1F0BDBF8FFF078FBFFF07C08000003C
:101850008F8FFF0780C00000FF7FFFFF00980040D0
:1018600070B4103A03D378C9103A78C0FBD253074A
:1018700001D318C918C001D508C908C0D20704D3BC
:101880000B880380891C801C002A01D50B7803700B
:1018900070BC70478B0701D18307E1D0124205D09D
:1018A0000B78491C0370401C521EF9D1704730B5AB
:1018B00001684118446862088A188368E40704D5FF
:1018C0004C461B1901E0641C09D1914203D00C78ED
:1018D00064B2491C01E00C3030BD0D78491C1D700C
:1018E0005B1C002CEFD4641EF7D5EEE710B50C0698
:1018F00006D54907490F282461434018143005E0F4
:1019000028244C430019AA2149004018002A03D179
:1019100000210173C38004E0012101730381190CCC
:101920004181002010BD0168B3229200801801227D
:10193000826000230370486D02434A65486D0222AD
:1019400002434A650020704770B50400666820367F
:1019500000F089FBA1688023DB00194203D1C02578
:10196000AD000D4002D100F082FB70BDB04A0A40CC
:101970001343A36000F07BFB802041008D4204D024
:10198000C02189008D4207D012E0A073012020738E
:10199000300000F0CBFB1BE0C421655800217162D0
:1019A000A073300000F0C2FB002811D1032008E032
:1019B000C4216558A073300000F0B8FB002807D19F
:1019C000042020730023002200212800FFF7BCF828
:1019D000A0689E490140A16070BDF1B582B09C48ED
:1019E0000068C4696768203708220298A721890027
:1019F000411838003C3000F079FC0025BD61012021
:101A000078607D62A0680E218843A0603C21795CEB
:101A1000090604D5802149000143A160F7BDA573E3
:101A20008026B6004221795C002903D14321795CEC
:101A3000002910D0B86800903800423000F060FCF7
:101A4000786103467008834208D90099200000F0AD
:101A50005CFC2573A0680643A660F7BDBD61FA680B
:101A60003A610098817B0298FFF74EF802202073BC
:101A7000F7BDFEB5764A1268D2690F230C001C40F0
:101A80000C256C43194202D01619643601E0121D70
:101A9000161934682034002508270190080038D131
:101AA000A0680090307A012849D10023002200214B
:101AB0000198FFF729F80098018AE06981421BD359
:101AC000A06B012808D1002300220098817B019897
:101AD000FFF73AF8A563F7BD6562022020606069F0
:101AE000A061706807437760E16A002901D0200097
:101AF000884704203072F7BD451A0B46AB4200D927
:101B00002B00226952182261C01AE0610098817B83
:101B100009E0A06B00280AD06069002807D0A563FF
:101B2000E561002300220198FFF70EF8F7BD65621A
:101B3000022020606069A061706807437760F7BD8C
:101B4000F8B5070042480068C069001D0A07120F77
:101B50000C235A43841825682035082608002FD105
:101B6000207A022837D1A868009000213800FEF7BB
:101B7000E2FFA9690918A9616A698A4215D39142ED
:101B800004D00099098A0B00984205D06068C021F2
:101B9000890001436160F1BD286942182A610098FB
:101BA000817B3800FEF7B0FFF1BD272068626068D6
:101BB00006436660E96A00290DD028008847F1BD18
:101BC0003800FEF7B8FFA861002068620220286094
:101BD000606806436660F1BD70B51D4D2868406AB7
:101BE000002801D000F0A0FB2868A221490040187D
:101BF0000126066000F0D4FB2868466261BD1448E7
:101C00000068B42149004158002900D1704780B5CF
:101C1000F420884701BD0E480068B42149004158AE
:101C2000002900D1704780B5F320884701BD00002E
:101C3000FFFCFFFF06480068B42149004158002915
:101C400000D1704780B5F020884701BDFFFBFFFF42
:101C50005C4B00207047FEE738B500F00DFC00F04B
:101C60003EF800F017FC00F08BF9002000F028FC93
:101C7000012000F025FC0121002000F085FC384CFB
:101C8000E120400260600025A5600020A081E08185
:101C90002082211D00F0C4FC002801D000F066F86D
:101CA00039A100BF32A000F037FD00BF32A000F024
:101CB00033FD002000F03AFC012000F037FC00F07A
:101CC0003DF8002000F0DAF960690128F9D165617A
:101CD000002000F043FC012000F040FCF1E718B5C3
:101CE0008DB0202105A800F053F81421684600F0BB
:101CF0004FF801241B4801680722914321430160EA
:101D0000112005902004069080010C9005A800F099
:101D100017FD002801D000F029F807200090019459
:101D200000200290039004900121684600F05EFEBE
:101D3000002801D000F01AF80EB010BD00200A49AA
:101D40000854401C802212019042F9D370470028A9
:101D500005D101200249486101220A70487070478C
:101D6000304B0020002002400C3E002072B6FEE7FF
:101D700025730D0A000000005553422048494420B5
:101D8000434443210D0A000056302E302E3100000E
:101D9000002200BF094202D0491E4254FCD17047C4
:101DA000F8B50700002000243E4D3978490640D59B
:101DB000009080204005E96B014008D1E96B0143A8
:101DC000E963E96B08400090009801200090E96DFC
:101DD000C020800008400FD0F96988420CD0E96D1E
:101DE00031480840E96D802252020A43EA65E96DF4
:101DF0002E4A0A40EA65E865C0070DD500F00EFFDF
:101E00000600E86D800707D400F008FF801B284912
:101E10008842F6D3032405E0E86D23490140F869C0
:101E20000843E8650098002803D0E86B2149014089
:101E3000E9633878C00705D5686D03218843B96820
:101E4000014369653878800705D5686D1A490140F6
:101E5000F868084368653878800605D5686D8000A5
:101E60008008B969014369653878000705D5A86D10
:101E70001249014078690843A8653878400705D5BC
:101E8000686D0F4901403869084368653878000675
:101E900005D52868E021884379680143296020003E
:101EA000F2BD000000100240FFFCFFFFFFFFFEFF3D
:101EB00089130000FFFFFFEFFFCFFFFFFFEFFFFFE2
:101EC000FF3FFFFF10B5C30018221A40FF249440C3
:101ED000E3438907090E9140020004D4194892088F
:101EE0009200801806E0184A0007000F08388008A2
:101EF00080001018026813401943016010BD80B5BE
:101F0000FFF7E0FF01BD0000010005D40121C0067C
:101F1000C00E81400D480160704710B5401E802101
:101F20004904884201D3012010BD094C606003219F
:101F30000020C043FFF7C6FF0020A06007212160FA
:101F400010BD000000E400E01CED00E000E100E056
:101F500010E000E0C3788278417800781B021A43D1
:101F600009021204084310437047FEE784460870D4
:101F7000000A4870000A8870000AC87060467047FE
:101F8000F0B589B05B4C00230022A021890120001C
:101F9000303000F099FE00285ED108A9012000F041
:101FA0009DFE070007A9002000F098FE050006A886
:101FB00000F0BAFE060005A800F012FF002104910F
:101FC000059903910290069801900096079B2A00BC
:101FD0000899380001F05CFA00283DD1464820609D
:101FE00046486060022000F01EFFA060022000F062
:101FF00029FF20610020E060414860614148A06104
:102000000221012000F00DFFA0620221012000F05A
:10201000F4FE03000094A26A3B493C4801F022FB15
:10202000002819D13A48E0613A4820623A48606293
:102030000021022000F0F5FEE0620021022000F005
:10204000DCFE21001C3100910300E26A3349344870
:1020500001F008FB002801D0FF2002E000F018F892
:10206000002009B0F0BDEFF3108072B6704780F326
:102070001088704780B500F0D1FD02BD80B501F039
:1020800029FB01F056FB01F0C9FB01F065FC01BD25
:1020900010B5FEF7FDFD234C18230022002120007F
:1020A000FFF724FC5823002280212000FFF71EFCAC
:1020B0009823002281212000FFF718FCD82300225A
:1020C00002212000FFF712FC8C235B0000228221FA
:1020D0002000FFF70BFCAC235B00002283212000D3
:1020E000FFF704FC2100104801F0C2FC2000FEF7BD
:1020F00057F810BDD00D00201D3700082337000809
:102100002B3700082F37000841630008400D0020DE
:10211000C9370008CF370008D13700088D620008A2
:10212000280D00206C460020005C0040F0B593B004
:102130000500FF266C480068009024300590686A0E
:10214000002800D0A0E03C202F5C3D20285C0490BB
:1021500028003E3000F0D4F804002800403000F0A1
:10216000CFF802902800423000F0CAF806906020B4
:102170000499062901D0072906D1210A014003D07C
:102180008743390020270F43384040282ED1564836
:102190000068B6225200801840680790002827D0B7
:1021A0000498514A1268B6235B00D25890421FD15E
:1021B000701C039003A80190E8680090069B029AA7
:1021C00021000498079CA047002809D10320059905
:1021D0000866069A03990598383001F067FC03E019
:1021E0000598183001F074FC00204EE0202831D111
:1021F000042008900095FF203C00049F029D0026CB
:1022000039490968B2008918822252008958002988
:102210001AD0A207920F012A10D1A12C0BD1002FA6
:1022200009D10A6E527C072A05D1009A4123D25C5B
:10223000B24203D008E0EAB2B24205D1109108A838
:10224000496C884700281ED0761C102ED8D3060073
:102250001AD013E004980C2843D801A2125C9744CA
:102260000C2C80388044548060666E762400069A78
:102270000299380001F04EFC060005D00598183090
:1022800001F026FC00E00026300013B0F0BD029AF9
:102290002100380001F086FCEEE7029A21003800A8
:1022A00001F0B6FCE8E70098446122001121009893
:1022B00083699847E0E7069A0299200001F0DAFC6A
:1022C000DAE701F0C9FDD7E7200001F0D7FDD3E739
:1022D000029801F0D5FECFE72100029801F0F2FE4E
:1022E000CAE75426CAE700BF5C4B002003E00B7826
:1022F0000370491C401C13005A1E002BF7D1704775
:102300000178407800020843704710B58A68536826
:1023100004241C4354608B7B917A1943C422805857
:10232000FEF72BFC002010BDF8B58CB0FF251B4C30
:1023300020680090070024373868032816D19020C1
:102340003D58002D0EE00320019003956968099126
:10235000002902D001A8496C8847AE69280001F025
:10236000BFFF3500EFD10120386001E0012806D120
:102370003A0018320F210098836998470500002021
:102380008021785038602068E8314158002901D018
:102390000A20884728000DB0F0BD00BF5C4B00202C
:1023A000F8B5324F38680600F16900910400243412
:1023B000B0214900411800250A68012A05D1010011
:1023C000CC318A6A0A60CA6A0CE00D600100CC3127
:1023D0008A6F012A03D18A680A60CA6802E00A6922
:1023E0000A604A694A60231D0E2221498C46CC218D
:1023F0004058614601F09AFF1E48E066606CA06498
:10240000E07A2085E07AE064200018302064220021
:1024100018320E213000B3699847009EC43600215F
:102420003068FEF714FC0023E27A00213068FEF7E2
:102430001BFB80213068FEF70AFC0023E27A802132
:102440003068FEF711FBE5610120E063A06308201E
:10245000E064606525653868B42149004158002969
:1024600001D0012088470020F2BD00BF5C4B002056
:102470005C0D00201027000010B50024032001F09F
:1024800083FF002801D0012401E001F0A3FF200018
:1024900010BDFEE781B0202008490A6802430A60A7
:1024A0000A6810400090009801200A6802430A6000
:1024B000096808400090009801B07047341002404D
:1024C00070B586B00500002000240121754A2B005C
:1024D00004D0012D09D00124E44324E013680B4308
:1024E000136012680A40009206E0042316681E4337
:1024F0001660126813400093009A00BF21A36E007B
:102500009B5B0193029103900320049001A966480C
:10251000AA00805801F076FF012D04D1012251025A
:10252000714802F017F8200006B070BD10B5002405
:10253000010004D0012807D00124E4430BE001226C
:102540002021A020C00504E00022802189005648F7
:10255000406801F0FFFF200010BD000010B500240E
:10256000010004D0012802D00124E44308E000BFA8
:1025700004A14200895A4C4A8000105801F0F0FF33
:10258000200010BD20000002F8B586B00422454BA3
:102590001C6814431C601B681A400092009A0700D4
:1025A0005AA07A00805A01900120039002200490E2
:1025B000BE004E4DAC192068002904D1029101A93A
:1025C00001F020FF20E04A49029101A901F01AFF21
:1025D00048480C2179434018009000BF4DA0815914
:1025E000009801F0E3FF281D82590021009801F0B6
:1025F000CDFF00BF46A0C5570022A1682800FFF705
:102600007EFC2800FFF780FC002007B0F0BD000032
:1026100080B538490C225043081801F0CEFF01BDA7
:10262000F0B587B00024002801D0012434E00691E1
:1026300001251C4801682943016001682940009177
:1026400000990168294301600168294000910099BF
:10265000690482680A4382608068014000910098A2
:102660000420019002260296049603950595A02762
:10267000FF0501A9380001F0C5FE0820019002966F
:10268000059501A9380001F0BDFE06991A4801F030
:10269000B7FF002801D00324E443200007B0F0BDB9
:1026A00000000000341002403066000870B51400CD
:1026B00000250E0004E0307800F006F8761C6D1C52
:1026C000A542F8D3200070BD31B5FA239B0001224A
:1026D00069460948094C247894256C43001901F097
:1026E000E3FF009832BD0000000800502466000897
:1026F00000002110484B00204C4A00206A4B00206B
:1027000080B50020FFF723FB01BD00000020000082
:10271000070000000D0000060EB4C0B5020003A8BB
:1027200001900020009001AB0121044878440C3056
:1027300002F054FA029906B0084700BFB13E00000B
:10274000F1B582B0002856D0A24C0078C00708D559
:10275000A1680298406838220A40082A4DD1002812
:1027600049D002980078800726D5A2680298C068F0
:1027700099499A4E3823134074D100283BD06068A1
:1027800006400298406900023043606020680140C2
:102790000298006908432060914801212268920450
:1027A000520F914002F0D4FC8849086088480068C4
:1027B00001F0EAFD00281ED10127FF4338260298C8
:1027C0000078000707D502988069A1683140182970
:1027D0007CD100280FD0042002990968014000D163
:1027E000C8E002998968A2681640202E00D08FE0C8
:1027F000002900D0BEE00120FEBD802149028842B0
:1028000007D0A022D2029042206805D18A0002435C
:1028100022602068014305E0724901402160206880
:102820007149014021608025AD020298406800286E
:102830000CD000F0F3F906002068284091D100F098
:10284000EDF9801B6528F7D30320FEBD00F0E6F903
:1028500006002068284084D000F0E0F9801B65283D
:10286000F7D3F1E7220D0092002820681ED0014026
:1028700002980069084320602068910801432160A4
:1028800000F0CCF9029D070020680099014005D1B5
:1028900000F0C4F9C01B0228F6D9D5E760680640ED
:1028A0006869000230436060029585E7A7490140EE
:1028B000216000F0B3F90500206800990140F4D0D0
:1028C00000F0ACF9401B0228F6D9BDE70028206EC5
:1028D0000FD001210143216600F0A0F90500206E10
:1028E000800700D577E700F099F9401B0228F6D958
:1028F000AAE73840206600F091F90500206E8007B5
:1029000000D468E700F08AF9401B0228F6D99BE75B
:102910000122012904D0052906D1E16D0843E065B3
:10292000E06D0243E26506E0E06D0740E765E06DBB
:1029300004218843E06502260298806800280CD0B4
:1029400000F06CF90500E06D304013D100F066F93D
:10295000401B97498842F6D376E700F05FF90500FF
:10296000E06D304006D000F059F9401B9049884294
:10297000F6D369E702980078C00624D5802636048D
:102980000298C069002820680ED0710801432160B8
:1029900000F044F905002068304014D100F03EF901
:1029A000401B0228F7D94FE791490140216000F010
:1029B00035F905002068304005D000F02FF9401BA4
:1029C0000228F7D940E70020FEBD000010000020DB
:1029D0000800002000100240FFC7FFFFFF80FFFF3C
:1029E000006CDC02FFFFFEFFFFFFFBFFF8B50700F6
:1029F0006ED000917F4800684007400F884218D28F
:102A00007C4E30680721884300990143316000F013
:102A100005F9009C050030684007400FA04207D030
:102A200000F0FCF8401B62498842F4D30320F2BD59
:102A300000943968704D022001420ED0490706D536
:102A4000A9686E4A0A40B02109011143A960A9682A
:102A50006B4A0A40F9681143A9600726F6433978A2
:102A6000C90738D529681C229143BA680A432A60ED
:102A70007968012918D12868800329D5A8683040D1
:102A80000143A96000F0CAF83C000700A86838219B
:102A900001406068C00081421CD000F0BFF8C01B3C
:102AA00043498842F2D3C1E7002902D12868400592
:102AB00003E0022903D128680002DFD408E00329DB
:102AC00003D12A6E1040D9D102E0EA6D1040D5D171
:102AD0000120F2BD27000098464909684907490FBF
:102AE000884217D243480068064000983043414965
:102AF000086000F093F8009C06003E48006840071C
:102B0000400FA04206D000F089F8801B2849884277
:102B1000F3D38BE73878400705D5A86837490140DB
:102B200038690843A86000F013F83649AA6812050E
:102B3000120F9200895CC906C90EC840324908606C
:102B40003248006801F020FCF2BD0000FFFEFFFFEC
:102B500030B507222849086884081440641C2D48B1
:102B600038238D681D4007D10B680121DB0A1A400C
:102B7000914002F0EDFA16E08A681A40082A12D055
:102B80008A681A40202A02D1802000020BE08A685D
:102B90001A40182A02D1FA20C00104E089680B40CB
:102BA000102B00D00020210002F0D2FA30BD00002E
:102BB0008913000080B5FFF7CBFF15490968114A5A
:102BC0000905090F8900515CC906C90EC8400E49A4
:102BD000086002BD80B5FFF7EDFF0F490C4A12688F
:102BE0005204520F9200895CC906C90EC84002BD4A
:102BF000FFFFBFFF0020024000100240FF8FFFFFD9
:102C0000FFF0FFFF00640008100000200800002013
:102C100008100240006CDC0294650008014840681E
:102C2000704700BF00000020FEB504001E00002C0D
:102C300002D00191002901D1FA20FEBD15000A46FB
:102C4000002102F0A0FA200018301D490860C620BB
:102C500040002118216014300096002D06D0002E6F
:102C600004D020186060DA20400000E06160154E5A
:102C700034600727FF432118C91D394001982018E7
:102C8000814214D2421A206802F086FA002D15D033
:102C90000098002812D002460021280002F073FAA2
:102CA000E81D0740390000982818814201D31220FE
:102CB000FEBD421A3068406802F06EFA0020FEBD88
:102CC0005C4B0020604B002080B5002801D000291B
:102CD00001D1FA2002BDFFF7A7FF02BD70B50300C6
:102CE0000D00544C94208000221818000AD197201F
:102CF0008000261800233100200000F0C3F8902047
:102D000040000AE0C92080002618310094204000CD
:102D1000201800F0B7F89220800020180168406861
:102D200009183000296070BDF1B582B000206946F5
:102D30000880414C09262670042565700120A0708A
:102D40006A46E11C18A000F083F8684607883F1D1A
:102D5000F8B226547F1CF8B225547F1C0220F9B229
:102D600060547F1C6A46F8B2211800BF13A000F01F
:102D70006FF8684600883818401CC1B26654401C81
:102D8000C1B26554401C0321C2B2A1546A46401C22
:102D9000C0B2211810A000F05BF8200002F01AFA6F
:102DA000029908602000FEBD53544D6963726F653F
:102DB0006C656374726F6E696373000053544D33B6
:102DC000322055534220484944204344432044651F
:102DD0007669636500000000434F4D50303031008C
:102DE00038B50400154D09202870042068702800AB
:102DF00002F0F0F92060280032BD30B50200002357
:102E000000200C4C5C255D436419257B954204D160
:102E1000257D8D4201D15A20205C5B1C032BF0D311
:102E200030BD0120704701000020022900D1044874
:102E300070470000D80800204C490020684B002053
:102E4000DC0C002001000020022900D14A2070473C
:102E5000002800D1704730B50023040001E05B1C5E
:102E6000641C2578002DFAD1DBB213800B7001228F
:102E700003E0D4B20B55521C401C0378002BF8D150
:102E800030BD0000F0B587B00024039490256D009C
:102E900045196C6090256D00445112240C7001247A
:102EA0004C706F4C61608024A4008C700224CC7044
:102EB0006B4C656800242C716C71AC714024EC7112
:102EC000684E2E7204266E72654D6D68664EAE7247
:102ED0005726EE72624D6D68E6002E7302266E7301
:102EE0005F4D6D680126AE730226EE7303262E74C5
:102EF00001266E7490256D00455912359026760096
:102F00008551012B1BD14D190A262E7006266E7095
:102F1000534EB560E600AE700226EE70504DAD68BF
:102F200000262E716E71AE71EC7101242C726E72DE
:102F30009024640004590A3490256D004451040023
:102F40000691059268460371454E6168022901D8D1
:102F5000A068022800D940E20598039A805C002806
:102F600000D13AE290225200A518069A2B68D21896
:102F700002925C224A43230018339B58002B43D112
:102F80002300103399502100183162685C235A43A2
:102F900001238B5021000C3162685C235A43885412
:102FA000002701280DD170782300143361685C225A
:102FB0005143325C5A54401CC1B2012900D1002057
:102FC00070706846007920706068002812D10298FD
:102FD000092101700221417000218170C1700171CD
:102FE000012141718771C021C17119210172686885
:102FF0000930686060685C21484321000C31095C3D
:10300000012900D13AE1022900D0E0E1200000F0DE
:1030100000FA2300203361685C22514302225A5097
:1030200021005A3163685C225343C85421005B314C
:1030300063685343401CC85420001C3061685143EE
:10304000032242506846007901280FD180239B005B
:1030500002220221200000F0F1F980239B000CE005
:10306000C40C0020830400005057000040230222BB
:103070000221200000F0E2F94023022282212000F8
:1030800000F0DCF9082303228321200000F0D6F9A8
:103090000298009069684018082101700B21417066
:1030A00021005A3162685C235A43895C8170022195
:1030B0000291C170029901710299417101218171DE
:1030C000C771686808306860009A10180922027099
:1030D0000422427022005A32944663685C225343B1
:1030E0006246D25C8270C7700171029A4271029A84
:1030F0008271C1710772686809306860009A10189F
:103100000522027024224270877088235B00C370FE
:10311000012303716868401D6860009B18180490C3
:103120000520049B1870049B5A70049881700499C0
:10313000CF7020005B3061685C235943405C049988
:1031400008716868401D68600099081804210170C2
:103150004270029981700299C1706868001D6860B0
:103160000099081805210170427006218170210024
:103170005A3162685A43895CC17021005B316268D0
:103180005A43895C01716868401D6860009908189D
:10319000072101700522427062685A43A218302349
:1031A000D25C82700322C270706162685C235A43F1
:1031B000A218528E0271120A427105207269907132
:1031C0006868C01D6860009A101809220270042205
:1031D000427022005B32944663685C22534362462D
:1031E000D25C8270C770029A02710A2242718771A2
:1031F000C7710772686809306860009A101801701A
:103200000522427022002432944663685C225343B4
:103210006246D25C8270029AC270706122002632CD
:10322000944663685C2253436246D25A0271120A82
:103230004271726997716868C01D6860009A1018C1
:1032400001700521417061685C22514361182A2296
:10325000895C81700299C170706161685C22514320
:103260006118898D0171090A4171706987716868F7
:10327000C01D686000980179891CA3E02100143109
:10328000085C022800D0A2E0200000F0C2F8230071
:10329000203361685C22514301225A5021005A3187
:1032A00063685C225343C85420001C30616851435A
:1032B00001224250042303228121200000F0BEF8A5
:1032C00002982100143162685C235A43895C022908
:1032D00076D16968411809220A7004224A702200D6
:1032E0005A32944663685C2253436246D25C8A70C9
:1032F000CF7022001C32944663685C2253436246BE
:10330000D2580A7103224A7101228A710223CB71B9
:103310000F72696809316960411809230B70212314
:103320004B703161F0338B700123CB7031690F71B9
:103330004A7122228A714A22CA7100220A7269687D
:103340000931696041182278012A19D107220A70CF
:1033500005224A702200243263685C277B43D25CDA
:103360008A700322CA70F1602200263263687B43B0
:10337000D25A0A71120A4A710521F26891711CE051
:1033800007220A7005224A70230024339C4667688E
:103390005C235F436346DB5D8B700323CB70F1607E
:1033A000230026339C4667685C235F436346DB5BF0
:1033B0000B711B0A4B71F1688A716968C91D6960DC
:1033C0000179491C017169688170090AC1706068DE
:1033D000401C6060A068401CA0600398401CC0B204
:1033E0000390022800D8B0E5069805997268A36892
:1033F000012B05D9EF21117102215171012105E045
:103400000978022903D1117151710021917107B01E
:10341000F0BD30B501000020002308E0401C641C12
:103420005C255D434D192D6AAC42F7D35B1C8C685B
:10343000A34201D20024F3E7C0B230BDF0B50026AC
:1034400000E0761C44685C256C430719062474432D
:103450003D19FF69BE4203D22827EF5D002FF0D14E
:103460002426A95541685C25694341180919252579
:103470004A5541685C22514341180919CB8441687F
:10348000514340180019282101224254F0BDFEE7A3
:10349000FFB587B010981199129A139B149C704D28
:1034A0002D682E00243600962E00D436079FB76074
:1034B000089FF760099F37600A9F776030617161EC
:1034C000B261F3610220B062B42040002C50C822E7
:1034D0000021002001F086FE002801D11220BDE06D
:1034E0005F4909688022520088500121002001F0C4
:1034F00079FE002801D1122700E00027009944310D
:1035000003910860002001900021002F44D1544A0B
:103510001368D4331A685B680024002500260296DD
:1035200014E0069C0194029C049D854200D328006F
:103530000025002607E01779B74200D33E009778B0
:103540008F4200D33900059FDB1BD219AF190497B6
:10355000019FBC4200D32700069700270297002B4B
:103560000DD0177805975778022FDAD0042FEAD1BB
:10357000D778002FDFD1049D1679641CDFE7049E05
:10358000864200D20600069A002A06D14222032172
:10359000022001F08FFE42274BE01227102905D3AD
:1035A00012220321022001F085FE42E003984265C9
:1035B0000398C66520230021002001F089FE002821
:1035C00037D003990865002E01D1002046E068231A
:1035D00032000021002001F07BFE002829D0009954
:1035E000443188650400009D00E0683428004430C0
:1035F000806D6821714340188442E6D28022920097
:103600000121002001F0EEFDE0620028EDD10095DF
:10361000002C0ED005E0E06A002801D001F06EFE1B
:10362000683C28004430806D8442F4D2009501F05B
:1036300065FE00984430006D002801D001F05EFE68
:103640000098406C002801D001F058FE0448006842
:1036500080214900405801F051FE38000BB0F0BD08
:103660005C4B0020F9B58DB00F00160000240094CB
:103670003F2269460D9801F069FE002825D11448C3
:103680000168FC31486801E06430641C0A689442B7
:103690001AD2026C002AF7D10400149D009A521C21
:1036A0000D99FEF723FE67646565E6650E98A065D3
:1036B000052001900A95099401A8B847002804D173
:1036C00001202064002000E012200FB0F0BD0000B7
:1036D0005C4B0020F8B5104F386800221221836936
:1036E00098473868802149004558002600200DE0A1
:1036F000296C002909D0296D002906D00400A86C86
:1037000088470100214308006435761C3968FC2293
:1037100089588E42ECD3F2BD5C4B002027494860AB
:1037200070470020254948607047002070470020FE
:103730007047F0B58BB02248046824342C22002155
:10374000684601F020FD2068032835D11B484068F9
:10375000002831D01B48007801282DD117480021BE
:1037600045562900002400220023164E3678012EEB
:1037700015D1102D00D100210D00042D01D20A22F7
:103780000CE02F1F042F01D20A2307E00926F6437D
:10379000083D042D01D2320000E03300491C0170C5
:1037A0000421029169460C734A738B73CC73406891
:1037B00001F0E3FD034804700BB0F0BD544B002052
:1037C0005C4B0020314B00206249486070477047D5
:1037D00010B5604C6060904909689922895C202985
:1037E00002D0212910D010BD22000832022101F0A0
:1037F00000FE002801D0FEF7B9FA96208001A168EA
:1038000081420AD2A06010BD22000832012101F0DD
:10381000F0FD002801D0FEF7A9FA10BDFEB57E48E4
:1038200000684C4C0025416A032902D0A561E5617E
:103830008DE0A22149004158022902D18027BF0012
:1038400000E040270021243000F0FAF861680029E8
:1038500008D02169002906D0052907D0802942D047
:10386000812974D0F7BDE56105212161A56123009F
:1038700018333A006A49611801F024FEE169802694
:10388000042803D2002962D0802560E0A26919D102
:10389000002A5CD0002902D1FFF7C0F92062257010
:1038A000E569A2695E482118200024304019FDF71F
:1038B000F1FFA0692818E0613101081AB84247D227
:1038C0002661F7BD052843D1002941D0002A08D13F
:1038D0002078401CC1B2102901DB00202661207035
:1038E000F7BD2061F7BDFFF799F9216A002900D1E2
:1038F0002062216A461AE0690290284607D00298A1
:10390000FA2189004843310001F022FC800A434F2C
:1039100001900096029B434A60214348201801F021
:1039200037FE01280ADB414E6021300001F056FECF
:10393000FF2382B23100380000F0B6FE2562FF237B
:10394000E26992B221002431380000F0ADFE256119
:10395000F7BD000014000020F8B584B000240394E3
:103960002D480068324D416A032952D1002124308C
:1039700000F066F806002868002802D0052815D057
:1039800047E02C480178002944D00470FFF746F93D
:10399000686080221201AA6003AB29000C3130005C
:1039A00001F028FE052835D1286033E003AB002262
:1039B0000021300001F01EFE05282BD26868002887
:1039C00027D0FFF72BF96968471AA86802902046AC
:1039D00007D00298FA2189004843390001F0B8FB6A
:1039E000800A15496E1801900097029B134A6021C6
:1039F000300001F0CDFD012809DB6021300001F02D
:103A0000EDFDFF2382B23100044800F04DFE6C60F2
:103A1000AC602C6005B0F0BD5C4B00204C4A00202F
:103A2000240800007C640008640800007808002076
:103A3000003E0020304B00200C080000A864000865
:103A400010B504000220FFF7D8F9401C80B2902185
:103A5000615800E08969002907D04A7C0A2AF9D117
:103A60008A7B8242F6D1886810BD002010BDFEE737
:103A700038B50C000B48056880206860C82200211A
:103A8000002001F0AFFB002801D1122032BDE86117
:103A900005600549A961C421445001202860002027
:103AA00032BD00BF5C4B00204D5F000810B5040024
:103AB00000202063200001F011FE062801D1FE2025
:103AC00010BD042801D2606A10BD002010BDFEE7C1
:103AD000F8B505000E4F3C68FF26FEF7C4FA0090CB
:103AE0003868406A00280DD0686802280AD02A0089
:103AF00014212000A36998470600E87B800701D0C5
:103B0000022068600098FEF7B2FA3000F2BD00BFF4
:103B10005C4B0020F8B5224A136800931D003C3529
:103B20000023EE6A3370EC6A6370022302270326D7
:103B30000124304002D002281FD02AE0F0200002E9
:103B4000814208D10127AE643A00390028002030B4
:103B5000FFF7ACFFF2BD1068A421490040580228CD
:103B600001D1E86A04701068083140580028EAD092
:103B7000E86A01780B430370E5E70A001521009815
:103B800083699847FF2804D00128DCD1E86A0470D3
:103B9000D9E72A0014210098836998470020F2BDD4
:103BA0005C4B002070B50300140018480268100038
:103BB00000259B079B0F02D0022B0CD020E001298F
:103BC00022D1A620400010180168002901D04560CC
:103BD0001AE0542070BDB4215158230000E08969D7
:103BE00000290DD0CC6900E06469002CF7D0A67BD9
:103BF0009E42F9D12200102183699847656003E055
:103C00003C32142183699847002070BD5C4B002032
:103C100038B503001648046820009B079B0F02D0AC
:103C2000022B0DD01CE0012908D1A620400020184D
:103C30000168002902D00121416016E0542032BD04
:103C4000B421635800E09B69002B09D0D96900E0DA
:103C500049690029F7D08D7B9542F9D10A0001E02E
:103C600022003C32142183699847002032BD00BFF6
:103C70005C4B0020F4B588B0FF220792734C236898
:103C800006931A003C3200920322009DAA64C7B238
:103C900000220604360E089D012E0CD0022E29D0DB
:103CA000032E65D0062E0AD0072E23D0092E0AD067
:103CB0000F2E1FD0C2E0132D08D3122506E00A2DC7
:103CC00004D90A2502E0052D00D905251800CC30BD
:103CD000016840680818009C01E00A788918814250
:103CE00017D24A78B242F8D12A00E06AFEF7FEFA0B
:103CF00000949CE0072E04D11800CC308468C06882
:103D000003E01800CC3004684068201800E0641814
:103D1000844270D221780F2E63781BD10F2BF6D1FD
:103D200001AB04224A49200000F000FB01A84088B2
:103D30002100089A904200D20500FF20801C854295
:103D40004ED22A000098C06AFEF7D0FA0098C06AE6
:103D500046706CE0022BDAD1BA4201D0521CD6E791
:103D600003AB08223B49200000F0E0FA03A8DEE79D
:103D7000002F18D11800CC30416A881CFF22921CF9
:103D800090422DD20098C06A891C017003214170B5
:103D90002168EC314A680968801CFEF7A7FA2068A0
:103DA000F02140583EE01800CC308469C669079184
:103DB00004E0E078361A361F211D0C18002E3DD085
:103DC0002000FEF79DFA07998842F2D1A078B84208
:103DD000EFD1E0784100891CFF20801C81420DDB7F
:103DE00012220921022001F065FA009A1421069896
:103DF000836998470790079809B0F0BD0098C06A9A
:103E00000170032141700023002107E04A00261DB4
:103E1000765C8718BE70C71CBB54491CE27891427F
:103E2000F4D35000801C0899884200D20500089AFB
:103E3000290000982030FFF739FEDBE7009A1421B3
:103E4000069883699847FF20D6E700BF5C4B0020A7
:103E5000800D00206C0D002080B507480168080027
:103E60005C30A4228958C26811700321816201224A
:103E70000121FFF71BFE02BD5C4B0020F8B59CB092
:103E800001A90022002300241CC10D920F920B9265
:103E9000784909680A910A00243204920C93049A22
:103EA0008023D258824246D0CC310C684D6806003F
:103EB0000FE027786078022809D101AB08226E490B
:103EC000200000F033FA01A84079B04209D0ED1B80
:103ED000E419002DEDD13500009404D0FF201DB071
:103EE000F0BD35000094049F803703200E903868A1
:103EF000002814D0049890214458002C0EE00E980D
:103F00001190139461681991002902D011A8496C8D
:103F10008847A669200000F0E3F93400EFD10020C3
:103F20003860012004990860012213210A988369EE
:103F30009847002D01D10020D1E73D60049B8433D8
:103F400008224D49009800F0F1F901AAD079410604
:103F500001D5022100E00121464B1B68A424640026
:103F60001B1919608006C10F5960508809901EE026
:103F70006430491C089E3668B1420DD2066C012E91
:103F8000F6D1876DBB42F3D1C66DB542F0D1990031
:103F9000511882225200885000220999009801F09D
:103FA000FDFB0998001B09900098001900900998E2
:103FB000002856D00098047840780B2808D10120BA
:103FC0000C90009880780F900098C0780B90E8E7EC
:103FD0000428E6D105AB09222849009800F0A6F98B
:103FE00005A8C0780028DCD105A88378214802689C
:103FF0000C9800282FD00F998B4225D11000FC304F
:1040000008904168002610950D9801E06431761CF7
:10401000089D2D68AE420FD20D6C012DF6D18F6D2B
:10402000BB42F3D1109DCF6DBD42EFD19800101867
:104030008222520081500800109D0D900B98401E66
:104040000B90A9D10C90A7E70D98990051188222E6
:1040500052008850F2E71000FC30089040680021C0
:1040600088E70E9804990860032213210A9883694F
:10407000984760E75C4B00206C0D0020740D002019
:1040800080B50F4909684A6A032A16D1B4228A58B2
:1040900000E09269002A10D0937B8342F9D1080096
:1040A0005C30D17BC26811700121416103218162C2
:1040B00001220121FFF7FAFC02BDFF2002BD00BF73
:1040C0005C4B0020F0B597B0814A13681A00243287
:1040D0001468032C01D05420F7E09024145903E015
:1040E000A57B854209D0A469002CF9D15222072171
:1040F000022001F0DFF85220E7E00A9000940191DD
:104100000098C07B884201D10020DEE00B931800AC
:10411000CC30046845686F4F05AE099202E00898FC
:104120002D1A2418002D17D02078089060780228C6
:10413000F5D105AB08223900200000F0F7F87079BE
:104140000999802289588842E9D17688009F250004
:1041500001E0361B2D19002E00D1B5E02C786878CF
:104160000428F6D102AB09225B49280000F0DEF8F2
:1041700002A880780A998842EBD102A8C0780199F8
:104180008842E6D1FC6900970B9F01950025002C21
:104190000FE02621200001F091FB22000F213800C2
:1041A000BB6998476069256065606561A561E561E7
:1041B0000400EED10098C56101980078361A019983
:1041C00008180190099890300A900CE0089E04E0CD
:1041D000080041690029FBD144610898361A01980A
:1041E000089940180190002E4DD001980078089051
:1041F000019840780228E9D00428E7D00528ECD1BE
:104200000A98C468006901E06834401E002838D06C
:1042100021680029F8D10120206023000C330622F8
:104220002E49019800F082F8208A4105490D284A5C
:104230001268A2235B00D258022A09D1E27BD2077E
:1042400006D5C0225201024002D0D00A401C414390
:104250002164A4620020C04360650098A0610998B1
:10426000E06122000E213800BB699847002806D182
:104270000098C0690028ACD10098C461ADE7256002
:1042800023E0122021E00C2202A900980C30FEF756
:104290002DF80F4800680099897B89004018822119
:1042A00049004158002902D0086C002801D157204C
:1042B0000BE006200C9000980E9014910098086670
:1042C0000CA8496C884700E0FF2017B0F0BD00BF84
:1042D0005C4B00206C0D0020740D0020540D00205C
:1042E000F8B507001048006824300090FE690025EA
:1042F0000CE0340066690C48006822000F218369D5
:104300009847256065606561A561E561002EF0D183
:10431000B8690099902288507D60BD60BD61FD61E3
:104320003D600020F2BD00BF5C4B0020F8B50400EA
:104330000F0015001E0009E03070761CB107FBD19C
:10434000200001F0C1FA3060241D361D2800451EF2
:10435000002817D039004F1C00200978022908D006
:104360000429EBD020783070641C761CEEE73070A6
:10437000761CF107FBD42000FDF7C2FF3080A41C9F
:10438000B61CE3E7F1BDFEE770B5060000240F4D53
:104390002978002916D0FA20800000F0D9FE01000B
:1043A0000B48006800F0D4FEFDF7B7FD002809D1E6
:1043B000042E07D2002231000020C043FDF79FFDEC
:1043C000AE6000E00124200070BD00BF00000020AE
:1043D0001000002081B00A48012142680A4342606F
:1043E00042681140009100998021490502680A4302
:1043F0000260006801400091009801B0704700BF62
:104400003C100240FCB50A0000230121009101008C
:104410002CE0062003E056488142FAD10520A8404E
:104420003843206053480468F04304405568ED0366
:1044300000D534434F4D2C606C6804405768BF036F
:1044400000D534436C604C4C246804405568ED0240
:1044500000D53443484D2C606C6820405468A40259
:1044600002D504003000204368605B1C1068040023
:10447000DC406ED0009C9C40019426460640F4D05F
:104480005068022801D012280FD1D80880000C18DB
:10449000206A9F001C253D400F27AF40B843177C82
:1044A0003F073F0FAF40074327620D6858000327BF
:1044B0008740FC4325401779BF07BF0F87402F4334
:1044C0000F605568012D05D0022D03D0112D01D0AC
:1044D000122D11D18D682540D76887402F438F60FA
:1044E0004D68019FBD43AC4655682D09009F2F4084
:1044F0009F4065462F434F605568032D05D0CD681A
:104500002C40956885402543CD605068C000ACD5EF
:104510001A489C08A40004192768D80018250540EB
:104520000F20A8408743A020C005814201D1002070
:1045300075E71348814201D1009870E71148814224
:1045400001D102206BE71048814200D063E70320CD
:1045500065E7F3BD002A01D0816170478162704731
:1045600042690B0013401B0491431943816170475A
:1045700000140050801802400018024060180240E9
:104580000004005000080050000C00500300002000
:10459000002903D0022905D002D305E05A6001E0CA
:1045A0005A6070479A60704701207047002801D117
:1045B0000120704701600020704770B50400216839
:1045C0000125080C2840C906C90E8D4046010A483D
:1045D00080190168294004D005606068002800D077
:1045E0008047064880190168294004D00560A0680A
:1045F000002800D0804770BD0C18024010180240FF
:1046000080B50D4A126802600A6842600C2242615D
:104610000A228A5E02614A68826008228A5EC2605B
:104620000C22895E816180210902C1610021416201
:1046300000F004F802BD00BF0C00002038B50400F3
:1046400001D1012032BD250084356868002803D1DE
:104650002870200001F043F9242068602068016878
:10466000012291430160A06A002802D0200000F0DE
:1046700049F9200000F086F8012811D0206841682F
:10468000084A0A404260206881682A22914381607A
:104690002068016801220A430260200000F0A0F9AE
:1046A00032BD0000FFB7FFFFF1B584B01F00064622
:1046B0005436706B202861D10C000FD06846028000
:1046C000002A0BD00498806880214901884207D1D4
:1046D00004980069002803D1E00701D501204EE0CD
:1046E0000025F56321207063FEF798FA0100684603
:1046F000008830806846008870803A00049880689E
:1047000080235B01984209D104980069002805D1F3
:104710002500049F0192029104001AE02000F8E7AE
:1047200021788162641C11E001980090029B0022B4
:104730008021380000F0BCF900281BD13868002C1B
:10474000EED12988C905C90D8162AD1C7088401E53
:10475000708070880028E7D13800029B0199009191
:104760000022402100F0A4F9002803D1202070632A
:10477000002004E020207063032000E0022005B048
:10478000F0BD0000F8B50500002600242868016887
:104790008E4A0A40A96811432A690A43696911438C
:1047A000EA690A4302604168894A0A40E96811439C
:1047B00041608168874A0A40A96911432A6A0A430D
:1047C0008260C16A0F2291436A6A0A43C262824AC6
:1047D0001021824B98420FD1506D8007800F0ED070
:1047E000022803D004D3032804D009E0022107E003
:1047F000042105E0082103E0A54B984200D10021E7
:1048000000910727A34980200002EB698342009BA7
:1048100032D1002B06D0022B23D0042B29D0082B19
:1048200004D059E0FEF7D6F9002856D06968009107
:104830002EA16A6A5200895A00F08AFC4000009951
:1048400049084018009900F083FC01001039924A91
:10485000914241D202404008074017432868C76090
:104860003BE00800116849093940491C00F070FC20
:10487000DAE7FEF76DF9D7E7002B06D0022B20D040
:10488000042B26D0082B04D026E0FEF7A3F900283D
:1048900023D06968009100BF14A16A6A5200895A46
:1048A00000F056FC009949084018009900F050FCAF
:1048B00001001039784A91420ED280B22968C8604E
:1048C0000BE00800116849090F40791C00F040FC1A
:1048D000DDE7FEF73DF9DAE7012428006830012121
:1048E00041800180C66006612000F2BD0100020027
:1048F0000400060008000A000C0010002000400020
:10490000800000012821415C090706D501684A683A
:10491000624B1340826B1A434A602821415CC907ED
:1049200006D501684A685E4B1340C26A1A434A6062
:104930002821415C890706D501684A68594B134014
:10494000026B1A434A602821415C490706D5016879
:104950004A68554B1340426B1A434A602821415C18
:10496000C90606D501688A68504B1340C26B1A43CA
:104970008A602821415C890606D501688A68754BE2
:104980001340026C1A438A602821415C490611D504
:1049900001684A68704B1340426C1A434A60426C8B
:1049A00080235B039A4205D14A686C4B1340826CAA
:1049B0001A434A602821415C090606D501684A6805
:1049C000674B1340C06C184348607047F369FFCFD2
:1049D000FFCFFFFFFFF4FF1100100240003801403D
:1049E000FEB50600370084370024FC60FEF716F998
:1049F0000190202530680068000717D559480090BD
:104A0000019B00222904300000F052F800280DD04C
:104A1000EFF31080012181F3108831680A68802348
:104A20009A430A6080F310887D6026E03068006851
:104A3000400725D54B480090019B002269043000B7
:104A400000F036F800281BD0EFF31080012181F32D
:104A5000108831680A68444B13400B6080F310885B
:104A6000EFF31080012181F3108831688A680123F7
:104A70009A438A6080F31088BD603C700320FEBDBD
:104A80007D60BD60F46634673C700020FEBD0000B0
:104A900000440040006CDC02F0FF0000FF7FFFFFDD
:104AA000FFFFFDFFFFFFFEFFFFFFFBFFFFEFFFFF2D
:104AB000FEB580273F0108250026040001916846C5
:104AC000027002932068C0690199014001988142F7
:104AD00001D1012000E0002069460978884236D1E2
:104AE00008980021C9438842ECD0FEF797F8029954
:104AF000401A0899814201D3002901D10320FEBD4B
:104B0000206800684007DDD501988028DAD0402869
:104B1000D8D02068C0692840206803D1C0693840D7
:104B2000D0D009E00562200000F020F82000843099
:104B3000C56006700120FEBD20680762200000F0FD
:104B400015F8200084302021C1600670D6E70020CF
:104B5000FEBD0000FFDFFFFFFFFFEFFFFFFF9FFF36
:104B6000FFFFF7FFFFFFFF01DFFEFFFF10B5EFF3D1
:104B70001081012282F3108802681368134C1C40D4
:104B8000146081F31088EFF31081012282F3108802
:104B9000026893680E4C1C40946081F31088C16ECB
:104BA00001290BD1EFF31081012282F310880268F2
:104BB00013681024A343136081F3108820218C22F2
:104BC00081500021C166416710BD0000DFFEFFFF7C
:104BD000FEFFFFEF0100202008437047F8B596B0B4
:104BE0001C9C049103A92B254C5500210A9102908D
:104BF0000E9200930CE00498029A904704900028CB
:104C000000D148E10A98401C0A900E98401C0E9072
:104C10000E98017800290CD02529ECD100200790AE
:104C200008900990022608210191012504210E9C7B
:104C300002E00A9831E12843641C2278202AFAD045
:104C4000232A0AD02B2A04D02D2A04D0302A08D0B7
:104C50000AE03043F0E70843EEE702000820104383
:104C6000EAE702001020FAE72A2A0ED1009A136818
:104C70001A681F1D009B1F600C92002A03D5534227
:104C80000C9301430800641C15E000210C910149BC
:104C90000CE000BFCBCCCC0C0C9A8A4205DA970012
:104CA000BA185200D218303A0C92641C23781A00B9
:104CB000303A0A2AF0D321782E2903D00021C943A3
:104CC0000B9126E0641C21782A2908D100990A68F2
:104CD0001168121D009B1A600B91641C19E02D29AC
:104CE00001D1641C00E0002100220B920CE000299D
:104CF00009D10B9ABD4FBA4205DA9700BA18520093
:104D0000D218303A0B92641C23781A00303A0A2ADF
:104D1000EDD303A908852778390000BFB4A000F0BF
:104D2000DFFD002801D03800641C03AF2A2178542D
:104D3000785C682805D12078682802D162207854F0
:104D4000641C10A806902278601C0E90252A1AD0A8
:104D5000582A00D1C8E0632A00D12FE1642A00D18B
:104D6000F5E0692A00D1F2E06F2A00D1BCE0702A98
:104D700000D1ABE0732A0BD0752A00D1B4E0782AB9
:104D800000D1B1E025E10795402169440A7013E0A4
:104D9000009800680468001D009908600594002CC4
:104DA00000D080E02B20385C002878D092A000F062
:104DB000A1FD414201296ED10C980799401A099929
:104DC000401A0899401A0F902820385C400712D4E6
:104DD0002020694608710F9800280CDD0F9C029D69
:104DE000012301AA03A9280000F094F9002852D158
:104DF000641EF5D10295079D10AC002D0DD0029ECA
:104E000021780498B0470490002844D00A98401CA8
:104E10000A90641C6D1EF3D1029630206946087119
:104E2000099C002C0BDD029D012301AA03A9280087
:104E300000F070F900282ED1641EF5D10295059C72
:104E4000089D002D0DD0029E21780498B047049053
:104E5000002820D00A98401C0A90641C6D1EF3D1D3
:104E600002962820385C400700D4D1E6202069460D
:104E700008710F98002800DCCAE60F9C029D0123F0
:104E800001AA03A9280000F045F9002803D1641EF7
:104E9000F5D10295BCE60020C04317B0F0BD00BFBD
:104EA000AAA0059088E70B9D002D03D5200000F0F7
:104EB00091F909E02A000021200000F03FFD0028C0
:104EC00001D0001B00E02800089075E700980168F9
:104ED0000868091D009A1160039010A805907821B8
:104EE00003A800F097F867E7785C622803D0682889
:104EF00009D06C280FE0009801680868091D009B24
:104F00001960C0B20DE0009801680868091D009B97
:104F1000196080B205E0009801680868091D009BCF
:104F200019600390388D0199C0B2084240D00398AF
:104F300000283DD020201043782839D1079810A9A7
:104F400030230B54401C431C07930A5430E0785C18
:104F5000622803D0682809D06C280FE00098016807
:104F60000868091D009B196040B20DE000980168B7
:104F70000868091D009B196000B205E000980168EF
:104F80000868091D009B19600390002802D5079846
:104F90002D2109E0388D304202D007982B2103E003
:104FA000C00705D50798202110AB1954401C079065
:104FB00010A8079940180590110091E707950098EF
:104FC00001680868091D009A116040216944087051
:104FD000F2E607952520402169440870100000D1B1
:104FE000EAE6079610A84270E6E60000CBCCCC0CAF
:104FF000686C747A4C0000007072696E74665F733E
:105000003A2062616420257320617267756D656E58
:1050100074000000F0B583B005000C00E868019052
:1050200020006F2801D1082606E0FFF7D3FD78287D
:1050300001D00A2600E01026182728680100642CF9
:1050400001D0692C03D1002801D548420100002974
:105050000DD1286A00280AD1082E36D12820285CD4
:10506000000732D5172730200199C8752DE0029529
:1050700068460470019C0D007F1E019728003100D6
:1050800000F066F830313A2907DAE155280031009E
:1050900000F05EF805000AD004E068460078411888
:1050A000AF31F2E702988068E1198842E4D3029DAB
:1050B0000194082E09D12820285C000705D5E05D61
:1050C000302802D07F1E3020E0551820C01B6861B8
:1050D0000199C919A960296A884206DA081AA861E3
:1050E000288D0B490140298510E000290ED5282183
:1050F000695C14220A40102A08D1696A2A69891A4F
:10510000AA69891A081A012800DBA86103B0F0BD5A
:10511000EFFF0000F8B50024002B11D007000E00AF
:1051200014001D0021787068B8477060002809D00D
:10513000F069401CF0610020641C6D1EF2D1040077
:105140002000F2BD0020C043F9E700000000FEE7A8
:10515000094214D088420FD30122030C01D100046C
:105160001204002300185B418B4200D35B1A5241AA
:10517000F8D319001000704701000020704708B5EF
:1051800000F0E8FB08BD0B00110000D1704780B5AE
:105190001A00FCF7FFFD01BD70B504000D001600FC
:1051A00014220021FFF7EFFF03208643E56026610C
:1051B000A56030000838206002206060A819001F38
:1051C0000460001F0560286001486860002070BD11
:1051D000EEEEFFFF431C0178401C0942FBD1C01AD0
:1051E0007047FEE7F8B5002903D1304909680D681A
:1051F00004E0012906D12D4909684D68002D01D030
:10520000002A01D10020F2BD06000020C0438642E2
:1052100001D0072E00D20726D21D07208243170097
:10522000082E01D2390000E0B919280000F094FBE3
:10523000040005D112220821022000F03BF8E1E72A
:105240002068021B083A21000831194B31420CD06A
:1052500089190831B143083908604B606868401CFF
:1052600068602160501A02190C00D01B14280AD360
:1052700020000830C0192168016043606968491C3A
:10528000696020603A0065602868801A08382860E4
:10529000A868844201D12068A8600021200008305D
:1052A000FFF771FF20000830F2BD00BF604B002007
:1052B000EEEEFFFF10B5054B1B68DA601C69641C3D
:1052C0001C615B69002B00D0984710BD604B00202B
:1052D000F8B504000F0015001E0008D00020C043E0
:1052E0003100FFF735FFA84201D20020F2BD39009E
:1052F000200075432A00FFF775FFF2BD10B50028A6
:1053000019D008380F4A4168914214D0002912D0B0
:105310000D4B1B681C68A14202D05B6899420AD100
:1053200042600A680368D218121A0A608A689042BA
:1053300000D2886010BD192208210220FFF7BAFFB1
:1053400010BD00BFEEEEFFFF604B002010B500283F
:1053500011D00023C45C002C03D05B1C9A42F9D20C
:1053600004E0002900D00B60002010BDFF220821BE
:105370000220FFF79FFFFF2010BD70B50600346DBF
:10538000002C08D020002C30B26D904200D3F06C7D
:10539000726D904201D1FF2070BD30650D00306A02
:1053A000012815D1A868401C212806D31222072104
:1053B0000220FFF77FFF122070BD28682073AA68C3
:1053C0000C3120000D30FCF791FFA868401C06E06E
:1053D000AA680C3120000C30FCF788FFA868A06098
:1053E000B06A052803D0012801D00020B062002057
:1053F00070BDF2B50400170000250026483080215A
:10540000009A521E0BD0521E12D0521E1AD0521E9B
:1054100022D0521E1BD0D21E012A38D949E0396849
:1054200061643979017079794170B979817046E0A8
:10543000616C39604821615C39714178797180789B
:10544000B8713CE001793970C078787037E039780C
:1054500001717978C17032E02068C069012F02D0F3
:10546000022F04D008E0827B0A4206D102E0827B50
:105470000A4202D0406900E053260421203000F0A7
:10548000B7FA012F01D1256419E0256217E02068E1
:10549000C069009A082A00D08025827B1140A94269
:1054A00000D04069016A012901D1FF2607E0476564
:1054B00005E0542207210220FFF7FCFE54263000AD
:1054C000F2BDFEE7F8B50400002530480068406AE8
:1054D000032807D0512207210220FFF7EBFE2562A7
:1054E00051204FE02068C669B07B000600D5766980
:1054F000222021270093236A002B04D0212B07D0E0
:10550000222B15D03CE02762606221616261E56177
:10551000E2696169891A04D10098026025626562B6
:1055200029E0328A8A4200D90A00A26120623565E8
:10553000A1690A003000203000F0D0F8042804D21D
:105540002562706C60620320F2BD17D1A269F16A16
:105550002069FCF7CBFEB06B216909182161E16974
:105560000818E061716C616200990860B06B716B42
:10557000884202D225620420F2BD27620520F2BDD6
:105580002562FB2060620120F2BD00005C4B002020
:1055900008B410B585B007AB049300240394002928
:1055A00002D10194029402E00190491E02910094FC
:1055B00004AB01A9084878441E30FFF70FFB01999E
:1055C000002900D00C70002800D4039805B0019980
:1055D00010BC02B0084700BFF90F0000030007D05D
:1055E000491E03D30278401C1242F9D1491C98414C
:1055F0007047FEE7F2B582B004000025002036496E
:105600000968496A032908D0512207210220FFF7BF
:1056100051FE25645120E0635BE02168CE69B17BD7
:10562000090600D476698021890021270192009320
:10563000226C002A04D0212A0FD0222A26D047E04B
:10564000029A27642223E3636263019AA2632563BB
:10565000E162019A002A00D10120236BA26BD21AC9
:1056600006D1002808D1009803602564E5632AE08C
:105670008A4201D90A0001E0481CE062A262616B23
:10568000F06AFCF733FE222020643565E26AA16AE5
:105690003000203000F022F8042804D22564706C19
:1056A000E0630320FEBD11D1B06B616B091861632B
:1056B000216B08182063716CE16300990860A06B8E
:1056C000002802D125640420FEBD27640520FEBD0C
:1056D00025640120FEBD00005C4B0020FEB50400E7
:1056E0000025606C012803D1656204202063FEBDA3
:1056F00029480068436A012B06D0022B04D0032BF3
:1057000002D02520606244E00190A6680327206B48
:10571000002804D0202829D0212831D039E0F07B7E
:10572000384206D0B07B000601D5032000E00220FD
:10573000A0620091A06A03280BD10846002808D077
:10574000824206D0318AFFF703FD481E8041C00F18
:1057500000E00020A063A561009860610098E0610E
:10576000E06820610120206020202063F07B384227
:1057700004D07068022801D10520FEBD21202063DD
:1057800022000C21019883699847052803D22563DC
:10579000FEBD25630120FEBD5C4B0020F8B584B042
:1057A0000C004349096803912431029190314E68FD
:1057B000896801E02036491E002971D03268002A2C
:1057C000F8D105000120306033000C33092239493B
:1057D0002800FEF7ABFD0298903001900068002889
:1057E00003D10198066004E0080081690029FBD11B
:1057F00086612878271A28180CE0080041690029DA
:10580000FBD1446103E0F0690028F7D1F4617F1B0C
:10581000009840190090002F44D0009805784078F7
:1058200002283FD004283DD00528F0D10198C46853
:10583000006901E06834401E002831D02168002949
:10584000F8D10120206023000C3306221A49009869
:10585000FEF76CFD208A4105490D154A1268A22306
:105860005B00D258022A09D1E27BD20706D5C022BA
:105870005201024002D0D00A401C41432164A4627C
:105880000020C0436065A6610298E06122000E21FD
:105890000398836998470028B5D00021216004E06F
:1058A000122002E0300000F0C1F805B0F0BD00BFEA
:1058B0005C4B0020740D0020540D002080B520307A
:1058C00000F096F8002002BD0178427812020A43E7
:1058D000817809041143C078000608437047704777
:1058E000C9B202788A4203D0401C002AF9D10020B4
:1058F0007047FEE780B5002801D100BF07A0064928
:105900000B68002B03D022220021984701E000F011
:10591000BDF8222002BD0000644B0020636F6E734F
:10592000747261696E742068616E646C65723A208D
:10593000626164206D65737361676500C9B2521E50
:1059400005D30378401C8B42F9D1401E70470020DC
:105950007047FEE77047FEE7FEB5002200924468FC
:105960000268A31EDB00D21891423DD28668C3684C
:105970009E4239D305695B19B34235D3621C0023BB
:105980001A4D029131004E68AE4226D1009B002B89
:1059900002D18160012300930B6801935B1A083BDD
:1059A000029EB3421BD20023019E3668019F7F688E
:1059B000AF4207D10E60641E8668019FBE4205D1CA
:1059C000816003E03100002A05D0521E002A06D073
:1059D000521ED8D103E0446006E00968F6E70200F1
:1059E00008005460002B00D10020FEBDEEEEFFFF4A
:1059F00070B505000C4804686962FCF734FB0600CA
:105A0000286801280AD12A000D212000A36998479F
:105A10003000FCF72CFB0420286002E03000FCF78B
:105A200026FB002070BD00BF5C4B002030B58BB062
:105A3000040015480068A17B8900411882225200A9
:105A40008D58002D1CD0012100910294617C05919C
:105A5000A17C0691E17C0791018E0491408E039018
:105A60002C666846696C8847002809D10895022091
:105A700000906846696C8847002802D1656000E0A4
:105A800057200BB030BD00BF5C4B002080B501201B
:105A900000F002F801BDFEE780B500BF00BF024A7A
:105AA00011001820ABBEFBE726000200FCB583B056
:105AB0000300FF24FF206D462C70394C246825001C
:105AC00026003C360327B7640904090E212902D0B9
:105AD000222942D05CE02100CC310C684968611871
